{
	"perpustakaan.sol": {
		"perpustakaan": {
			"abi": [
				{
					"inputs": [],
					"stateMutability": "nonpayable",
					"type": "constructor"
				},
				{
					"anonymous": false,
					"inputs": [
						{
							"indexed": true,
							"internalType": "uint256",
							"name": "bookId",
							"type": "uint256"
						},
						{
							"indexed": false,
							"internalType": "string",
							"name": "title",
							"type": "string"
						},
						{
							"indexed": false,
							"internalType": "string",
							"name": "author",
							"type": "string"
						},
						{
							"indexed": false,
							"internalType": "string",
							"name": "isbn",
							"type": "string"
						}
					],
					"name": "BookAdded",
					"type": "event"
				},
				{
					"anonymous": false,
					"inputs": [
						{
							"indexed": true,
							"internalType": "uint256",
							"name": "bookId",
							"type": "uint256"
						}
					],
					"name": "BookBorrowed",
					"type": "event"
				},
				{
					"anonymous": false,
					"inputs": [
						{
							"indexed": true,
							"internalType": "uint256",
							"name": "bookId",
							"type": "uint256"
						}
					],
					"name": "BookRemoved",
					"type": "event"
				},
				{
					"anonymous": false,
					"inputs": [
						{
							"indexed": true,
							"internalType": "uint256",
							"name": "bookId",
							"type": "uint256"
						}
					],
					"name": "BookReturned",
					"type": "event"
				},
				{
					"anonymous": false,
					"inputs": [
						{
							"indexed": true,
							"internalType": "uint256",
							"name": "bookId",
							"type": "uint256"
						},
						{
							"indexed": false,
							"internalType": "string",
							"name": "title",
							"type": "string"
						},
						{
							"indexed": false,
							"internalType": "string",
							"name": "author",
							"type": "string"
						},
						{
							"indexed": false,
							"internalType": "string",
							"name": "isbn",
							"type": "string"
						}
					],
					"name": "BookUpdated",
					"type": "event"
				},
				{
					"inputs": [],
					"name": "Admin",
					"outputs": [
						{
							"internalType": "address",
							"name": "",
							"type": "address"
						}
					],
					"stateMutability": "view",
					"type": "function"
				},
				{
					"inputs": [
						{
							"internalType": "string",
							"name": "title",
							"type": "string"
						},
						{
							"internalType": "string",
							"name": "author",
							"type": "string"
						},
						{
							"internalType": "string",
							"name": "isbn",
							"type": "string"
						}
					],
					"name": "addBook",
					"outputs": [],
					"stateMutability": "nonpayable",
					"type": "function"
				},
				{
					"inputs": [],
					"name": "bookCount",
					"outputs": [
						{
							"internalType": "uint256",
							"name": "",
							"type": "uint256"
						}
					],
					"stateMutability": "view",
					"type": "function"
				},
				{
					"inputs": [
						{
							"internalType": "string",
							"name": "",
							"type": "string"
						}
					],
					"name": "bookIdByISBN",
					"outputs": [
						{
							"internalType": "uint256",
							"name": "",
							"type": "uint256"
						}
					],
					"stateMutability": "view",
					"type": "function"
				},
				{
					"inputs": [
						{
							"internalType": "uint256",
							"name": "",
							"type": "uint256"
						}
					],
					"name": "books",
					"outputs": [
						{
							"internalType": "string",
							"name": "title",
							"type": "string"
						},
						{
							"internalType": "string",
							"name": "author",
							"type": "string"
						},
						{
							"internalType": "string",
							"name": "isbn",
							"type": "string"
						},
						{
							"internalType": "bool",
							"name": "isAvailable",
							"type": "bool"
						}
					],
					"stateMutability": "view",
					"type": "function"
				},
				{
					"inputs": [
						{
							"internalType": "uint256",
							"name": "bookId",
							"type": "uint256"
						}
					],
					"name": "borrowBook",
					"outputs": [],
					"stateMutability": "nonpayable",
					"type": "function"
				},
				{
					"inputs": [
						{
							"internalType": "string",
							"name": "isbn",
							"type": "string"
						}
					],
					"name": "getBookByISBN",
					"outputs": [
						{
							"internalType": "uint256",
							"name": "",
							"type": "uint256"
						}
					],
					"stateMutability": "view",
					"type": "function"
				},
				{
					"inputs": [
						{
							"internalType": "uint256",
							"name": "bookId",
							"type": "uint256"
						}
					],
					"name": "removeBook",
					"outputs": [],
					"stateMutability": "nonpayable",
					"type": "function"
				},
				{
					"inputs": [
						{
							"internalType": "uint256",
							"name": "bookId",
							"type": "uint256"
						}
					],
					"name": "returnBook",
					"outputs": [],
					"stateMutability": "nonpayable",
					"type": "function"
				},
				{
					"inputs": [
						{
							"internalType": "uint256",
							"name": "bookId",
							"type": "uint256"
						},
						{
							"internalType": "string",
							"name": "title",
							"type": "string"
						},
						{
							"internalType": "string",
							"name": "author",
							"type": "string"
						},
						{
							"internalType": "string",
							"name": "isbn",
							"type": "string"
						}
					],
					"name": "updateBook",
					"outputs": [],
					"stateMutability": "nonpayable",
					"type": "function"
				}
			],
			"devdoc": {
				"kind": "dev",
				"methods": {},
				"version": 1
			},
			"evm": {
				"assembly": "    /* \"perpustakaan.sol\":61:3282  contract perpustakaan {... */\n  mstore(0x40, 0x80)\n    /* \"perpustakaan.sol\":804:855  constructor() {... */\n  callvalue\n  dup1\n  iszero\n  tag_1\n  jumpi\n  0x00\n  dup1\n  revert\ntag_1:\n  pop\n    /* \"perpustakaan.sol\":837:847  msg.sender */\n  caller\n    /* \"perpustakaan.sol\":829:834  Admin */\n  0x00\n  dup1\n    /* \"perpustakaan.sol\":829:847  Admin = msg.sender */\n  0x0100\n  exp\n  dup2\n  sload\n  dup2\n  0xffffffffffffffffffffffffffffffffffffffff\n  mul\n  not\n  and\n  swap1\n  dup4\n  0xffffffffffffffffffffffffffffffffffffffff\n  and\n  mul\n  or\n  swap1\n  sstore\n  pop\n    /* \"perpustakaan.sol\":61:3282  contract perpustakaan {... */\n  dataSize(sub_0)\n  dup1\n  dataOffset(sub_0)\n  0x00\n  codecopy\n  0x00\n  return\nstop\n\nsub_0: assembly {\n        /* \"perpustakaan.sol\":61:3282  contract perpustakaan {... */\n      mstore(0x40, 0x80)\n      callvalue\n      dup1\n      iszero\n      tag_1\n      jumpi\n      0x00\n      dup1\n      revert\n    tag_1:\n      pop\n      jumpi(tag_2, lt(calldatasize, 0x04))\n      shr(0xe0, calldataload(0x00))\n      dup1\n      0xb4133148\n      gt\n      tag_13\n      jumpi\n      dup1\n      0xb4133148\n      eq\n      tag_8\n      jumpi\n      dup1\n      0xb905ad78\n      eq\n      tag_9\n      jumpi\n      dup1\n      0xbec0d799\n      eq\n      tag_10\n      jumpi\n      dup1\n      0xca5140c9\n      eq\n      tag_11\n      jumpi\n      dup1\n      0xff1b636d\n      eq\n      tag_12\n      jumpi\n      jump(tag_2)\n    tag_13:\n      dup1\n      0x233d280c\n      eq\n      tag_3\n      jumpi\n      dup1\n      0x3904e647\n      eq\n      tag_4\n      jumpi\n      dup1\n      0x68744046\n      eq\n      tag_5\n      jumpi\n      dup1\n      0x69c46826\n      eq\n      tag_6\n      jumpi\n      dup1\n      0x7e490a9e\n      eq\n      tag_7\n      jumpi\n    tag_2:\n      0x00\n      dup1\n      revert\n        /* \"perpustakaan.sol\":3165:3279  function getBookByISBN(string memory isbn) public view returns (uint) {... */\n    tag_3:\n      tag_14\n      0x04\n      dup1\n      calldatasize\n      sub\n      dup2\n      add\n      swap1\n      tag_15\n      swap2\n      swap1\n      tag_16\n      jump\t// in\n    tag_15:\n      tag_17\n      jump\t// in\n    tag_14:\n      mload(0x40)\n      tag_18\n      swap2\n      swap1\n      tag_19\n      jump\t// in\n    tag_18:\n      mload(0x40)\n      dup1\n      swap2\n      sub\n      swap1\n      return\n        /* \"perpustakaan.sol\":1456:2171  function updateBook(uint bookId, string memory title, string memory author, string memory isbn) public onlyAdmin {... */\n    tag_4:\n      tag_20\n      0x04\n      dup1\n      calldatasize\n      sub\n      dup2\n      add\n      swap1\n      tag_21\n      swap2\n      swap1\n      tag_22\n      jump\t// in\n    tag_21:\n      tag_23\n      jump\t// in\n    tag_20:\n      stop\n        /* \"perpustakaan.sol\":271:305  mapping(uint => Book) public books */\n    tag_5:\n      tag_24\n      0x04\n      dup1\n      calldatasize\n      sub\n      dup2\n      add\n      swap1\n      tag_25\n      swap2\n      swap1\n      tag_26\n      jump\t// in\n    tag_25:\n      tag_27\n      jump\t// in\n    tag_24:\n      mload(0x40)\n      tag_28\n      swap5\n      swap4\n      swap3\n      swap2\n      swap1\n      tag_29\n      jump\t// in\n    tag_28:\n      mload(0x40)\n      dup1\n      swap2\n      sub\n      swap1\n      return\n        /* \"perpustakaan.sol\":863:1448  function addBook(string memory title, string memory author, string memory isbn) public onlyAdmin {... */\n    tag_6:\n      tag_30\n      0x04\n      dup1\n      calldatasize\n      sub\n      dup2\n      add\n      swap1\n      tag_31\n      swap2\n      swap1\n      tag_32\n      jump\t// in\n    tag_31:\n      tag_33\n      jump\t// in\n    tag_30:\n      stop\n        /* \"perpustakaan.sol\":2561:2860  function borrowBook(uint bookId) public {... */\n    tag_7:\n      tag_34\n      0x04\n      dup1\n      calldatasize\n      sub\n      dup2\n      add\n      swap1\n      tag_35\n      swap2\n      swap1\n      tag_26\n      jump\t// in\n    tag_35:\n      tag_36\n      jump\t// in\n    tag_34:\n      stop\n        /* \"perpustakaan.sol\":312:355  mapping(string => uint) public bookIdByISBN */\n    tag_8:\n      tag_37\n      0x04\n      dup1\n      calldatasize\n      sub\n      dup2\n      add\n      swap1\n      tag_38\n      swap2\n      swap1\n      tag_16\n      jump\t// in\n    tag_38:\n      tag_39\n      jump\t// in\n    tag_37:\n      mload(0x40)\n      tag_40\n      swap2\n      swap1\n      tag_19\n      jump\t// in\n    tag_40:\n      mload(0x40)\n      dup1\n      swap2\n      sub\n      swap1\n      return\n        /* \"perpustakaan.sol\":117:138  uint public bookCount */\n    tag_9:\n      tag_41\n      tag_42\n      jump\t// in\n    tag_41:\n      mload(0x40)\n      tag_43\n      swap2\n      swap1\n      tag_19\n      jump\t// in\n    tag_43:\n      mload(0x40)\n      dup1\n      swap2\n      sub\n      swap1\n      return\n        /* \"perpustakaan.sol\":2179:2553  function removeBook(uint bookId) public onlyAdmin {... */\n    tag_10:\n      tag_44\n      0x04\n      dup1\n      calldatasize\n      sub\n      dup2\n      add\n      swap1\n      tag_45\n      swap2\n      swap1\n      tag_26\n      jump\t// in\n    tag_45:\n      tag_46\n      jump\t// in\n    tag_44:\n      stop\n        /* \"perpustakaan.sol\":2868:3157  function returnBook(uint bookId) public {... */\n    tag_11:\n      tag_47\n      0x04\n      dup1\n      calldatasize\n      sub\n      dup2\n      add\n      swap1\n      tag_48\n      swap2\n      swap1\n      tag_26\n      jump\t// in\n    tag_48:\n      tag_49\n      jump\t// in\n    tag_47:\n      stop\n        /* \"perpustakaan.sol\":90:110  address public Admin */\n    tag_12:\n      tag_50\n      tag_51\n      jump\t// in\n    tag_50:\n      mload(0x40)\n      tag_52\n      swap2\n      swap1\n      tag_53\n      jump\t// in\n    tag_52:\n      mload(0x40)\n      dup1\n      swap2\n      sub\n      swap1\n      return\n        /* \"perpustakaan.sol\":3165:3279  function getBookByISBN(string memory isbn) public view returns (uint) {... */\n    tag_17:\n        /* \"perpustakaan.sol\":3229:3233  uint */\n      0x00\n        /* \"perpustakaan.sol\":3253:3265  bookIdByISBN */\n      0x03\n        /* \"perpustakaan.sol\":3266:3270  isbn */\n      dup3\n        /* \"perpustakaan.sol\":3253:3271  bookIdByISBN[isbn] */\n      mload(0x40)\n      tag_55\n      swap2\n      swap1\n      tag_56\n      jump\t// in\n    tag_55:\n      swap1\n      dup2\n      mstore\n      0x20\n      add\n      mload(0x40)\n      dup1\n      swap2\n      sub\n      swap1\n      keccak256\n      sload\n        /* \"perpustakaan.sol\":3246:3271  return bookIdByISBN[isbn] */\n      swap1\n      pop\n        /* \"perpustakaan.sol\":3165:3279  function getBookByISBN(string memory isbn) public view returns (uint) {... */\n      swap2\n      swap1\n      pop\n      jump\t// out\n        /* \"perpustakaan.sol\":1456:2171  function updateBook(uint bookId, string memory title, string memory author, string memory isbn) public onlyAdmin {... */\n    tag_23:\n        /* \"perpustakaan.sol\":729:734  Admin */\n      0x00\n      dup1\n      sload\n      swap1\n      0x0100\n      exp\n      swap1\n      div\n      0xffffffffffffffffffffffffffffffffffffffff\n      and\n        /* \"perpustakaan.sol\":715:734  msg.sender == Admin */\n      0xffffffffffffffffffffffffffffffffffffffff\n      and\n        /* \"perpustakaan.sol\":715:725  msg.sender */\n      caller\n        /* \"perpustakaan.sol\":715:734  msg.sender == Admin */\n      0xffffffffffffffffffffffffffffffffffffffff\n      and\n      eq\n        /* \"perpustakaan.sol\":707:776  require(msg.sender == Admin, \"Only the Admin can call this function\") */\n      tag_58\n      jumpi\n      mload(0x40)\n      0x08c379a000000000000000000000000000000000000000000000000000000000\n      dup2\n      mstore\n      0x04\n      add\n      tag_59\n      swap1\n      tag_60\n      jump\t// in\n    tag_59:\n      mload(0x40)\n      dup1\n      swap2\n      sub\n      swap1\n      revert\n    tag_58:\n        /* \"perpustakaan.sol\":1597:1606  bookCount */\n      sload(0x01)\n        /* \"perpustakaan.sol\":1588:1594  bookId */\n      dup5\n        /* \"perpustakaan.sol\":1588:1606  bookId < bookCount */\n      lt\n        /* \"perpustakaan.sol\":1580:1626  require(bookId < bookCount, \"Invalid book ID\") */\n      tag_62\n      jumpi\n      mload(0x40)\n      0x08c379a000000000000000000000000000000000000000000000000000000000\n      dup2\n      mstore\n      0x04\n      add\n      tag_63\n      swap1\n      tag_64\n      jump\t// in\n    tag_63:\n      mload(0x40)\n      dup1\n      swap2\n      sub\n      swap1\n      revert\n    tag_62:\n        /* \"perpustakaan.sol\":1639:1656  Book storage book */\n      0x00\n        /* \"perpustakaan.sol\":1659:1664  books */\n      0x02\n        /* \"perpustakaan.sol\":1659:1672  books[bookId] */\n      0x00\n        /* \"perpustakaan.sol\":1665:1671  bookId */\n      dup7\n        /* \"perpustakaan.sol\":1659:1672  books[bookId] */\n      dup2\n      mstore\n      0x20\n      add\n      swap1\n      dup2\n      mstore\n      0x20\n      add\n      0x00\n      keccak256\n        /* \"perpustakaan.sol\":1639:1672  Book storage book = books[bookId] */\n      swap1\n      pop\n        /* \"perpustakaan.sol\":1715:1716  0 */\n      0x00\n        /* \"perpustakaan.sol\":1699:1704  title */\n      dup5\n        /* \"perpustakaan.sol\":1693:1712  bytes(title).length */\n      mload\n        /* \"perpustakaan.sol\":1693:1716  bytes(title).length > 0 */\n      gt\n        /* \"perpustakaan.sol\":1685:1742  require(bytes(title).length > 0, \"Title cannot be empty\") */\n      tag_65\n      jumpi\n      mload(0x40)\n      0x08c379a000000000000000000000000000000000000000000000000000000000\n      dup2\n      mstore\n      0x04\n      add\n      tag_66\n      swap1\n      tag_67\n      jump\t// in\n    tag_66:\n      mload(0x40)\n      dup1\n      swap2\n      sub\n      swap1\n      revert\n    tag_65:\n        /* \"perpustakaan.sol\":1784:1785  0 */\n      0x00\n        /* \"perpustakaan.sol\":1767:1773  author */\n      dup4\n        /* \"perpustakaan.sol\":1761:1781  bytes(author).length */\n      mload\n        /* \"perpustakaan.sol\":1761:1785  bytes(author).length > 0 */\n      gt\n        /* \"perpustakaan.sol\":1753:1812  require(bytes(author).length > 0, \"Author cannot be empty\") */\n      tag_68\n      jumpi\n      mload(0x40)\n      0x08c379a000000000000000000000000000000000000000000000000000000000\n      dup2\n      mstore\n      0x04\n      add\n      tag_69\n      swap1\n      tag_70\n      jump\t// in\n    tag_69:\n      mload(0x40)\n      dup1\n      swap2\n      sub\n      swap1\n      revert\n    tag_68:\n        /* \"perpustakaan.sol\":1852:1853  0 */\n      0x00\n        /* \"perpustakaan.sol\":1837:1841  isbn */\n      dup3\n        /* \"perpustakaan.sol\":1831:1849  bytes(isbn).length */\n      mload\n        /* \"perpustakaan.sol\":1831:1853  bytes(isbn).length > 0 */\n      gt\n        /* \"perpustakaan.sol\":1823:1878  require(bytes(isbn).length > 0, \"ISBN cannot be empty\") */\n      tag_71\n      jumpi\n      mload(0x40)\n      0x08c379a000000000000000000000000000000000000000000000000000000000\n      dup2\n      mstore\n      0x04\n      add\n      tag_72\n      swap1\n      tag_73\n      jump\t// in\n    tag_72:\n      mload(0x40)\n      dup1\n      swap2\n      sub\n      swap1\n      revert\n    tag_71:\n        /* \"perpustakaan.sol\":1919:1920  0 */\n      0x00\n        /* \"perpustakaan.sol\":1897:1909  bookIdByISBN */\n      0x03\n        /* \"perpustakaan.sol\":1910:1914  isbn */\n      dup4\n        /* \"perpustakaan.sol\":1897:1915  bookIdByISBN[isbn] */\n      mload(0x40)\n      tag_74\n      swap2\n      swap1\n      tag_56\n      jump\t// in\n    tag_74:\n      swap1\n      dup2\n      mstore\n      0x20\n      add\n      mload(0x40)\n      dup1\n      swap2\n      sub\n      swap1\n      keccak256\n      sload\n        /* \"perpustakaan.sol\":1897:1920  bookIdByISBN[isbn] == 0 */\n      eq\n        /* \"perpustakaan.sol\":1897:1952  bookIdByISBN[isbn] == 0 || bookIdByISBN[isbn] == bookId */\n      dup1\n      tag_75\n      jumpi\n      pop\n        /* \"perpustakaan.sol\":1946:1952  bookId */\n      dup5\n        /* \"perpustakaan.sol\":1924:1936  bookIdByISBN */\n      0x03\n        /* \"perpustakaan.sol\":1937:1941  isbn */\n      dup4\n        /* \"perpustakaan.sol\":1924:1942  bookIdByISBN[isbn] */\n      mload(0x40)\n      tag_76\n      swap2\n      swap1\n      tag_56\n      jump\t// in\n    tag_76:\n      swap1\n      dup2\n      mstore\n      0x20\n      add\n      mload(0x40)\n      dup1\n      swap2\n      sub\n      swap1\n      keccak256\n      sload\n        /* \"perpustakaan.sol\":1924:1952  bookIdByISBN[isbn] == bookId */\n      eq\n        /* \"perpustakaan.sol\":1897:1952  bookIdByISBN[isbn] == 0 || bookIdByISBN[isbn] == bookId */\n    tag_75:\n        /* \"perpustakaan.sol\":1889:1976  require(bookIdByISBN[isbn] == 0 || bookIdByISBN[isbn] == bookId, \"ISBN already exists\") */\n      tag_77\n      jumpi\n      mload(0x40)\n      0x08c379a000000000000000000000000000000000000000000000000000000000\n      dup2\n      mstore\n      0x04\n      add\n      tag_78\n      swap1\n      tag_79\n      jump\t// in\n    tag_78:\n      mload(0x40)\n      dup1\n      swap2\n      sub\n      swap1\n      revert\n    tag_77:\n        /* \"perpustakaan.sol\":2002:2007  title */\n      dup4\n        /* \"perpustakaan.sol\":1989:1993  book */\n      dup2\n        /* \"perpustakaan.sol\":1989:1999  book.title */\n      0x00\n      add\n        /* \"perpustakaan.sol\":1989:2007  book.title = title */\n      swap1\n      dup1\n      mload\n      swap1\n      0x20\n      add\n      swap1\n      tag_80\n      swap3\n      swap2\n      swap1\n      tag_81\n      jump\t// in\n    tag_80:\n      pop\n        /* \"perpustakaan.sol\":2032:2038  author */\n      dup3\n        /* \"perpustakaan.sol\":2018:2022  book */\n      dup2\n        /* \"perpustakaan.sol\":2018:2029  book.author */\n      0x01\n      add\n        /* \"perpustakaan.sol\":2018:2038  book.author = author */\n      swap1\n      dup1\n      mload\n      swap1\n      0x20\n      add\n      swap1\n      tag_82\n      swap3\n      swap2\n      swap1\n      tag_81\n      jump\t// in\n    tag_82:\n      pop\n        /* \"perpustakaan.sol\":2061:2065  isbn */\n      dup2\n        /* \"perpustakaan.sol\":2049:2053  book */\n      dup2\n        /* \"perpustakaan.sol\":2049:2058  book.isbn */\n      0x02\n      add\n        /* \"perpustakaan.sol\":2049:2065  book.isbn = isbn */\n      swap1\n      dup1\n      mload\n      swap1\n      0x20\n      add\n      swap1\n      tag_83\n      swap3\n      swap2\n      swap1\n      tag_81\n      jump\t// in\n    tag_83:\n      pop\n        /* \"perpustakaan.sol\":2099:2105  bookId */\n      dup5\n        /* \"perpustakaan.sol\":2078:2090  bookIdByISBN */\n      0x03\n        /* \"perpustakaan.sol\":2091:2095  isbn */\n      dup4\n        /* \"perpustakaan.sol\":2078:2096  bookIdByISBN[isbn] */\n      mload(0x40)\n      tag_84\n      swap2\n      swap1\n      tag_56\n      jump\t// in\n    tag_84:\n      swap1\n      dup2\n      mstore\n      0x20\n      add\n      mload(0x40)\n      dup1\n      swap2\n      sub\n      swap1\n      keccak256\n        /* \"perpustakaan.sol\":2078:2105  bookIdByISBN[isbn] = bookId */\n      dup2\n      swap1\n      sstore\n      pop\n        /* \"perpustakaan.sol\":2135:2141  bookId */\n      dup5\n        /* \"perpustakaan.sol\":2123:2163  BookUpdated(bookId, title, author, isbn) */\n      0xa898c55468d86d424978d3de5e5782cc830c1dc9d253e3525b5d4888d8059a13\n        /* \"perpustakaan.sol\":2143:2148  title */\n      dup6\n        /* \"perpustakaan.sol\":2150:2156  author */\n      dup6\n        /* \"perpustakaan.sol\":2158:2162  isbn */\n      dup6\n        /* \"perpustakaan.sol\":2123:2163  BookUpdated(bookId, title, author, isbn) */\n      mload(0x40)\n      tag_85\n      swap4\n      swap3\n      swap2\n      swap1\n      tag_86\n      jump\t// in\n    tag_85:\n      mload(0x40)\n      dup1\n      swap2\n      sub\n      swap1\n      log2\n        /* \"perpustakaan.sol\":1569:2171  {... */\n      pop\n        /* \"perpustakaan.sol\":1456:2171  function updateBook(uint bookId, string memory title, string memory author, string memory isbn) public onlyAdmin {... */\n      pop\n      pop\n      pop\n      pop\n      jump\t// out\n        /* \"perpustakaan.sol\":271:305  mapping(uint => Book) public books */\n    tag_27:\n      mstore(0x20, 0x02)\n      dup1\n      0x00\n      mstore\n      keccak256(0x00, 0x40)\n      0x00\n      swap2\n      pop\n      swap1\n      pop\n      dup1\n      0x00\n      add\n      dup1\n      sload\n      tag_87\n      swap1\n      tag_88\n      jump\t// in\n    tag_87:\n      dup1\n      0x1f\n      add\n      0x20\n      dup1\n      swap2\n      div\n      mul\n      0x20\n      add\n      mload(0x40)\n      swap1\n      dup2\n      add\n      0x40\n      mstore\n      dup1\n      swap3\n      swap2\n      swap1\n      dup2\n      dup2\n      mstore\n      0x20\n      add\n      dup3\n      dup1\n      sload\n      tag_89\n      swap1\n      tag_88\n      jump\t// in\n    tag_89:\n      dup1\n      iszero\n      tag_90\n      jumpi\n      dup1\n      0x1f\n      lt\n      tag_91\n      jumpi\n      0x0100\n      dup1\n      dup4\n      sload\n      div\n      mul\n      dup4\n      mstore\n      swap2\n      0x20\n      add\n      swap2\n      jump(tag_90)\n    tag_91:\n      dup3\n      add\n      swap2\n      swap1\n      0x00\n      mstore\n      keccak256(0x00, 0x20)\n      swap1\n    tag_92:\n      dup2\n      sload\n      dup2\n      mstore\n      swap1\n      0x01\n      add\n      swap1\n      0x20\n      add\n      dup1\n      dup4\n      gt\n      tag_92\n      jumpi\n      dup3\n      swap1\n      sub\n      0x1f\n      and\n      dup3\n      add\n      swap2\n    tag_90:\n      pop\n      pop\n      pop\n      pop\n      pop\n      swap1\n      dup1\n      0x01\n      add\n      dup1\n      sload\n      tag_93\n      swap1\n      tag_88\n      jump\t// in\n    tag_93:\n      dup1\n      0x1f\n      add\n      0x20\n      dup1\n      swap2\n      div\n      mul\n      0x20\n      add\n      mload(0x40)\n      swap1\n      dup2\n      add\n      0x40\n      mstore\n      dup1\n      swap3\n      swap2\n      swap1\n      dup2\n      dup2\n      mstore\n      0x20\n      add\n      dup3\n      dup1\n      sload\n      tag_94\n      swap1\n      tag_88\n      jump\t// in\n    tag_94:\n      dup1\n      iszero\n      tag_95\n      jumpi\n      dup1\n      0x1f\n      lt\n      tag_96\n      jumpi\n      0x0100\n      dup1\n      dup4\n      sload\n      div\n      mul\n      dup4\n      mstore\n      swap2\n      0x20\n      add\n      swap2\n      jump(tag_95)\n    tag_96:\n      dup3\n      add\n      swap2\n      swap1\n      0x00\n      mstore\n      keccak256(0x00, 0x20)\n      swap1\n    tag_97:\n      dup2\n      sload\n      dup2\n      mstore\n      swap1\n      0x01\n      add\n      swap1\n      0x20\n      add\n      dup1\n      dup4\n      gt\n      tag_97\n      jumpi\n      dup3\n      swap1\n      sub\n      0x1f\n      and\n      dup3\n      add\n      swap2\n    tag_95:\n      pop\n      pop\n      pop\n      pop\n      pop\n      swap1\n      dup1\n      0x02\n      add\n      dup1\n      sload\n      tag_98\n      swap1\n      tag_88\n      jump\t// in\n    tag_98:\n      dup1\n      0x1f\n      add\n      0x20\n      dup1\n      swap2\n      div\n      mul\n      0x20\n      add\n      mload(0x40)\n      swap1\n      dup2\n      add\n      0x40\n      mstore\n      dup1\n      swap3\n      swap2\n      swap1\n      dup2\n      dup2\n      mstore\n      0x20\n      add\n      dup3\n      dup1\n      sload\n      tag_99\n      swap1\n      tag_88\n      jump\t// in\n    tag_99:\n      dup1\n      iszero\n      tag_100\n      jumpi\n      dup1\n      0x1f\n      lt\n      tag_101\n      jumpi\n      0x0100\n      dup1\n      dup4\n      sload\n      div\n      mul\n      dup4\n      mstore\n      swap2\n      0x20\n      add\n      swap2\n      jump(tag_100)\n    tag_101:\n      dup3\n      add\n      swap2\n      swap1\n      0x00\n      mstore\n      keccak256(0x00, 0x20)\n      swap1\n    tag_102:\n      dup2\n      sload\n      dup2\n      mstore\n      swap1\n      0x01\n      add\n      swap1\n      0x20\n      add\n      dup1\n      dup4\n      gt\n      tag_102\n      jumpi\n      dup3\n      swap1\n      sub\n      0x1f\n      and\n      dup3\n      add\n      swap2\n    tag_100:\n      pop\n      pop\n      pop\n      pop\n      pop\n      swap1\n      dup1\n      0x03\n      add\n      0x00\n      swap1\n      sload\n      swap1\n      0x0100\n      exp\n      swap1\n      div\n      0xff\n      and\n      swap1\n      pop\n      dup5\n      jump\t// out\n        /* \"perpustakaan.sol\":863:1448  function addBook(string memory title, string memory author, string memory isbn) public onlyAdmin {... */\n    tag_33:\n        /* \"perpustakaan.sol\":729:734  Admin */\n      0x00\n      dup1\n      sload\n      swap1\n      0x0100\n      exp\n      swap1\n      div\n      0xffffffffffffffffffffffffffffffffffffffff\n      and\n        /* \"perpustakaan.sol\":715:734  msg.sender == Admin */\n      0xffffffffffffffffffffffffffffffffffffffff\n      and\n        /* \"perpustakaan.sol\":715:725  msg.sender */\n      caller\n        /* \"perpustakaan.sol\":715:734  msg.sender == Admin */\n      0xffffffffffffffffffffffffffffffffffffffff\n      and\n      eq\n        /* \"perpustakaan.sol\":707:776  require(msg.sender == Admin, \"Only the Admin can call this function\") */\n      tag_104\n      jumpi\n      mload(0x40)\n      0x08c379a000000000000000000000000000000000000000000000000000000000\n      dup2\n      mstore\n      0x04\n      add\n      tag_105\n      swap1\n      tag_60\n      jump\t// in\n    tag_105:\n      mload(0x40)\n      dup1\n      swap2\n      sub\n      swap1\n      revert\n    tag_104:\n        /* \"perpustakaan.sol\":1001:1002  0 */\n      0x00\n        /* \"perpustakaan.sol\":985:990  title */\n      dup4\n        /* \"perpustakaan.sol\":979:998  bytes(title).length */\n      mload\n        /* \"perpustakaan.sol\":979:1002  bytes(title).length > 0 */\n      gt\n        /* \"perpustakaan.sol\":971:1028  require(bytes(title).length > 0, \"Title cannot be empty\") */\n      tag_107\n      jumpi\n      mload(0x40)\n      0x08c379a000000000000000000000000000000000000000000000000000000000\n      dup2\n      mstore\n      0x04\n      add\n      tag_108\n      swap1\n      tag_67\n      jump\t// in\n    tag_108:\n      mload(0x40)\n      dup1\n      swap2\n      sub\n      swap1\n      revert\n    tag_107:\n        /* \"perpustakaan.sol\":1070:1071  0 */\n      0x00\n        /* \"perpustakaan.sol\":1053:1059  author */\n      dup3\n        /* \"perpustakaan.sol\":1047:1067  bytes(author).length */\n      mload\n        /* \"perpustakaan.sol\":1047:1071  bytes(author).length > 0 */\n      gt\n        /* \"perpustakaan.sol\":1039:1098  require(bytes(author).length > 0, \"Author cannot be empty\") */\n      tag_109\n      jumpi\n      mload(0x40)\n      0x08c379a000000000000000000000000000000000000000000000000000000000\n      dup2\n      mstore\n      0x04\n      add\n      tag_110\n      swap1\n      tag_70\n      jump\t// in\n    tag_110:\n      mload(0x40)\n      dup1\n      swap2\n      sub\n      swap1\n      revert\n    tag_109:\n        /* \"perpustakaan.sol\":1138:1139  0 */\n      0x00\n        /* \"perpustakaan.sol\":1123:1127  isbn */\n      dup2\n        /* \"perpustakaan.sol\":1117:1135  bytes(isbn).length */\n      mload\n        /* \"perpustakaan.sol\":1117:1139  bytes(isbn).length > 0 */\n      gt\n        /* \"perpustakaan.sol\":1109:1164  require(bytes(isbn).length > 0, \"ISBN cannot be empty\") */\n      tag_111\n      jumpi\n      mload(0x40)\n      0x08c379a000000000000000000000000000000000000000000000000000000000\n      dup2\n      mstore\n      0x04\n      add\n      tag_112\n      swap1\n      tag_73\n      jump\t// in\n    tag_112:\n      mload(0x40)\n      dup1\n      swap2\n      sub\n      swap1\n      revert\n    tag_111:\n        /* \"perpustakaan.sol\":1205:1206  0 */\n      0x00\n        /* \"perpustakaan.sol\":1183:1195  bookIdByISBN */\n      0x03\n        /* \"perpustakaan.sol\":1196:1200  isbn */\n      dup3\n        /* \"perpustakaan.sol\":1183:1201  bookIdByISBN[isbn] */\n      mload(0x40)\n      tag_113\n      swap2\n      swap1\n      tag_56\n      jump\t// in\n    tag_113:\n      swap1\n      dup2\n      mstore\n      0x20\n      add\n      mload(0x40)\n      dup1\n      swap2\n      sub\n      swap1\n      keccak256\n      sload\n        /* \"perpustakaan.sol\":1183:1206  bookIdByISBN[isbn] == 0 */\n      eq\n        /* \"perpustakaan.sol\":1175:1230  require(bookIdByISBN[isbn] == 0, \"ISBN already exists\") */\n      tag_114\n      jumpi\n      mload(0x40)\n      0x08c379a000000000000000000000000000000000000000000000000000000000\n      dup2\n      mstore\n      0x04\n      add\n      tag_115\n      swap1\n      tag_79\n      jump\t// in\n    tag_115:\n      mload(0x40)\n      dup1\n      swap2\n      sub\n      swap1\n      revert\n    tag_114:\n        /* \"perpustakaan.sol\":1243:1254  uint bookId */\n      0x00\n        /* \"perpustakaan.sol\":1257:1266  bookCount */\n      sload(0x01)\n        /* \"perpustakaan.sol\":1243:1266  uint bookId = bookCount */\n      swap1\n      pop\n        /* \"perpustakaan.sol\":1293:1324  Book(title, author, isbn, true) */\n      mload(0x40)\n      dup1\n      0x80\n      add\n      0x40\n      mstore\n      dup1\n        /* \"perpustakaan.sol\":1298:1303  title */\n      dup6\n        /* \"perpustakaan.sol\":1293:1324  Book(title, author, isbn, true) */\n      dup2\n      mstore\n      0x20\n      add\n        /* \"perpustakaan.sol\":1305:1311  author */\n      dup5\n        /* \"perpustakaan.sol\":1293:1324  Book(title, author, isbn, true) */\n      dup2\n      mstore\n      0x20\n      add\n        /* \"perpustakaan.sol\":1313:1317  isbn */\n      dup4\n        /* \"perpustakaan.sol\":1293:1324  Book(title, author, isbn, true) */\n      dup2\n      mstore\n      0x20\n      add\n        /* \"perpustakaan.sol\":1319:1323  true */\n      0x01\n        /* \"perpustakaan.sol\":1293:1324  Book(title, author, isbn, true) */\n      iszero\n      iszero\n      dup2\n      mstore\n      pop\n        /* \"perpustakaan.sol\":1277:1282  books */\n      0x02\n        /* \"perpustakaan.sol\":1277:1290  books[bookId] */\n      0x00\n        /* \"perpustakaan.sol\":1283:1289  bookId */\n      dup4\n        /* \"perpustakaan.sol\":1277:1290  books[bookId] */\n      dup2\n      mstore\n      0x20\n      add\n      swap1\n      dup2\n      mstore\n      0x20\n      add\n      0x00\n      keccak256\n        /* \"perpustakaan.sol\":1277:1324  books[bookId] = Book(title, author, isbn, true) */\n      0x00\n      dup3\n      add\n      mload\n      dup2\n      0x00\n      add\n      swap1\n      dup1\n      mload\n      swap1\n      0x20\n      add\n      swap1\n      tag_116\n      swap3\n      swap2\n      swap1\n      tag_81\n      jump\t// in\n    tag_116:\n      pop\n      0x20\n      dup3\n      add\n      mload\n      dup2\n      0x01\n      add\n      swap1\n      dup1\n      mload\n      swap1\n      0x20\n      add\n      swap1\n      tag_117\n      swap3\n      swap2\n      swap1\n      tag_81\n      jump\t// in\n    tag_117:\n      pop\n      0x40\n      dup3\n      add\n      mload\n      dup2\n      0x02\n      add\n      swap1\n      dup1\n      mload\n      swap1\n      0x20\n      add\n      swap1\n      tag_118\n      swap3\n      swap2\n      swap1\n      tag_81\n      jump\t// in\n    tag_118:\n      pop\n      0x60\n      dup3\n      add\n      mload\n      dup2\n      0x03\n      add\n      exp(0x0100, 0x00)\n      dup2\n      sload\n      dup2\n      0xff\n      mul\n      not\n      and\n      swap1\n      dup4\n      iszero\n      iszero\n      mul\n      or\n      swap1\n      sstore\n      pop\n      swap1\n      pop\n      pop\n        /* \"perpustakaan.sol\":1356:1362  bookId */\n      dup1\n        /* \"perpustakaan.sol\":1335:1347  bookIdByISBN */\n      0x03\n        /* \"perpustakaan.sol\":1348:1352  isbn */\n      dup4\n        /* \"perpustakaan.sol\":1335:1353  bookIdByISBN[isbn] */\n      mload(0x40)\n      tag_119\n      swap2\n      swap1\n      tag_56\n      jump\t// in\n    tag_119:\n      swap1\n      dup2\n      mstore\n      0x20\n      add\n      mload(0x40)\n      dup1\n      swap2\n      sub\n      swap1\n      keccak256\n        /* \"perpustakaan.sol\":1335:1362  bookIdByISBN[isbn] = bookId */\n      dup2\n      swap1\n      sstore\n      pop\n        /* \"perpustakaan.sol\":1373:1382  bookCount */\n      0x01\n      0x00\n        /* \"perpustakaan.sol\":1373:1384  bookCount++ */\n      dup2\n      sload\n      dup1\n      swap3\n      swap2\n      swap1\n      tag_120\n      swap1\n      tag_121\n      jump\t// in\n    tag_120:\n      swap2\n      swap1\n      pop\n      sstore\n      pop\n        /* \"perpustakaan.sol\":1412:1418  bookId */\n      dup1\n        /* \"perpustakaan.sol\":1402:1440  BookAdded(bookId, title, author, isbn) */\n      0x16b1db40dbf86a945842a8b64a0f1246f7549bb3fbb390b716cd12c74c888cc4\n        /* \"perpustakaan.sol\":1420:1425  title */\n      dup6\n        /* \"perpustakaan.sol\":1427:1433  author */\n      dup6\n        /* \"perpustakaan.sol\":1435:1439  isbn */\n      dup6\n        /* \"perpustakaan.sol\":1402:1440  BookAdded(bookId, title, author, isbn) */\n      mload(0x40)\n      tag_122\n      swap4\n      swap3\n      swap2\n      swap1\n      tag_86\n      jump\t// in\n    tag_122:\n      mload(0x40)\n      dup1\n      swap2\n      sub\n      swap1\n      log2\n        /* \"perpustakaan.sol\":960:1448  {... */\n      pop\n        /* \"perpustakaan.sol\":863:1448  function addBook(string memory title, string memory author, string memory isbn) public onlyAdmin {... */\n      pop\n      pop\n      pop\n      jump\t// out\n        /* \"perpustakaan.sol\":2561:2860  function borrowBook(uint bookId) public {... */\n    tag_36:\n        /* \"perpustakaan.sol\":2629:2638  bookCount */\n      sload(0x01)\n        /* \"perpustakaan.sol\":2620:2626  bookId */\n      dup2\n        /* \"perpustakaan.sol\":2620:2638  bookId < bookCount */\n      lt\n        /* \"perpustakaan.sol\":2612:2658  require(bookId < bookCount, \"Invalid book ID\") */\n      tag_124\n      jumpi\n      mload(0x40)\n      0x08c379a000000000000000000000000000000000000000000000000000000000\n      dup2\n      mstore\n      0x04\n      add\n      tag_125\n      swap1\n      tag_64\n      jump\t// in\n    tag_125:\n      mload(0x40)\n      dup1\n      swap2\n      sub\n      swap1\n      revert\n    tag_124:\n        /* \"perpustakaan.sol\":2671:2688  Book storage book */\n      0x00\n        /* \"perpustakaan.sol\":2691:2696  books */\n      0x02\n        /* \"perpustakaan.sol\":2691:2704  books[bookId] */\n      0x00\n        /* \"perpustakaan.sol\":2697:2703  bookId */\n      dup4\n        /* \"perpustakaan.sol\":2691:2704  books[bookId] */\n      dup2\n      mstore\n      0x20\n      add\n      swap1\n      dup2\n      mstore\n      0x20\n      add\n      0x00\n      keccak256\n        /* \"perpustakaan.sol\":2671:2704  Book storage book = books[bookId] */\n      swap1\n      pop\n        /* \"perpustakaan.sol\":2723:2727  book */\n      dup1\n        /* \"perpustakaan.sol\":2723:2739  book.isAvailable */\n      0x03\n      add\n      0x00\n      swap1\n      sload\n      swap1\n      0x0100\n      exp\n      swap1\n      div\n      0xff\n      and\n        /* \"perpustakaan.sol\":2715:2779  require(book.isAvailable, \"Book is not available for borrowing\") */\n      tag_126\n      jumpi\n      mload(0x40)\n      0x08c379a000000000000000000000000000000000000000000000000000000000\n      dup2\n      mstore\n      0x04\n      add\n      tag_127\n      swap1\n      tag_128\n      jump\t// in\n    tag_127:\n      mload(0x40)\n      dup1\n      swap2\n      sub\n      swap1\n      revert\n    tag_126:\n        /* \"perpustakaan.sol\":2811:2816  false */\n      0x00\n        /* \"perpustakaan.sol\":2792:2796  book */\n      dup2\n        /* \"perpustakaan.sol\":2792:2808  book.isAvailable */\n      0x03\n      add\n      0x00\n        /* \"perpustakaan.sol\":2792:2816  book.isAvailable = false */\n      0x0100\n      exp\n      dup2\n      sload\n      dup2\n      0xff\n      mul\n      not\n      and\n      swap1\n      dup4\n      iszero\n      iszero\n      mul\n      or\n      swap1\n      sstore\n      pop\n        /* \"perpustakaan.sol\":2845:2851  bookId */\n      dup2\n        /* \"perpustakaan.sol\":2832:2852  BookBorrowed(bookId) */\n      0x7a6277620702967bfa65133a9521f449d456f9ba720f869a5e96c44d9321e8f1\n      mload(0x40)\n      mload(0x40)\n      dup1\n      swap2\n      sub\n      swap1\n      log2\n        /* \"perpustakaan.sol\":2601:2860  {... */\n      pop\n        /* \"perpustakaan.sol\":2561:2860  function borrowBook(uint bookId) public {... */\n      pop\n      jump\t// out\n        /* \"perpustakaan.sol\":312:355  mapping(string => uint) public bookIdByISBN */\n    tag_39:\n      0x03\n      dup2\n      dup1\n      mload\n      0x20\n      dup2\n      add\n      dup3\n      add\n      dup1\n      mload\n      dup5\n      dup3\n      mstore\n      0x20\n      dup4\n      add\n      0x20\n      dup6\n      add\n      keccak256\n      dup2\n      dup4\n      mstore\n      dup1\n      swap6\n      pop\n      pop\n      pop\n      pop\n      pop\n      pop\n      0x00\n      swap2\n      pop\n      swap1\n      pop\n      sload\n      dup2\n      jump\t// out\n        /* \"perpustakaan.sol\":117:138  uint public bookCount */\n    tag_42:\n      sload(0x01)\n      dup2\n      jump\t// out\n        /* \"perpustakaan.sol\":2179:2553  function removeBook(uint bookId) public onlyAdmin {... */\n    tag_46:\n        /* \"perpustakaan.sol\":729:734  Admin */\n      0x00\n      dup1\n      sload\n      swap1\n      0x0100\n      exp\n      swap1\n      div\n      0xffffffffffffffffffffffffffffffffffffffff\n      and\n        /* \"perpustakaan.sol\":715:734  msg.sender == Admin */\n      0xffffffffffffffffffffffffffffffffffffffff\n      and\n        /* \"perpustakaan.sol\":715:725  msg.sender */\n      caller\n        /* \"perpustakaan.sol\":715:734  msg.sender == Admin */\n      0xffffffffffffffffffffffffffffffffffffffff\n      and\n      eq\n        /* \"perpustakaan.sol\":707:776  require(msg.sender == Admin, \"Only the Admin can call this function\") */\n      tag_130\n      jumpi\n      mload(0x40)\n      0x08c379a000000000000000000000000000000000000000000000000000000000\n      dup2\n      mstore\n      0x04\n      add\n      tag_131\n      swap1\n      tag_60\n      jump\t// in\n    tag_131:\n      mload(0x40)\n      dup1\n      swap2\n      sub\n      swap1\n      revert\n    tag_130:\n        /* \"perpustakaan.sol\":2257:2266  bookCount */\n      sload(0x01)\n        /* \"perpustakaan.sol\":2248:2254  bookId */\n      dup2\n        /* \"perpustakaan.sol\":2248:2266  bookId < bookCount */\n      lt\n        /* \"perpustakaan.sol\":2240:2286  require(bookId < bookCount, \"Invalid book ID\") */\n      tag_133\n      jumpi\n      mload(0x40)\n      0x08c379a000000000000000000000000000000000000000000000000000000000\n      dup2\n      mstore\n      0x04\n      add\n      tag_134\n      swap1\n      tag_64\n      jump\t// in\n    tag_134:\n      mload(0x40)\n      dup1\n      swap2\n      sub\n      swap1\n      revert\n    tag_133:\n        /* \"perpustakaan.sol\":2299:2316  Book storage book */\n      0x00\n        /* \"perpustakaan.sol\":2319:2324  books */\n      0x02\n        /* \"perpustakaan.sol\":2319:2332  books[bookId] */\n      0x00\n        /* \"perpustakaan.sol\":2325:2331  bookId */\n      dup4\n        /* \"perpustakaan.sol\":2319:2332  books[bookId] */\n      dup2\n      mstore\n      0x20\n      add\n      swap1\n      dup2\n      mstore\n      0x20\n      add\n      0x00\n      keccak256\n        /* \"perpustakaan.sol\":2299:2332  Book storage book = books[bookId] */\n      swap1\n      pop\n        /* \"perpustakaan.sol\":2351:2355  book */\n      dup1\n        /* \"perpustakaan.sol\":2351:2367  book.isAvailable */\n      0x03\n      add\n      0x00\n      swap1\n      sload\n      swap1\n      0x0100\n      exp\n      swap1\n      div\n      0xff\n      and\n        /* \"perpustakaan.sol\":2343:2398  require(book.isAvailable, \"Book is currently borrowed\") */\n      tag_135\n      jumpi\n      mload(0x40)\n      0x08c379a000000000000000000000000000000000000000000000000000000000\n      dup2\n      mstore\n      0x04\n      add\n      tag_136\n      swap1\n      tag_137\n      jump\t// in\n    tag_136:\n      mload(0x40)\n      dup1\n      swap2\n      sub\n      swap1\n      revert\n    tag_135:\n        /* \"perpustakaan.sol\":2411:2429  string memory isbn */\n      0x00\n        /* \"perpustakaan.sol\":2432:2436  book */\n      dup2\n        /* \"perpustakaan.sol\":2432:2441  book.isbn */\n      0x02\n      add\n        /* \"perpustakaan.sol\":2411:2441  string memory isbn = book.isbn */\n      dup1\n      sload\n      tag_138\n      swap1\n      tag_88\n      jump\t// in\n    tag_138:\n      dup1\n      0x1f\n      add\n      0x20\n      dup1\n      swap2\n      div\n      mul\n      0x20\n      add\n      mload(0x40)\n      swap1\n      dup2\n      add\n      0x40\n      mstore\n      dup1\n      swap3\n      swap2\n      swap1\n      dup2\n      dup2\n      mstore\n      0x20\n      add\n      dup3\n      dup1\n      sload\n      tag_139\n      swap1\n      tag_88\n      jump\t// in\n    tag_139:\n      dup1\n      iszero\n      tag_140\n      jumpi\n      dup1\n      0x1f\n      lt\n      tag_141\n      jumpi\n      0x0100\n      dup1\n      dup4\n      sload\n      div\n      mul\n      dup4\n      mstore\n      swap2\n      0x20\n      add\n      swap2\n      jump(tag_140)\n    tag_141:\n      dup3\n      add\n      swap2\n      swap1\n      0x00\n      mstore\n      keccak256(0x00, 0x20)\n      swap1\n    tag_142:\n      dup2\n      sload\n      dup2\n      mstore\n      swap1\n      0x01\n      add\n      swap1\n      0x20\n      add\n      dup1\n      dup4\n      gt\n      tag_142\n      jumpi\n      dup3\n      swap1\n      sub\n      0x1f\n      and\n      dup3\n      add\n      swap2\n    tag_140:\n      pop\n      pop\n      pop\n      pop\n      pop\n      swap1\n      pop\n        /* \"perpustakaan.sol\":2459:2464  books */\n      0x02\n        /* \"perpustakaan.sol\":2459:2472  books[bookId] */\n      0x00\n        /* \"perpustakaan.sol\":2465:2471  bookId */\n      dup5\n        /* \"perpustakaan.sol\":2459:2472  books[bookId] */\n      dup2\n      mstore\n      0x20\n      add\n      swap1\n      dup2\n      mstore\n      0x20\n      add\n      0x00\n      keccak256\n      0x00\n        /* \"perpustakaan.sol\":2452:2472  delete books[bookId] */\n      dup1\n      dup3\n      add\n      0x00\n      tag_143\n      swap2\n      swap1\n      tag_144\n      jump\t// in\n    tag_143:\n      0x01\n      dup3\n      add\n      0x00\n      tag_145\n      swap2\n      swap1\n      tag_144\n      jump\t// in\n    tag_145:\n      0x02\n      dup3\n      add\n      0x00\n      tag_146\n      swap2\n      swap1\n      tag_144\n      jump\t// in\n    tag_146:\n      0x03\n      dup3\n      add\n      exp(0x0100, 0x00)\n      dup2\n      sload\n      swap1\n      0xff\n      mul\n      not\n      and\n      swap1\n      sstore\n      pop\n      pop\n        /* \"perpustakaan.sol\":2490:2502  bookIdByISBN */\n      0x03\n        /* \"perpustakaan.sol\":2503:2507  isbn */\n      dup2\n        /* \"perpustakaan.sol\":2490:2508  bookIdByISBN[isbn] */\n      mload(0x40)\n      tag_147\n      swap2\n      swap1\n      tag_56\n      jump\t// in\n    tag_147:\n      swap1\n      dup2\n      mstore\n      0x20\n      add\n      mload(0x40)\n      dup1\n      swap2\n      sub\n      swap1\n      keccak256\n        /* \"perpustakaan.sol\":2483:2508  delete bookIdByISBN[isbn] */\n      0x00\n      swap1\n      sstore\n        /* \"perpustakaan.sol\":2538:2544  bookId */\n      dup3\n        /* \"perpustakaan.sol\":2526:2545  BookRemoved(bookId) */\n      0x3c5ce13264433bcf97e5d53c97af4fc33800e8c9dd927f965b116d0018d7cddf\n      mload(0x40)\n      mload(0x40)\n      dup1\n      swap2\n      sub\n      swap1\n      log2\n        /* \"perpustakaan.sol\":2229:2553  {... */\n      pop\n      pop\n        /* \"perpustakaan.sol\":2179:2553  function removeBook(uint bookId) public onlyAdmin {... */\n      pop\n      jump\t// out\n        /* \"perpustakaan.sol\":2868:3157  function returnBook(uint bookId) public {... */\n    tag_49:\n        /* \"perpustakaan.sol\":2936:2945  bookCount */\n      sload(0x01)\n        /* \"perpustakaan.sol\":2927:2933  bookId */\n      dup2\n        /* \"perpustakaan.sol\":2927:2945  bookId < bookCount */\n      lt\n        /* \"perpustakaan.sol\":2919:2965  require(bookId < bookCount, \"Invalid book ID\") */\n      tag_149\n      jumpi\n      mload(0x40)\n      0x08c379a000000000000000000000000000000000000000000000000000000000\n      dup2\n      mstore\n      0x04\n      add\n      tag_150\n      swap1\n      tag_64\n      jump\t// in\n    tag_150:\n      mload(0x40)\n      dup1\n      swap2\n      sub\n      swap1\n      revert\n    tag_149:\n        /* \"perpustakaan.sol\":2978:2995  Book storage book */\n      0x00\n        /* \"perpustakaan.sol\":2998:3003  books */\n      0x02\n        /* \"perpustakaan.sol\":2998:3011  books[bookId] */\n      0x00\n        /* \"perpustakaan.sol\":3004:3010  bookId */\n      dup4\n        /* \"perpustakaan.sol\":2998:3011  books[bookId] */\n      dup2\n      mstore\n      0x20\n      add\n      swap1\n      dup2\n      mstore\n      0x20\n      add\n      0x00\n      keccak256\n        /* \"perpustakaan.sol\":2978:3011  Book storage book = books[bookId] */\n      swap1\n      pop\n        /* \"perpustakaan.sol\":3031:3035  book */\n      dup1\n        /* \"perpustakaan.sol\":3031:3047  book.isAvailable */\n      0x03\n      add\n      0x00\n      swap1\n      sload\n      swap1\n      0x0100\n      exp\n      swap1\n      div\n      0xff\n      and\n        /* \"perpustakaan.sol\":3030:3047  !book.isAvailable */\n      iszero\n        /* \"perpustakaan.sol\":3022:3077  require(!book.isAvailable, \"Book is already available\") */\n      tag_151\n      jumpi\n      mload(0x40)\n      0x08c379a000000000000000000000000000000000000000000000000000000000\n      dup2\n      mstore\n      0x04\n      add\n      tag_152\n      swap1\n      tag_153\n      jump\t// in\n    tag_152:\n      mload(0x40)\n      dup1\n      swap2\n      sub\n      swap1\n      revert\n    tag_151:\n        /* \"perpustakaan.sol\":3109:3113  true */\n      0x01\n        /* \"perpustakaan.sol\":3090:3094  book */\n      dup2\n        /* \"perpustakaan.sol\":3090:3106  book.isAvailable */\n      0x03\n      add\n      0x00\n        /* \"perpustakaan.sol\":3090:3113  book.isAvailable = true */\n      0x0100\n      exp\n      dup2\n      sload\n      dup2\n      0xff\n      mul\n      not\n      and\n      swap1\n      dup4\n      iszero\n      iszero\n      mul\n      or\n      swap1\n      sstore\n      pop\n        /* \"perpustakaan.sol\":3142:3148  bookId */\n      dup2\n        /* \"perpustakaan.sol\":3129:3149  BookReturned(bookId) */\n      0x70495d83ba5ba5c54086a9955a8c68fa91f4439242054fbe5a64b3d553006917\n      mload(0x40)\n      mload(0x40)\n      dup1\n      swap2\n      sub\n      swap1\n      log2\n        /* \"perpustakaan.sol\":2908:3157  {... */\n      pop\n        /* \"perpustakaan.sol\":2868:3157  function returnBook(uint bookId) public {... */\n      pop\n      jump\t// out\n        /* \"perpustakaan.sol\":90:110  address public Admin */\n    tag_51:\n      0x00\n      dup1\n      sload\n      swap1\n      0x0100\n      exp\n      swap1\n      div\n      0xffffffffffffffffffffffffffffffffffffffff\n      and\n      dup2\n      jump\t// out\n    tag_81:\n      dup3\n      dup1\n      sload\n      tag_154\n      swap1\n      tag_88\n      jump\t// in\n    tag_154:\n      swap1\n      0x00\n      mstore\n      keccak256(0x00, 0x20)\n      swap1\n      0x1f\n      add\n      0x20\n      swap1\n      div\n      dup2\n      add\n      swap3\n      dup3\n      tag_156\n      jumpi\n      0x00\n      dup6\n      sstore\n      jump(tag_155)\n    tag_156:\n      dup3\n      0x1f\n      lt\n      tag_157\n      jumpi\n      dup1\n      mload\n      not(0xff)\n      and\n      dup4\n      dup1\n      add\n      or\n      dup6\n      sstore\n      jump(tag_155)\n    tag_157:\n      dup3\n      dup1\n      add\n      0x01\n      add\n      dup6\n      sstore\n      dup3\n      iszero\n      tag_155\n      jumpi\n      swap2\n      dup3\n      add\n    tag_158:\n      dup3\n      dup2\n      gt\n      iszero\n      tag_159\n      jumpi\n      dup3\n      mload\n      dup3\n      sstore\n      swap2\n      0x20\n      add\n      swap2\n      swap1\n      0x01\n      add\n      swap1\n      jump(tag_158)\n    tag_159:\n    tag_155:\n      pop\n      swap1\n      pop\n      tag_160\n      swap2\n      swap1\n      tag_161\n      jump\t// in\n    tag_160:\n      pop\n      swap1\n      jump\t// out\n    tag_144:\n      pop\n      dup1\n      sload\n      tag_162\n      swap1\n      tag_88\n      jump\t// in\n    tag_162:\n      0x00\n      dup3\n      sstore\n      dup1\n      0x1f\n      lt\n      tag_164\n      jumpi\n      pop\n      jump(tag_163)\n    tag_164:\n      0x1f\n      add\n      0x20\n      swap1\n      div\n      swap1\n      0x00\n      mstore\n      keccak256(0x00, 0x20)\n      swap1\n      dup2\n      add\n      swap1\n      tag_165\n      swap2\n      swap1\n      tag_161\n      jump\t// in\n    tag_165:\n    tag_163:\n      pop\n      jump\t// out\n    tag_161:\n    tag_166:\n      dup1\n      dup3\n      gt\n      iszero\n      tag_167\n      jumpi\n      0x00\n      dup2\n      0x00\n      swap1\n      sstore\n      pop\n      0x01\n      add\n      jump(tag_166)\n    tag_167:\n      pop\n      swap1\n      jump\t// out\n        /* \"#utility.yul\":7:82   */\n    tag_168:\n        /* \"#utility.yul\":40:46   */\n      0x00\n        /* \"#utility.yul\":73:75   */\n      0x40\n        /* \"#utility.yul\":67:76   */\n      mload\n        /* \"#utility.yul\":57:76   */\n      swap1\n      pop\n        /* \"#utility.yul\":7:82   */\n      swap1\n      jump\t// out\n        /* \"#utility.yul\":88:205   */\n    tag_169:\n        /* \"#utility.yul\":197:198   */\n      0x00\n        /* \"#utility.yul\":194:195   */\n      dup1\n        /* \"#utility.yul\":187:199   */\n      revert\n        /* \"#utility.yul\":211:328   */\n    tag_170:\n        /* \"#utility.yul\":320:321   */\n      0x00\n        /* \"#utility.yul\":317:318   */\n      dup1\n        /* \"#utility.yul\":310:322   */\n      revert\n        /* \"#utility.yul\":334:451   */\n    tag_171:\n        /* \"#utility.yul\":443:444   */\n      0x00\n        /* \"#utility.yul\":440:441   */\n      dup1\n        /* \"#utility.yul\":433:445   */\n      revert\n        /* \"#utility.yul\":457:574   */\n    tag_172:\n        /* \"#utility.yul\":566:567   */\n      0x00\n        /* \"#utility.yul\":563:564   */\n      dup1\n        /* \"#utility.yul\":556:568   */\n      revert\n        /* \"#utility.yul\":580:682   */\n    tag_173:\n        /* \"#utility.yul\":621:627   */\n      0x00\n        /* \"#utility.yul\":672:674   */\n      0x1f\n        /* \"#utility.yul\":668:675   */\n      not\n        /* \"#utility.yul\":663:665   */\n      0x1f\n        /* \"#utility.yul\":656:661   */\n      dup4\n        /* \"#utility.yul\":652:666   */\n      add\n        /* \"#utility.yul\":648:676   */\n      and\n        /* \"#utility.yul\":638:676   */\n      swap1\n      pop\n        /* \"#utility.yul\":580:682   */\n      swap2\n      swap1\n      pop\n      jump\t// out\n        /* \"#utility.yul\":688:868   */\n    tag_174:\n        /* \"#utility.yul\":736:813   */\n      0x4e487b7100000000000000000000000000000000000000000000000000000000\n        /* \"#utility.yul\":733:734   */\n      0x00\n        /* \"#utility.yul\":726:814   */\n      mstore\n        /* \"#utility.yul\":833:837   */\n      0x41\n        /* \"#utility.yul\":830:831   */\n      0x04\n        /* \"#utility.yul\":823:838   */\n      mstore\n        /* \"#utility.yul\":857:861   */\n      0x24\n        /* \"#utility.yul\":854:855   */\n      0x00\n        /* \"#utility.yul\":847:862   */\n      revert\n        /* \"#utility.yul\":874:1155   */\n    tag_175:\n        /* \"#utility.yul\":957:984   */\n      tag_225\n        /* \"#utility.yul\":979:983   */\n      dup3\n        /* \"#utility.yul\":957:984   */\n      tag_173\n      jump\t// in\n    tag_225:\n        /* \"#utility.yul\":949:955   */\n      dup2\n        /* \"#utility.yul\":945:985   */\n      add\n        /* \"#utility.yul\":1087:1093   */\n      dup2\n        /* \"#utility.yul\":1075:1085   */\n      dup2\n        /* \"#utility.yul\":1072:1094   */\n      lt\n        /* \"#utility.yul\":1051:1069   */\n      0xffffffffffffffff\n        /* \"#utility.yul\":1039:1049   */\n      dup3\n        /* \"#utility.yul\":1036:1070   */\n      gt\n        /* \"#utility.yul\":1033:1095   */\n      or\n        /* \"#utility.yul\":1030:1118   */\n      iszero\n      tag_226\n      jumpi\n        /* \"#utility.yul\":1098:1116   */\n      tag_227\n      tag_174\n      jump\t// in\n    tag_227:\n        /* \"#utility.yul\":1030:1118   */\n    tag_226:\n        /* \"#utility.yul\":1138:1148   */\n      dup1\n        /* \"#utility.yul\":1134:1136   */\n      0x40\n        /* \"#utility.yul\":1127:1149   */\n      mstore\n        /* \"#utility.yul\":917:1155   */\n      pop\n        /* \"#utility.yul\":874:1155   */\n      pop\n      pop\n      jump\t// out\n        /* \"#utility.yul\":1161:1290   */\n    tag_176:\n        /* \"#utility.yul\":1195:1201   */\n      0x00\n        /* \"#utility.yul\":1222:1242   */\n      tag_229\n      tag_168\n      jump\t// in\n    tag_229:\n        /* \"#utility.yul\":1212:1242   */\n      swap1\n      pop\n        /* \"#utility.yul\":1251:1284   */\n      tag_230\n        /* \"#utility.yul\":1279:1283   */\n      dup3\n        /* \"#utility.yul\":1271:1277   */\n      dup3\n        /* \"#utility.yul\":1251:1284   */\n      tag_175\n      jump\t// in\n    tag_230:\n        /* \"#utility.yul\":1161:1290   */\n      swap2\n      swap1\n      pop\n      jump\t// out\n        /* \"#utility.yul\":1296:1604   */\n    tag_177:\n        /* \"#utility.yul\":1358:1362   */\n      0x00\n        /* \"#utility.yul\":1448:1466   */\n      0xffffffffffffffff\n        /* \"#utility.yul\":1440:1446   */\n      dup3\n        /* \"#utility.yul\":1437:1467   */\n      gt\n        /* \"#utility.yul\":1434:1490   */\n      iszero\n      tag_232\n      jumpi\n        /* \"#utility.yul\":1470:1488   */\n      tag_233\n      tag_174\n      jump\t// in\n    tag_233:\n        /* \"#utility.yul\":1434:1490   */\n    tag_232:\n        /* \"#utility.yul\":1508:1537   */\n      tag_234\n        /* \"#utility.yul\":1530:1536   */\n      dup3\n        /* \"#utility.yul\":1508:1537   */\n      tag_173\n      jump\t// in\n    tag_234:\n        /* \"#utility.yul\":1500:1537   */\n      swap1\n      pop\n        /* \"#utility.yul\":1592:1596   */\n      0x20\n        /* \"#utility.yul\":1586:1590   */\n      dup2\n        /* \"#utility.yul\":1582:1597   */\n      add\n        /* \"#utility.yul\":1574:1597   */\n      swap1\n      pop\n        /* \"#utility.yul\":1296:1604   */\n      swap2\n      swap1\n      pop\n      jump\t// out\n        /* \"#utility.yul\":1610:1764   */\n    tag_178:\n        /* \"#utility.yul\":1694:1700   */\n      dup3\n        /* \"#utility.yul\":1689:1692   */\n      dup2\n        /* \"#utility.yul\":1684:1687   */\n      dup4\n        /* \"#utility.yul\":1671:1701   */\n      calldatacopy\n        /* \"#utility.yul\":1756:1757   */\n      0x00\n        /* \"#utility.yul\":1747:1753   */\n      dup4\n        /* \"#utility.yul\":1742:1745   */\n      dup4\n        /* \"#utility.yul\":1738:1754   */\n      add\n        /* \"#utility.yul\":1731:1758   */\n      mstore\n        /* \"#utility.yul\":1610:1764   */\n      pop\n      pop\n      pop\n      jump\t// out\n        /* \"#utility.yul\":1770:2182   */\n    tag_179:\n        /* \"#utility.yul\":1848:1853   */\n      0x00\n        /* \"#utility.yul\":1873:1939   */\n      tag_237\n        /* \"#utility.yul\":1889:1938   */\n      tag_238\n        /* \"#utility.yul\":1931:1937   */\n      dup5\n        /* \"#utility.yul\":1889:1938   */\n      tag_177\n      jump\t// in\n    tag_238:\n        /* \"#utility.yul\":1873:1939   */\n      tag_176\n      jump\t// in\n    tag_237:\n        /* \"#utility.yul\":1864:1939   */\n      swap1\n      pop\n        /* \"#utility.yul\":1962:1968   */\n      dup3\n        /* \"#utility.yul\":1955:1960   */\n      dup2\n        /* \"#utility.yul\":1948:1969   */\n      mstore\n        /* \"#utility.yul\":2000:2004   */\n      0x20\n        /* \"#utility.yul\":1993:1998   */\n      dup2\n        /* \"#utility.yul\":1989:2005   */\n      add\n        /* \"#utility.yul\":2038:2041   */\n      dup5\n        /* \"#utility.yul\":2029:2035   */\n      dup5\n        /* \"#utility.yul\":2024:2027   */\n      dup5\n        /* \"#utility.yul\":2020:2036   */\n      add\n        /* \"#utility.yul\":2017:2042   */\n      gt\n        /* \"#utility.yul\":2014:2126   */\n      iszero\n      tag_239\n      jumpi\n        /* \"#utility.yul\":2045:2124   */\n      tag_240\n      tag_172\n      jump\t// in\n    tag_240:\n        /* \"#utility.yul\":2014:2126   */\n    tag_239:\n        /* \"#utility.yul\":2135:2176   */\n      tag_241\n        /* \"#utility.yul\":2169:2175   */\n      dup5\n        /* \"#utility.yul\":2164:2167   */\n      dup3\n        /* \"#utility.yul\":2159:2162   */\n      dup6\n        /* \"#utility.yul\":2135:2176   */\n      tag_178\n      jump\t// in\n    tag_241:\n        /* \"#utility.yul\":1854:2182   */\n      pop\n        /* \"#utility.yul\":1770:2182   */\n      swap4\n      swap3\n      pop\n      pop\n      pop\n      jump\t// out\n        /* \"#utility.yul\":2202:2542   */\n    tag_180:\n        /* \"#utility.yul\":2258:2263   */\n      0x00\n        /* \"#utility.yul\":2307:2310   */\n      dup3\n        /* \"#utility.yul\":2300:2304   */\n      0x1f\n        /* \"#utility.yul\":2292:2298   */\n      dup4\n        /* \"#utility.yul\":2288:2305   */\n      add\n        /* \"#utility.yul\":2284:2311   */\n      slt\n        /* \"#utility.yul\":2274:2396   */\n      tag_243\n      jumpi\n        /* \"#utility.yul\":2315:2394   */\n      tag_244\n      tag_171\n      jump\t// in\n    tag_244:\n        /* \"#utility.yul\":2274:2396   */\n    tag_243:\n        /* \"#utility.yul\":2432:2438   */\n      dup2\n        /* \"#utility.yul\":2419:2439   */\n      calldataload\n        /* \"#utility.yul\":2457:2536   */\n      tag_245\n        /* \"#utility.yul\":2532:2535   */\n      dup5\n        /* \"#utility.yul\":2524:2530   */\n      dup3\n        /* \"#utility.yul\":2517:2521   */\n      0x20\n        /* \"#utility.yul\":2509:2515   */\n      dup7\n        /* \"#utility.yul\":2505:2522   */\n      add\n        /* \"#utility.yul\":2457:2536   */\n      tag_179\n      jump\t// in\n    tag_245:\n        /* \"#utility.yul\":2448:2536   */\n      swap2\n      pop\n        /* \"#utility.yul\":2264:2542   */\n      pop\n        /* \"#utility.yul\":2202:2542   */\n      swap3\n      swap2\n      pop\n      pop\n      jump\t// out\n        /* \"#utility.yul\":2548:3057   */\n    tag_16:\n        /* \"#utility.yul\":2617:2623   */\n      0x00\n        /* \"#utility.yul\":2666:2668   */\n      0x20\n        /* \"#utility.yul\":2654:2663   */\n      dup3\n        /* \"#utility.yul\":2645:2652   */\n      dup5\n        /* \"#utility.yul\":2641:2664   */\n      sub\n        /* \"#utility.yul\":2637:2669   */\n      slt\n        /* \"#utility.yul\":2634:2753   */\n      iszero\n      tag_247\n      jumpi\n        /* \"#utility.yul\":2672:2751   */\n      tag_248\n      tag_169\n      jump\t// in\n    tag_248:\n        /* \"#utility.yul\":2634:2753   */\n    tag_247:\n        /* \"#utility.yul\":2820:2821   */\n      0x00\n        /* \"#utility.yul\":2809:2818   */\n      dup3\n        /* \"#utility.yul\":2805:2822   */\n      add\n        /* \"#utility.yul\":2792:2823   */\n      calldataload\n        /* \"#utility.yul\":2850:2868   */\n      0xffffffffffffffff\n        /* \"#utility.yul\":2842:2848   */\n      dup2\n        /* \"#utility.yul\":2839:2869   */\n      gt\n        /* \"#utility.yul\":2836:2953   */\n      iszero\n      tag_249\n      jumpi\n        /* \"#utility.yul\":2872:2951   */\n      tag_250\n      tag_170\n      jump\t// in\n    tag_250:\n        /* \"#utility.yul\":2836:2953   */\n    tag_249:\n        /* \"#utility.yul\":2977:3040   */\n      tag_251\n        /* \"#utility.yul\":3032:3039   */\n      dup5\n        /* \"#utility.yul\":3023:3029   */\n      dup3\n        /* \"#utility.yul\":3012:3021   */\n      dup6\n        /* \"#utility.yul\":3008:3030   */\n      add\n        /* \"#utility.yul\":2977:3040   */\n      tag_180\n      jump\t// in\n    tag_251:\n        /* \"#utility.yul\":2967:3040   */\n      swap2\n      pop\n        /* \"#utility.yul\":2763:3050   */\n      pop\n        /* \"#utility.yul\":2548:3057   */\n      swap3\n      swap2\n      pop\n      pop\n      jump\t// out\n        /* \"#utility.yul\":3063:3140   */\n    tag_181:\n        /* \"#utility.yul\":3100:3107   */\n      0x00\n        /* \"#utility.yul\":3129:3134   */\n      dup2\n        /* \"#utility.yul\":3118:3134   */\n      swap1\n      pop\n        /* \"#utility.yul\":3063:3140   */\n      swap2\n      swap1\n      pop\n      jump\t// out\n        /* \"#utility.yul\":3146:3264   */\n    tag_182:\n        /* \"#utility.yul\":3233:3257   */\n      tag_254\n        /* \"#utility.yul\":3251:3256   */\n      dup2\n        /* \"#utility.yul\":3233:3257   */\n      tag_181\n      jump\t// in\n    tag_254:\n        /* \"#utility.yul\":3228:3231   */\n      dup3\n        /* \"#utility.yul\":3221:3258   */\n      mstore\n        /* \"#utility.yul\":3146:3264   */\n      pop\n      pop\n      jump\t// out\n        /* \"#utility.yul\":3270:3492   */\n    tag_19:\n        /* \"#utility.yul\":3363:3367   */\n      0x00\n        /* \"#utility.yul\":3401:3403   */\n      0x20\n        /* \"#utility.yul\":3390:3399   */\n      dup3\n        /* \"#utility.yul\":3386:3404   */\n      add\n        /* \"#utility.yul\":3378:3404   */\n      swap1\n      pop\n        /* \"#utility.yul\":3414:3485   */\n      tag_256\n        /* \"#utility.yul\":3482:3483   */\n      0x00\n        /* \"#utility.yul\":3471:3480   */\n      dup4\n        /* \"#utility.yul\":3467:3484   */\n      add\n        /* \"#utility.yul\":3458:3464   */\n      dup5\n        /* \"#utility.yul\":3414:3485   */\n      tag_182\n      jump\t// in\n    tag_256:\n        /* \"#utility.yul\":3270:3492   */\n      swap3\n      swap2\n      pop\n      pop\n      jump\t// out\n        /* \"#utility.yul\":3498:3620   */\n    tag_183:\n        /* \"#utility.yul\":3571:3595   */\n      tag_258\n        /* \"#utility.yul\":3589:3594   */\n      dup2\n        /* \"#utility.yul\":3571:3595   */\n      tag_181\n      jump\t// in\n    tag_258:\n        /* \"#utility.yul\":3564:3569   */\n      dup2\n        /* \"#utility.yul\":3561:3596   */\n      eq\n        /* \"#utility.yul\":3551:3614   */\n      tag_259\n      jumpi\n        /* \"#utility.yul\":3610:3611   */\n      0x00\n        /* \"#utility.yul\":3607:3608   */\n      dup1\n        /* \"#utility.yul\":3600:3612   */\n      revert\n        /* \"#utility.yul\":3551:3614   */\n    tag_259:\n        /* \"#utility.yul\":3498:3620   */\n      pop\n      jump\t// out\n        /* \"#utility.yul\":3626:3765   */\n    tag_184:\n        /* \"#utility.yul\":3672:3677   */\n      0x00\n        /* \"#utility.yul\":3710:3716   */\n      dup2\n        /* \"#utility.yul\":3697:3717   */\n      calldataload\n        /* \"#utility.yul\":3688:3717   */\n      swap1\n      pop\n        /* \"#utility.yul\":3726:3759   */\n      tag_261\n        /* \"#utility.yul\":3753:3758   */\n      dup2\n        /* \"#utility.yul\":3726:3759   */\n      tag_183\n      jump\t// in\n    tag_261:\n        /* \"#utility.yul\":3626:3765   */\n      swap3\n      swap2\n      pop\n      pop\n      jump\t// out\n        /* \"#utility.yul\":3771:5076   */\n    tag_22:\n        /* \"#utility.yul\":3887:3893   */\n      0x00\n        /* \"#utility.yul\":3895:3901   */\n      dup1\n        /* \"#utility.yul\":3903:3909   */\n      0x00\n        /* \"#utility.yul\":3911:3917   */\n      dup1\n        /* \"#utility.yul\":3960:3963   */\n      0x80\n        /* \"#utility.yul\":3948:3957   */\n      dup6\n        /* \"#utility.yul\":3939:3946   */\n      dup8\n        /* \"#utility.yul\":3935:3958   */\n      sub\n        /* \"#utility.yul\":3931:3964   */\n      slt\n        /* \"#utility.yul\":3928:4048   */\n      iszero\n      tag_263\n      jumpi\n        /* \"#utility.yul\":3967:4046   */\n      tag_264\n      tag_169\n      jump\t// in\n    tag_264:\n        /* \"#utility.yul\":3928:4048   */\n    tag_263:\n        /* \"#utility.yul\":4087:4088   */\n      0x00\n        /* \"#utility.yul\":4112:4165   */\n      tag_265\n        /* \"#utility.yul\":4157:4164   */\n      dup8\n        /* \"#utility.yul\":4148:4154   */\n      dup3\n        /* \"#utility.yul\":4137:4146   */\n      dup9\n        /* \"#utility.yul\":4133:4155   */\n      add\n        /* \"#utility.yul\":4112:4165   */\n      tag_184\n      jump\t// in\n    tag_265:\n        /* \"#utility.yul\":4102:4165   */\n      swap5\n      pop\n        /* \"#utility.yul\":4058:4175   */\n      pop\n        /* \"#utility.yul\":4242:4244   */\n      0x20\n        /* \"#utility.yul\":4231:4240   */\n      dup6\n        /* \"#utility.yul\":4227:4245   */\n      add\n        /* \"#utility.yul\":4214:4246   */\n      calldataload\n        /* \"#utility.yul\":4273:4291   */\n      0xffffffffffffffff\n        /* \"#utility.yul\":4265:4271   */\n      dup2\n        /* \"#utility.yul\":4262:4292   */\n      gt\n        /* \"#utility.yul\":4259:4376   */\n      iszero\n      tag_266\n      jumpi\n        /* \"#utility.yul\":4295:4374   */\n      tag_267\n      tag_170\n      jump\t// in\n    tag_267:\n        /* \"#utility.yul\":4259:4376   */\n    tag_266:\n        /* \"#utility.yul\":4400:4463   */\n      tag_268\n        /* \"#utility.yul\":4455:4462   */\n      dup8\n        /* \"#utility.yul\":4446:4452   */\n      dup3\n        /* \"#utility.yul\":4435:4444   */\n      dup9\n        /* \"#utility.yul\":4431:4453   */\n      add\n        /* \"#utility.yul\":4400:4463   */\n      tag_180\n      jump\t// in\n    tag_268:\n        /* \"#utility.yul\":4390:4463   */\n      swap4\n      pop\n        /* \"#utility.yul\":4185:4473   */\n      pop\n        /* \"#utility.yul\":4540:4542   */\n      0x40\n        /* \"#utility.yul\":4529:4538   */\n      dup6\n        /* \"#utility.yul\":4525:4543   */\n      add\n        /* \"#utility.yul\":4512:4544   */\n      calldataload\n        /* \"#utility.yul\":4571:4589   */\n      0xffffffffffffffff\n        /* \"#utility.yul\":4563:4569   */\n      dup2\n        /* \"#utility.yul\":4560:4590   */\n      gt\n        /* \"#utility.yul\":4557:4674   */\n      iszero\n      tag_269\n      jumpi\n        /* \"#utility.yul\":4593:4672   */\n      tag_270\n      tag_170\n      jump\t// in\n    tag_270:\n        /* \"#utility.yul\":4557:4674   */\n    tag_269:\n        /* \"#utility.yul\":4698:4761   */\n      tag_271\n        /* \"#utility.yul\":4753:4760   */\n      dup8\n        /* \"#utility.yul\":4744:4750   */\n      dup3\n        /* \"#utility.yul\":4733:4742   */\n      dup9\n        /* \"#utility.yul\":4729:4751   */\n      add\n        /* \"#utility.yul\":4698:4761   */\n      tag_180\n      jump\t// in\n    tag_271:\n        /* \"#utility.yul\":4688:4761   */\n      swap3\n      pop\n        /* \"#utility.yul\":4483:4771   */\n      pop\n        /* \"#utility.yul\":4838:4840   */\n      0x60\n        /* \"#utility.yul\":4827:4836   */\n      dup6\n        /* \"#utility.yul\":4823:4841   */\n      add\n        /* \"#utility.yul\":4810:4842   */\n      calldataload\n        /* \"#utility.yul\":4869:4887   */\n      0xffffffffffffffff\n        /* \"#utility.yul\":4861:4867   */\n      dup2\n        /* \"#utility.yul\":4858:4888   */\n      gt\n        /* \"#utility.yul\":4855:4972   */\n      iszero\n      tag_272\n      jumpi\n        /* \"#utility.yul\":4891:4970   */\n      tag_273\n      tag_170\n      jump\t// in\n    tag_273:\n        /* \"#utility.yul\":4855:4972   */\n    tag_272:\n        /* \"#utility.yul\":4996:5059   */\n      tag_274\n        /* \"#utility.yul\":5051:5058   */\n      dup8\n        /* \"#utility.yul\":5042:5048   */\n      dup3\n        /* \"#utility.yul\":5031:5040   */\n      dup9\n        /* \"#utility.yul\":5027:5049   */\n      add\n        /* \"#utility.yul\":4996:5059   */\n      tag_180\n      jump\t// in\n    tag_274:\n        /* \"#utility.yul\":4986:5059   */\n      swap2\n      pop\n        /* \"#utility.yul\":4781:5069   */\n      pop\n        /* \"#utility.yul\":3771:5076   */\n      swap3\n      swap6\n      swap2\n      swap5\n      pop\n      swap3\n      pop\n      jump\t// out\n        /* \"#utility.yul\":5082:5411   */\n    tag_26:\n        /* \"#utility.yul\":5141:5147   */\n      0x00\n        /* \"#utility.yul\":5190:5192   */\n      0x20\n        /* \"#utility.yul\":5178:5187   */\n      dup3\n        /* \"#utility.yul\":5169:5176   */\n      dup5\n        /* \"#utility.yul\":5165:5188   */\n      sub\n        /* \"#utility.yul\":5161:5193   */\n      slt\n        /* \"#utility.yul\":5158:5277   */\n      iszero\n      tag_276\n      jumpi\n        /* \"#utility.yul\":5196:5275   */\n      tag_277\n      tag_169\n      jump\t// in\n    tag_277:\n        /* \"#utility.yul\":5158:5277   */\n    tag_276:\n        /* \"#utility.yul\":5316:5317   */\n      0x00\n        /* \"#utility.yul\":5341:5394   */\n      tag_278\n        /* \"#utility.yul\":5386:5393   */\n      dup5\n        /* \"#utility.yul\":5377:5383   */\n      dup3\n        /* \"#utility.yul\":5366:5375   */\n      dup6\n        /* \"#utility.yul\":5362:5384   */\n      add\n        /* \"#utility.yul\":5341:5394   */\n      tag_184\n      jump\t// in\n    tag_278:\n        /* \"#utility.yul\":5331:5394   */\n      swap2\n      pop\n        /* \"#utility.yul\":5287:5404   */\n      pop\n        /* \"#utility.yul\":5082:5411   */\n      swap3\n      swap2\n      pop\n      pop\n      jump\t// out\n        /* \"#utility.yul\":5417:5516   */\n    tag_185:\n        /* \"#utility.yul\":5469:5475   */\n      0x00\n        /* \"#utility.yul\":5503:5508   */\n      dup2\n        /* \"#utility.yul\":5497:5509   */\n      mload\n        /* \"#utility.yul\":5487:5509   */\n      swap1\n      pop\n        /* \"#utility.yul\":5417:5516   */\n      swap2\n      swap1\n      pop\n      jump\t// out\n        /* \"#utility.yul\":5522:5691   */\n    tag_186:\n        /* \"#utility.yul\":5606:5617   */\n      0x00\n        /* \"#utility.yul\":5640:5646   */\n      dup3\n        /* \"#utility.yul\":5635:5638   */\n      dup3\n        /* \"#utility.yul\":5628:5647   */\n      mstore\n        /* \"#utility.yul\":5680:5684   */\n      0x20\n        /* \"#utility.yul\":5675:5678   */\n      dup3\n        /* \"#utility.yul\":5671:5685   */\n      add\n        /* \"#utility.yul\":5656:5685   */\n      swap1\n      pop\n        /* \"#utility.yul\":5522:5691   */\n      swap3\n      swap2\n      pop\n      pop\n      jump\t// out\n        /* \"#utility.yul\":5697:6004   */\n    tag_187:\n        /* \"#utility.yul\":5765:5766   */\n      0x00\n        /* \"#utility.yul\":5775:5888   */\n    tag_282:\n        /* \"#utility.yul\":5789:5795   */\n      dup4\n        /* \"#utility.yul\":5786:5787   */\n      dup2\n        /* \"#utility.yul\":5783:5796   */\n      lt\n        /* \"#utility.yul\":5775:5888   */\n      iszero\n      tag_284\n      jumpi\n        /* \"#utility.yul\":5874:5875   */\n      dup1\n        /* \"#utility.yul\":5869:5872   */\n      dup3\n        /* \"#utility.yul\":5865:5876   */\n      add\n        /* \"#utility.yul\":5859:5877   */\n      mload\n        /* \"#utility.yul\":5855:5856   */\n      dup2\n        /* \"#utility.yul\":5850:5853   */\n      dup5\n        /* \"#utility.yul\":5846:5857   */\n      add\n        /* \"#utility.yul\":5839:5878   */\n      mstore\n        /* \"#utility.yul\":5811:5813   */\n      0x20\n        /* \"#utility.yul\":5808:5809   */\n      dup2\n        /* \"#utility.yul\":5804:5814   */\n      add\n        /* \"#utility.yul\":5799:5814   */\n      swap1\n      pop\n        /* \"#utility.yul\":5775:5888   */\n      jump(tag_282)\n    tag_284:\n        /* \"#utility.yul\":5906:5912   */\n      dup4\n        /* \"#utility.yul\":5903:5904   */\n      dup2\n        /* \"#utility.yul\":5900:5913   */\n      gt\n        /* \"#utility.yul\":5897:5998   */\n      iszero\n      tag_285\n      jumpi\n        /* \"#utility.yul\":5986:5987   */\n      0x00\n        /* \"#utility.yul\":5977:5983   */\n      dup5\n        /* \"#utility.yul\":5972:5975   */\n      dup5\n        /* \"#utility.yul\":5968:5984   */\n      add\n        /* \"#utility.yul\":5961:5988   */\n      mstore\n        /* \"#utility.yul\":5897:5998   */\n    tag_285:\n        /* \"#utility.yul\":5746:6004   */\n      pop\n        /* \"#utility.yul\":5697:6004   */\n      pop\n      pop\n      pop\n      jump\t// out\n        /* \"#utility.yul\":6010:6374   */\n    tag_188:\n        /* \"#utility.yul\":6098:6101   */\n      0x00\n        /* \"#utility.yul\":6126:6165   */\n      tag_287\n        /* \"#utility.yul\":6159:6164   */\n      dup3\n        /* \"#utility.yul\":6126:6165   */\n      tag_185\n      jump\t// in\n    tag_287:\n        /* \"#utility.yul\":6181:6252   */\n      tag_288\n        /* \"#utility.yul\":6245:6251   */\n      dup2\n        /* \"#utility.yul\":6240:6243   */\n      dup6\n        /* \"#utility.yul\":6181:6252   */\n      tag_186\n      jump\t// in\n    tag_288:\n        /* \"#utility.yul\":6174:6252   */\n      swap4\n      pop\n        /* \"#utility.yul\":6261:6313   */\n      tag_289\n        /* \"#utility.yul\":6306:6312   */\n      dup2\n        /* \"#utility.yul\":6301:6304   */\n      dup6\n        /* \"#utility.yul\":6294:6298   */\n      0x20\n        /* \"#utility.yul\":6287:6292   */\n      dup7\n        /* \"#utility.yul\":6283:6299   */\n      add\n        /* \"#utility.yul\":6261:6313   */\n      tag_187\n      jump\t// in\n    tag_289:\n        /* \"#utility.yul\":6338:6367   */\n      tag_290\n        /* \"#utility.yul\":6360:6366   */\n      dup2\n        /* \"#utility.yul\":6338:6367   */\n      tag_173\n      jump\t// in\n    tag_290:\n        /* \"#utility.yul\":6333:6336   */\n      dup5\n        /* \"#utility.yul\":6329:6368   */\n      add\n        /* \"#utility.yul\":6322:6368   */\n      swap2\n      pop\n        /* \"#utility.yul\":6102:6374   */\n      pop\n        /* \"#utility.yul\":6010:6374   */\n      swap3\n      swap2\n      pop\n      pop\n      jump\t// out\n        /* \"#utility.yul\":6380:6470   */\n    tag_189:\n        /* \"#utility.yul\":6414:6421   */\n      0x00\n        /* \"#utility.yul\":6457:6462   */\n      dup2\n        /* \"#utility.yul\":6450:6463   */\n      iszero\n        /* \"#utility.yul\":6443:6464   */\n      iszero\n        /* \"#utility.yul\":6432:6464   */\n      swap1\n      pop\n        /* \"#utility.yul\":6380:6470   */\n      swap2\n      swap1\n      pop\n      jump\t// out\n        /* \"#utility.yul\":6476:6585   */\n    tag_190:\n        /* \"#utility.yul\":6557:6578   */\n      tag_293\n        /* \"#utility.yul\":6572:6577   */\n      dup2\n        /* \"#utility.yul\":6557:6578   */\n      tag_189\n      jump\t// in\n    tag_293:\n        /* \"#utility.yul\":6552:6555   */\n      dup3\n        /* \"#utility.yul\":6545:6579   */\n      mstore\n        /* \"#utility.yul\":6476:6585   */\n      pop\n      pop\n      jump\t// out\n        /* \"#utility.yul\":6591:7405   */\n    tag_29:\n        /* \"#utility.yul\":6822:6826   */\n      0x00\n        /* \"#utility.yul\":6860:6863   */\n      0x80\n        /* \"#utility.yul\":6849:6858   */\n      dup3\n        /* \"#utility.yul\":6845:6864   */\n      add\n        /* \"#utility.yul\":6837:6864   */\n      swap1\n      pop\n        /* \"#utility.yul\":6910:6919   */\n      dup2\n        /* \"#utility.yul\":6904:6908   */\n      dup2\n        /* \"#utility.yul\":6900:6920   */\n      sub\n        /* \"#utility.yul\":6896:6897   */\n      0x00\n        /* \"#utility.yul\":6885:6894   */\n      dup4\n        /* \"#utility.yul\":6881:6898   */\n      add\n        /* \"#utility.yul\":6874:6921   */\n      mstore\n        /* \"#utility.yul\":6938:7016   */\n      tag_295\n        /* \"#utility.yul\":7011:7015   */\n      dup2\n        /* \"#utility.yul\":7002:7008   */\n      dup8\n        /* \"#utility.yul\":6938:7016   */\n      tag_188\n      jump\t// in\n    tag_295:\n        /* \"#utility.yul\":6930:7016   */\n      swap1\n      pop\n        /* \"#utility.yul\":7063:7072   */\n      dup2\n        /* \"#utility.yul\":7057:7061   */\n      dup2\n        /* \"#utility.yul\":7053:7073   */\n      sub\n        /* \"#utility.yul\":7048:7050   */\n      0x20\n        /* \"#utility.yul\":7037:7046   */\n      dup4\n        /* \"#utility.yul\":7033:7051   */\n      add\n        /* \"#utility.yul\":7026:7074   */\n      mstore\n        /* \"#utility.yul\":7091:7169   */\n      tag_296\n        /* \"#utility.yul\":7164:7168   */\n      dup2\n        /* \"#utility.yul\":7155:7161   */\n      dup7\n        /* \"#utility.yul\":7091:7169   */\n      tag_188\n      jump\t// in\n    tag_296:\n        /* \"#utility.yul\":7083:7169   */\n      swap1\n      pop\n        /* \"#utility.yul\":7216:7225   */\n      dup2\n        /* \"#utility.yul\":7210:7214   */\n      dup2\n        /* \"#utility.yul\":7206:7226   */\n      sub\n        /* \"#utility.yul\":7201:7203   */\n      0x40\n        /* \"#utility.yul\":7190:7199   */\n      dup4\n        /* \"#utility.yul\":7186:7204   */\n      add\n        /* \"#utility.yul\":7179:7227   */\n      mstore\n        /* \"#utility.yul\":7244:7322   */\n      tag_297\n        /* \"#utility.yul\":7317:7321   */\n      dup2\n        /* \"#utility.yul\":7308:7314   */\n      dup6\n        /* \"#utility.yul\":7244:7322   */\n      tag_188\n      jump\t// in\n    tag_297:\n        /* \"#utility.yul\":7236:7322   */\n      swap1\n      pop\n        /* \"#utility.yul\":7332:7398   */\n      tag_298\n        /* \"#utility.yul\":7394:7396   */\n      0x60\n        /* \"#utility.yul\":7383:7392   */\n      dup4\n        /* \"#utility.yul\":7379:7397   */\n      add\n        /* \"#utility.yul\":7370:7376   */\n      dup5\n        /* \"#utility.yul\":7332:7398   */\n      tag_190\n      jump\t// in\n    tag_298:\n        /* \"#utility.yul\":6591:7405   */\n      swap6\n      swap5\n      pop\n      pop\n      pop\n      pop\n      pop\n      jump\t// out\n        /* \"#utility.yul\":7411:8570   */\n    tag_32:\n        /* \"#utility.yul\":7518:7524   */\n      0x00\n        /* \"#utility.yul\":7526:7532   */\n      dup1\n        /* \"#utility.yul\":7534:7540   */\n      0x00\n        /* \"#utility.yul\":7583:7585   */\n      0x60\n        /* \"#utility.yul\":7571:7580   */\n      dup5\n        /* \"#utility.yul\":7562:7569   */\n      dup7\n        /* \"#utility.yul\":7558:7581   */\n      sub\n        /* \"#utility.yul\":7554:7586   */\n      slt\n        /* \"#utility.yul\":7551:7670   */\n      iszero\n      tag_300\n      jumpi\n        /* \"#utility.yul\":7589:7668   */\n      tag_301\n      tag_169\n      jump\t// in\n    tag_301:\n        /* \"#utility.yul\":7551:7670   */\n    tag_300:\n        /* \"#utility.yul\":7737:7738   */\n      0x00\n        /* \"#utility.yul\":7726:7735   */\n      dup5\n        /* \"#utility.yul\":7722:7739   */\n      add\n        /* \"#utility.yul\":7709:7740   */\n      calldataload\n        /* \"#utility.yul\":7767:7785   */\n      0xffffffffffffffff\n        /* \"#utility.yul\":7759:7765   */\n      dup2\n        /* \"#utility.yul\":7756:7786   */\n      gt\n        /* \"#utility.yul\":7753:7870   */\n      iszero\n      tag_302\n      jumpi\n        /* \"#utility.yul\":7789:7868   */\n      tag_303\n      tag_170\n      jump\t// in\n    tag_303:\n        /* \"#utility.yul\":7753:7870   */\n    tag_302:\n        /* \"#utility.yul\":7894:7957   */\n      tag_304\n        /* \"#utility.yul\":7949:7956   */\n      dup7\n        /* \"#utility.yul\":7940:7946   */\n      dup3\n        /* \"#utility.yul\":7929:7938   */\n      dup8\n        /* \"#utility.yul\":7925:7947   */\n      add\n        /* \"#utility.yul\":7894:7957   */\n      tag_180\n      jump\t// in\n    tag_304:\n        /* \"#utility.yul\":7884:7957   */\n      swap4\n      pop\n        /* \"#utility.yul\":7680:7967   */\n      pop\n        /* \"#utility.yul\":8034:8036   */\n      0x20\n        /* \"#utility.yul\":8023:8032   */\n      dup5\n        /* \"#utility.yul\":8019:8037   */\n      add\n        /* \"#utility.yul\":8006:8038   */\n      calldataload\n        /* \"#utility.yul\":8065:8083   */\n      0xffffffffffffffff\n        /* \"#utility.yul\":8057:8063   */\n      dup2\n        /* \"#utility.yul\":8054:8084   */\n      gt\n        /* \"#utility.yul\":8051:8168   */\n      iszero\n      tag_305\n      jumpi\n        /* \"#utility.yul\":8087:8166   */\n      tag_306\n      tag_170\n      jump\t// in\n    tag_306:\n        /* \"#utility.yul\":8051:8168   */\n    tag_305:\n        /* \"#utility.yul\":8192:8255   */\n      tag_307\n        /* \"#utility.yul\":8247:8254   */\n      dup7\n        /* \"#utility.yul\":8238:8244   */\n      dup3\n        /* \"#utility.yul\":8227:8236   */\n      dup8\n        /* \"#utility.yul\":8223:8245   */\n      add\n        /* \"#utility.yul\":8192:8255   */\n      tag_180\n      jump\t// in\n    tag_307:\n        /* \"#utility.yul\":8182:8255   */\n      swap3\n      pop\n        /* \"#utility.yul\":7977:8265   */\n      pop\n        /* \"#utility.yul\":8332:8334   */\n      0x40\n        /* \"#utility.yul\":8321:8330   */\n      dup5\n        /* \"#utility.yul\":8317:8335   */\n      add\n        /* \"#utility.yul\":8304:8336   */\n      calldataload\n        /* \"#utility.yul\":8363:8381   */\n      0xffffffffffffffff\n        /* \"#utility.yul\":8355:8361   */\n      dup2\n        /* \"#utility.yul\":8352:8382   */\n      gt\n        /* \"#utility.yul\":8349:8466   */\n      iszero\n      tag_308\n      jumpi\n        /* \"#utility.yul\":8385:8464   */\n      tag_309\n      tag_170\n      jump\t// in\n    tag_309:\n        /* \"#utility.yul\":8349:8466   */\n    tag_308:\n        /* \"#utility.yul\":8490:8553   */\n      tag_310\n        /* \"#utility.yul\":8545:8552   */\n      dup7\n        /* \"#utility.yul\":8536:8542   */\n      dup3\n        /* \"#utility.yul\":8525:8534   */\n      dup8\n        /* \"#utility.yul\":8521:8543   */\n      add\n        /* \"#utility.yul\":8490:8553   */\n      tag_180\n      jump\t// in\n    tag_310:\n        /* \"#utility.yul\":8480:8553   */\n      swap2\n      pop\n        /* \"#utility.yul\":8275:8563   */\n      pop\n        /* \"#utility.yul\":7411:8570   */\n      swap3\n      pop\n      swap3\n      pop\n      swap3\n      jump\t// out\n        /* \"#utility.yul\":8576:8702   */\n    tag_191:\n        /* \"#utility.yul\":8613:8620   */\n      0x00\n        /* \"#utility.yul\":8653:8695   */\n      0xffffffffffffffffffffffffffffffffffffffff\n        /* \"#utility.yul\":8646:8651   */\n      dup3\n        /* \"#utility.yul\":8642:8696   */\n      and\n        /* \"#utility.yul\":8631:8696   */\n      swap1\n      pop\n        /* \"#utility.yul\":8576:8702   */\n      swap2\n      swap1\n      pop\n      jump\t// out\n        /* \"#utility.yul\":8708:8804   */\n    tag_192:\n        /* \"#utility.yul\":8745:8752   */\n      0x00\n        /* \"#utility.yul\":8774:8798   */\n      tag_313\n        /* \"#utility.yul\":8792:8797   */\n      dup3\n        /* \"#utility.yul\":8774:8798   */\n      tag_191\n      jump\t// in\n    tag_313:\n        /* \"#utility.yul\":8763:8798   */\n      swap1\n      pop\n        /* \"#utility.yul\":8708:8804   */\n      swap2\n      swap1\n      pop\n      jump\t// out\n        /* \"#utility.yul\":8810:8928   */\n    tag_193:\n        /* \"#utility.yul\":8897:8921   */\n      tag_315\n        /* \"#utility.yul\":8915:8920   */\n      dup2\n        /* \"#utility.yul\":8897:8921   */\n      tag_192\n      jump\t// in\n    tag_315:\n        /* \"#utility.yul\":8892:8895   */\n      dup3\n        /* \"#utility.yul\":8885:8922   */\n      mstore\n        /* \"#utility.yul\":8810:8928   */\n      pop\n      pop\n      jump\t// out\n        /* \"#utility.yul\":8934:9156   */\n    tag_53:\n        /* \"#utility.yul\":9027:9031   */\n      0x00\n        /* \"#utility.yul\":9065:9067   */\n      0x20\n        /* \"#utility.yul\":9054:9063   */\n      dup3\n        /* \"#utility.yul\":9050:9068   */\n      add\n        /* \"#utility.yul\":9042:9068   */\n      swap1\n      pop\n        /* \"#utility.yul\":9078:9149   */\n      tag_317\n        /* \"#utility.yul\":9146:9147   */\n      0x00\n        /* \"#utility.yul\":9135:9144   */\n      dup4\n        /* \"#utility.yul\":9131:9148   */\n      add\n        /* \"#utility.yul\":9122:9128   */\n      dup5\n        /* \"#utility.yul\":9078:9149   */\n      tag_193\n      jump\t// in\n    tag_317:\n        /* \"#utility.yul\":8934:9156   */\n      swap3\n      swap2\n      pop\n      pop\n      jump\t// out\n        /* \"#utility.yul\":9162:9310   */\n    tag_194:\n        /* \"#utility.yul\":9264:9275   */\n      0x00\n        /* \"#utility.yul\":9301:9304   */\n      dup2\n        /* \"#utility.yul\":9286:9304   */\n      swap1\n      pop\n        /* \"#utility.yul\":9162:9310   */\n      swap3\n      swap2\n      pop\n      pop\n      jump\t// out\n        /* \"#utility.yul\":9316:9693   */\n    tag_195:\n        /* \"#utility.yul\":9422:9425   */\n      0x00\n        /* \"#utility.yul\":9450:9489   */\n      tag_320\n        /* \"#utility.yul\":9483:9488   */\n      dup3\n        /* \"#utility.yul\":9450:9489   */\n      tag_185\n      jump\t// in\n    tag_320:\n        /* \"#utility.yul\":9505:9594   */\n      tag_321\n        /* \"#utility.yul\":9587:9593   */\n      dup2\n        /* \"#utility.yul\":9582:9585   */\n      dup6\n        /* \"#utility.yul\":9505:9594   */\n      tag_194\n      jump\t// in\n    tag_321:\n        /* \"#utility.yul\":9498:9594   */\n      swap4\n      pop\n        /* \"#utility.yul\":9603:9655   */\n      tag_322\n        /* \"#utility.yul\":9648:9654   */\n      dup2\n        /* \"#utility.yul\":9643:9646   */\n      dup6\n        /* \"#utility.yul\":9636:9640   */\n      0x20\n        /* \"#utility.yul\":9629:9634   */\n      dup7\n        /* \"#utility.yul\":9625:9641   */\n      add\n        /* \"#utility.yul\":9603:9655   */\n      tag_187\n      jump\t// in\n    tag_322:\n        /* \"#utility.yul\":9680:9686   */\n      dup1\n        /* \"#utility.yul\":9675:9678   */\n      dup5\n        /* \"#utility.yul\":9671:9687   */\n      add\n        /* \"#utility.yul\":9664:9687   */\n      swap2\n      pop\n        /* \"#utility.yul\":9426:9693   */\n      pop\n        /* \"#utility.yul\":9316:9693   */\n      swap3\n      swap2\n      pop\n      pop\n      jump\t// out\n        /* \"#utility.yul\":9699:9974   */\n    tag_56:\n        /* \"#utility.yul\":9831:9834   */\n      0x00\n        /* \"#utility.yul\":9853:9948   */\n      tag_324\n        /* \"#utility.yul\":9944:9947   */\n      dup3\n        /* \"#utility.yul\":9935:9941   */\n      dup5\n        /* \"#utility.yul\":9853:9948   */\n      tag_195\n      jump\t// in\n    tag_324:\n        /* \"#utility.yul\":9846:9948   */\n      swap2\n      pop\n        /* \"#utility.yul\":9965:9968   */\n      dup2\n        /* \"#utility.yul\":9958:9968   */\n      swap1\n      pop\n        /* \"#utility.yul\":9699:9974   */\n      swap3\n      swap2\n      pop\n      pop\n      jump\t// out\n        /* \"#utility.yul\":9980:10204   */\n    tag_196:\n        /* \"#utility.yul\":10120:10154   */\n      0x4f6e6c79207468652041646d696e2063616e2063616c6c20746869732066756e\n        /* \"#utility.yul\":10116:10117   */\n      0x00\n        /* \"#utility.yul\":10108:10114   */\n      dup3\n        /* \"#utility.yul\":10104:10118   */\n      add\n        /* \"#utility.yul\":10097:10155   */\n      mstore\n        /* \"#utility.yul\":10189:10196   */\n      0x6374696f6e000000000000000000000000000000000000000000000000000000\n        /* \"#utility.yul\":10184:10186   */\n      0x20\n        /* \"#utility.yul\":10176:10182   */\n      dup3\n        /* \"#utility.yul\":10172:10187   */\n      add\n        /* \"#utility.yul\":10165:10197   */\n      mstore\n        /* \"#utility.yul\":9980:10204   */\n      pop\n      jump\t// out\n        /* \"#utility.yul\":10210:10576   */\n    tag_197:\n        /* \"#utility.yul\":10352:10355   */\n      0x00\n        /* \"#utility.yul\":10373:10440   */\n      tag_327\n        /* \"#utility.yul\":10437:10439   */\n      0x25\n        /* \"#utility.yul\":10432:10435   */\n      dup4\n        /* \"#utility.yul\":10373:10440   */\n      tag_186\n      jump\t// in\n    tag_327:\n        /* \"#utility.yul\":10366:10440   */\n      swap2\n      pop\n        /* \"#utility.yul\":10449:10542   */\n      tag_328\n        /* \"#utility.yul\":10538:10541   */\n      dup3\n        /* \"#utility.yul\":10449:10542   */\n      tag_196\n      jump\t// in\n    tag_328:\n        /* \"#utility.yul\":10567:10569   */\n      0x40\n        /* \"#utility.yul\":10562:10565   */\n      dup3\n        /* \"#utility.yul\":10558:10570   */\n      add\n        /* \"#utility.yul\":10551:10570   */\n      swap1\n      pop\n        /* \"#utility.yul\":10210:10576   */\n      swap2\n      swap1\n      pop\n      jump\t// out\n        /* \"#utility.yul\":10582:11001   */\n    tag_60:\n        /* \"#utility.yul\":10748:10752   */\n      0x00\n        /* \"#utility.yul\":10786:10788   */\n      0x20\n        /* \"#utility.yul\":10775:10784   */\n      dup3\n        /* \"#utility.yul\":10771:10789   */\n      add\n        /* \"#utility.yul\":10763:10789   */\n      swap1\n      pop\n        /* \"#utility.yul\":10835:10844   */\n      dup2\n        /* \"#utility.yul\":10829:10833   */\n      dup2\n        /* \"#utility.yul\":10825:10845   */\n      sub\n        /* \"#utility.yul\":10821:10822   */\n      0x00\n        /* \"#utility.yul\":10810:10819   */\n      dup4\n        /* \"#utility.yul\":10806:10823   */\n      add\n        /* \"#utility.yul\":10799:10846   */\n      mstore\n        /* \"#utility.yul\":10863:10994   */\n      tag_330\n        /* \"#utility.yul\":10989:10993   */\n      dup2\n        /* \"#utility.yul\":10863:10994   */\n      tag_197\n      jump\t// in\n    tag_330:\n        /* \"#utility.yul\":10855:10994   */\n      swap1\n      pop\n        /* \"#utility.yul\":10582:11001   */\n      swap2\n      swap1\n      pop\n      jump\t// out\n        /* \"#utility.yul\":11007:11172   */\n    tag_198:\n        /* \"#utility.yul\":11147:11164   */\n      0x496e76616c696420626f6f6b2049440000000000000000000000000000000000\n        /* \"#utility.yul\":11143:11144   */\n      0x00\n        /* \"#utility.yul\":11135:11141   */\n      dup3\n        /* \"#utility.yul\":11131:11145   */\n      add\n        /* \"#utility.yul\":11124:11165   */\n      mstore\n        /* \"#utility.yul\":11007:11172   */\n      pop\n      jump\t// out\n        /* \"#utility.yul\":11178:11544   */\n    tag_199:\n        /* \"#utility.yul\":11320:11323   */\n      0x00\n        /* \"#utility.yul\":11341:11408   */\n      tag_333\n        /* \"#utility.yul\":11405:11407   */\n      0x0f\n        /* \"#utility.yul\":11400:11403   */\n      dup4\n        /* \"#utility.yul\":11341:11408   */\n      tag_186\n      jump\t// in\n    tag_333:\n        /* \"#utility.yul\":11334:11408   */\n      swap2\n      pop\n        /* \"#utility.yul\":11417:11510   */\n      tag_334\n        /* \"#utility.yul\":11506:11509   */\n      dup3\n        /* \"#utility.yul\":11417:11510   */\n      tag_198\n      jump\t// in\n    tag_334:\n        /* \"#utility.yul\":11535:11537   */\n      0x20\n        /* \"#utility.yul\":11530:11533   */\n      dup3\n        /* \"#utility.yul\":11526:11538   */\n      add\n        /* \"#utility.yul\":11519:11538   */\n      swap1\n      pop\n        /* \"#utility.yul\":11178:11544   */\n      swap2\n      swap1\n      pop\n      jump\t// out\n        /* \"#utility.yul\":11550:11969   */\n    tag_64:\n        /* \"#utility.yul\":11716:11720   */\n      0x00\n        /* \"#utility.yul\":11754:11756   */\n      0x20\n        /* \"#utility.yul\":11743:11752   */\n      dup3\n        /* \"#utility.yul\":11739:11757   */\n      add\n        /* \"#utility.yul\":11731:11757   */\n      swap1\n      pop\n        /* \"#utility.yul\":11803:11812   */\n      dup2\n        /* \"#utility.yul\":11797:11801   */\n      dup2\n        /* \"#utility.yul\":11793:11813   */\n      sub\n        /* \"#utility.yul\":11789:11790   */\n      0x00\n        /* \"#utility.yul\":11778:11787   */\n      dup4\n        /* \"#utility.yul\":11774:11791   */\n      add\n        /* \"#utility.yul\":11767:11814   */\n      mstore\n        /* \"#utility.yul\":11831:11962   */\n      tag_336\n        /* \"#utility.yul\":11957:11961   */\n      dup2\n        /* \"#utility.yul\":11831:11962   */\n      tag_199\n      jump\t// in\n    tag_336:\n        /* \"#utility.yul\":11823:11962   */\n      swap1\n      pop\n        /* \"#utility.yul\":11550:11969   */\n      swap2\n      swap1\n      pop\n      jump\t// out\n        /* \"#utility.yul\":11975:12146   */\n    tag_200:\n        /* \"#utility.yul\":12115:12138   */\n      0x5469746c652063616e6e6f7420626520656d7074790000000000000000000000\n        /* \"#utility.yul\":12111:12112   */\n      0x00\n        /* \"#utility.yul\":12103:12109   */\n      dup3\n        /* \"#utility.yul\":12099:12113   */\n      add\n        /* \"#utility.yul\":12092:12139   */\n      mstore\n        /* \"#utility.yul\":11975:12146   */\n      pop\n      jump\t// out\n        /* \"#utility.yul\":12152:12518   */\n    tag_201:\n        /* \"#utility.yul\":12294:12297   */\n      0x00\n        /* \"#utility.yul\":12315:12382   */\n      tag_339\n        /* \"#utility.yul\":12379:12381   */\n      0x15\n        /* \"#utility.yul\":12374:12377   */\n      dup4\n        /* \"#utility.yul\":12315:12382   */\n      tag_186\n      jump\t// in\n    tag_339:\n        /* \"#utility.yul\":12308:12382   */\n      swap2\n      pop\n        /* \"#utility.yul\":12391:12484   */\n      tag_340\n        /* \"#utility.yul\":12480:12483   */\n      dup3\n        /* \"#utility.yul\":12391:12484   */\n      tag_200\n      jump\t// in\n    tag_340:\n        /* \"#utility.yul\":12509:12511   */\n      0x20\n        /* \"#utility.yul\":12504:12507   */\n      dup3\n        /* \"#utility.yul\":12500:12512   */\n      add\n        /* \"#utility.yul\":12493:12512   */\n      swap1\n      pop\n        /* \"#utility.yul\":12152:12518   */\n      swap2\n      swap1\n      pop\n      jump\t// out\n        /* \"#utility.yul\":12524:12943   */\n    tag_67:\n        /* \"#utility.yul\":12690:12694   */\n      0x00\n        /* \"#utility.yul\":12728:12730   */\n      0x20\n        /* \"#utility.yul\":12717:12726   */\n      dup3\n        /* \"#utility.yul\":12713:12731   */\n      add\n        /* \"#utility.yul\":12705:12731   */\n      swap1\n      pop\n        /* \"#utility.yul\":12777:12786   */\n      dup2\n        /* \"#utility.yul\":12771:12775   */\n      dup2\n        /* \"#utility.yul\":12767:12787   */\n      sub\n        /* \"#utility.yul\":12763:12764   */\n      0x00\n        /* \"#utility.yul\":12752:12761   */\n      dup4\n        /* \"#utility.yul\":12748:12765   */\n      add\n        /* \"#utility.yul\":12741:12788   */\n      mstore\n        /* \"#utility.yul\":12805:12936   */\n      tag_342\n        /* \"#utility.yul\":12931:12935   */\n      dup2\n        /* \"#utility.yul\":12805:12936   */\n      tag_201\n      jump\t// in\n    tag_342:\n        /* \"#utility.yul\":12797:12936   */\n      swap1\n      pop\n        /* \"#utility.yul\":12524:12943   */\n      swap2\n      swap1\n      pop\n      jump\t// out\n        /* \"#utility.yul\":12949:13121   */\n    tag_202:\n        /* \"#utility.yul\":13089:13113   */\n      0x417574686f722063616e6e6f7420626520656d70747900000000000000000000\n        /* \"#utility.yul\":13085:13086   */\n      0x00\n        /* \"#utility.yul\":13077:13083   */\n      dup3\n        /* \"#utility.yul\":13073:13087   */\n      add\n        /* \"#utility.yul\":13066:13114   */\n      mstore\n        /* \"#utility.yul\":12949:13121   */\n      pop\n      jump\t// out\n        /* \"#utility.yul\":13127:13493   */\n    tag_203:\n        /* \"#utility.yul\":13269:13272   */\n      0x00\n        /* \"#utility.yul\":13290:13357   */\n      tag_345\n        /* \"#utility.yul\":13354:13356   */\n      0x16\n        /* \"#utility.yul\":13349:13352   */\n      dup4\n        /* \"#utility.yul\":13290:13357   */\n      tag_186\n      jump\t// in\n    tag_345:\n        /* \"#utility.yul\":13283:13357   */\n      swap2\n      pop\n        /* \"#utility.yul\":13366:13459   */\n      tag_346\n        /* \"#utility.yul\":13455:13458   */\n      dup3\n        /* \"#utility.yul\":13366:13459   */\n      tag_202\n      jump\t// in\n    tag_346:\n        /* \"#utility.yul\":13484:13486   */\n      0x20\n        /* \"#utility.yul\":13479:13482   */\n      dup3\n        /* \"#utility.yul\":13475:13487   */\n      add\n        /* \"#utility.yul\":13468:13487   */\n      swap1\n      pop\n        /* \"#utility.yul\":13127:13493   */\n      swap2\n      swap1\n      pop\n      jump\t// out\n        /* \"#utility.yul\":13499:13918   */\n    tag_70:\n        /* \"#utility.yul\":13665:13669   */\n      0x00\n        /* \"#utility.yul\":13703:13705   */\n      0x20\n        /* \"#utility.yul\":13692:13701   */\n      dup3\n        /* \"#utility.yul\":13688:13706   */\n      add\n        /* \"#utility.yul\":13680:13706   */\n      swap1\n      pop\n        /* \"#utility.yul\":13752:13761   */\n      dup2\n        /* \"#utility.yul\":13746:13750   */\n      dup2\n        /* \"#utility.yul\":13742:13762   */\n      sub\n        /* \"#utility.yul\":13738:13739   */\n      0x00\n        /* \"#utility.yul\":13727:13736   */\n      dup4\n        /* \"#utility.yul\":13723:13740   */\n      add\n        /* \"#utility.yul\":13716:13763   */\n      mstore\n        /* \"#utility.yul\":13780:13911   */\n      tag_348\n        /* \"#utility.yul\":13906:13910   */\n      dup2\n        /* \"#utility.yul\":13780:13911   */\n      tag_203\n      jump\t// in\n    tag_348:\n        /* \"#utility.yul\":13772:13911   */\n      swap1\n      pop\n        /* \"#utility.yul\":13499:13918   */\n      swap2\n      swap1\n      pop\n      jump\t// out\n        /* \"#utility.yul\":13924:14094   */\n    tag_204:\n        /* \"#utility.yul\":14064:14086   */\n      0x4953424e2063616e6e6f7420626520656d707479000000000000000000000000\n        /* \"#utility.yul\":14060:14061   */\n      0x00\n        /* \"#utility.yul\":14052:14058   */\n      dup3\n        /* \"#utility.yul\":14048:14062   */\n      add\n        /* \"#utility.yul\":14041:14087   */\n      mstore\n        /* \"#utility.yul\":13924:14094   */\n      pop\n      jump\t// out\n        /* \"#utility.yul\":14100:14466   */\n    tag_205:\n        /* \"#utility.yul\":14242:14245   */\n      0x00\n        /* \"#utility.yul\":14263:14330   */\n      tag_351\n        /* \"#utility.yul\":14327:14329   */\n      0x14\n        /* \"#utility.yul\":14322:14325   */\n      dup4\n        /* \"#utility.yul\":14263:14330   */\n      tag_186\n      jump\t// in\n    tag_351:\n        /* \"#utility.yul\":14256:14330   */\n      swap2\n      pop\n        /* \"#utility.yul\":14339:14432   */\n      tag_352\n        /* \"#utility.yul\":14428:14431   */\n      dup3\n        /* \"#utility.yul\":14339:14432   */\n      tag_204\n      jump\t// in\n    tag_352:\n        /* \"#utility.yul\":14457:14459   */\n      0x20\n        /* \"#utility.yul\":14452:14455   */\n      dup3\n        /* \"#utility.yul\":14448:14460   */\n      add\n        /* \"#utility.yul\":14441:14460   */\n      swap1\n      pop\n        /* \"#utility.yul\":14100:14466   */\n      swap2\n      swap1\n      pop\n      jump\t// out\n        /* \"#utility.yul\":14472:14891   */\n    tag_73:\n        /* \"#utility.yul\":14638:14642   */\n      0x00\n        /* \"#utility.yul\":14676:14678   */\n      0x20\n        /* \"#utility.yul\":14665:14674   */\n      dup3\n        /* \"#utility.yul\":14661:14679   */\n      add\n        /* \"#utility.yul\":14653:14679   */\n      swap1\n      pop\n        /* \"#utility.yul\":14725:14734   */\n      dup2\n        /* \"#utility.yul\":14719:14723   */\n      dup2\n        /* \"#utility.yul\":14715:14735   */\n      sub\n        /* \"#utility.yul\":14711:14712   */\n      0x00\n        /* \"#utility.yul\":14700:14709   */\n      dup4\n        /* \"#utility.yul\":14696:14713   */\n      add\n        /* \"#utility.yul\":14689:14736   */\n      mstore\n        /* \"#utility.yul\":14753:14884   */\n      tag_354\n        /* \"#utility.yul\":14879:14883   */\n      dup2\n        /* \"#utility.yul\":14753:14884   */\n      tag_205\n      jump\t// in\n    tag_354:\n        /* \"#utility.yul\":14745:14884   */\n      swap1\n      pop\n        /* \"#utility.yul\":14472:14891   */\n      swap2\n      swap1\n      pop\n      jump\t// out\n        /* \"#utility.yul\":14897:15066   */\n    tag_206:\n        /* \"#utility.yul\":15037:15058   */\n      0x4953424e20616c72656164792065786973747300000000000000000000000000\n        /* \"#utility.yul\":15033:15034   */\n      0x00\n        /* \"#utility.yul\":15025:15031   */\n      dup3\n        /* \"#utility.yul\":15021:15035   */\n      add\n        /* \"#utility.yul\":15014:15059   */\n      mstore\n        /* \"#utility.yul\":14897:15066   */\n      pop\n      jump\t// out\n        /* \"#utility.yul\":15072:15438   */\n    tag_207:\n        /* \"#utility.yul\":15214:15217   */\n      0x00\n        /* \"#utility.yul\":15235:15302   */\n      tag_357\n        /* \"#utility.yul\":15299:15301   */\n      0x13\n        /* \"#utility.yul\":15294:15297   */\n      dup4\n        /* \"#utility.yul\":15235:15302   */\n      tag_186\n      jump\t// in\n    tag_357:\n        /* \"#utility.yul\":15228:15302   */\n      swap2\n      pop\n        /* \"#utility.yul\":15311:15404   */\n      tag_358\n        /* \"#utility.yul\":15400:15403   */\n      dup3\n        /* \"#utility.yul\":15311:15404   */\n      tag_206\n      jump\t// in\n    tag_358:\n        /* \"#utility.yul\":15429:15431   */\n      0x20\n        /* \"#utility.yul\":15424:15427   */\n      dup3\n        /* \"#utility.yul\":15420:15432   */\n      add\n        /* \"#utility.yul\":15413:15432   */\n      swap1\n      pop\n        /* \"#utility.yul\":15072:15438   */\n      swap2\n      swap1\n      pop\n      jump\t// out\n        /* \"#utility.yul\":15444:15863   */\n    tag_79:\n        /* \"#utility.yul\":15610:15614   */\n      0x00\n        /* \"#utility.yul\":15648:15650   */\n      0x20\n        /* \"#utility.yul\":15637:15646   */\n      dup3\n        /* \"#utility.yul\":15633:15651   */\n      add\n        /* \"#utility.yul\":15625:15651   */\n      swap1\n      pop\n        /* \"#utility.yul\":15697:15706   */\n      dup2\n        /* \"#utility.yul\":15691:15695   */\n      dup2\n        /* \"#utility.yul\":15687:15707   */\n      sub\n        /* \"#utility.yul\":15683:15684   */\n      0x00\n        /* \"#utility.yul\":15672:15681   */\n      dup4\n        /* \"#utility.yul\":15668:15685   */\n      add\n        /* \"#utility.yul\":15661:15708   */\n      mstore\n        /* \"#utility.yul\":15725:15856   */\n      tag_360\n        /* \"#utility.yul\":15851:15855   */\n      dup2\n        /* \"#utility.yul\":15725:15856   */\n      tag_207\n      jump\t// in\n    tag_360:\n        /* \"#utility.yul\":15717:15856   */\n      swap1\n      pop\n        /* \"#utility.yul\":15444:15863   */\n      swap2\n      swap1\n      pop\n      jump\t// out\n        /* \"#utility.yul\":15869:16584   */\n    tag_86:\n        /* \"#utility.yul\":16078:16082   */\n      0x00\n        /* \"#utility.yul\":16116:16118   */\n      0x60\n        /* \"#utility.yul\":16105:16114   */\n      dup3\n        /* \"#utility.yul\":16101:16119   */\n      add\n        /* \"#utility.yul\":16093:16119   */\n      swap1\n      pop\n        /* \"#utility.yul\":16165:16174   */\n      dup2\n        /* \"#utility.yul\":16159:16163   */\n      dup2\n        /* \"#utility.yul\":16155:16175   */\n      sub\n        /* \"#utility.yul\":16151:16152   */\n      0x00\n        /* \"#utility.yul\":16140:16149   */\n      dup4\n        /* \"#utility.yul\":16136:16153   */\n      add\n        /* \"#utility.yul\":16129:16176   */\n      mstore\n        /* \"#utility.yul\":16193:16271   */\n      tag_362\n        /* \"#utility.yul\":16266:16270   */\n      dup2\n        /* \"#utility.yul\":16257:16263   */\n      dup7\n        /* \"#utility.yul\":16193:16271   */\n      tag_188\n      jump\t// in\n    tag_362:\n        /* \"#utility.yul\":16185:16271   */\n      swap1\n      pop\n        /* \"#utility.yul\":16318:16327   */\n      dup2\n        /* \"#utility.yul\":16312:16316   */\n      dup2\n        /* \"#utility.yul\":16308:16328   */\n      sub\n        /* \"#utility.yul\":16303:16305   */\n      0x20\n        /* \"#utility.yul\":16292:16301   */\n      dup4\n        /* \"#utility.yul\":16288:16306   */\n      add\n        /* \"#utility.yul\":16281:16329   */\n      mstore\n        /* \"#utility.yul\":16346:16424   */\n      tag_363\n        /* \"#utility.yul\":16419:16423   */\n      dup2\n        /* \"#utility.yul\":16410:16416   */\n      dup6\n        /* \"#utility.yul\":16346:16424   */\n      tag_188\n      jump\t// in\n    tag_363:\n        /* \"#utility.yul\":16338:16424   */\n      swap1\n      pop\n        /* \"#utility.yul\":16471:16480   */\n      dup2\n        /* \"#utility.yul\":16465:16469   */\n      dup2\n        /* \"#utility.yul\":16461:16481   */\n      sub\n        /* \"#utility.yul\":16456:16458   */\n      0x40\n        /* \"#utility.yul\":16445:16454   */\n      dup4\n        /* \"#utility.yul\":16441:16459   */\n      add\n        /* \"#utility.yul\":16434:16482   */\n      mstore\n        /* \"#utility.yul\":16499:16577   */\n      tag_364\n        /* \"#utility.yul\":16572:16576   */\n      dup2\n        /* \"#utility.yul\":16563:16569   */\n      dup5\n        /* \"#utility.yul\":16499:16577   */\n      tag_188\n      jump\t// in\n    tag_364:\n        /* \"#utility.yul\":16491:16577   */\n      swap1\n      pop\n        /* \"#utility.yul\":15869:16584   */\n      swap5\n      swap4\n      pop\n      pop\n      pop\n      pop\n      jump\t// out\n        /* \"#utility.yul\":16590:16770   */\n    tag_208:\n        /* \"#utility.yul\":16638:16715   */\n      0x4e487b7100000000000000000000000000000000000000000000000000000000\n        /* \"#utility.yul\":16635:16636   */\n      0x00\n        /* \"#utility.yul\":16628:16716   */\n      mstore\n        /* \"#utility.yul\":16735:16739   */\n      0x22\n        /* \"#utility.yul\":16732:16733   */\n      0x04\n        /* \"#utility.yul\":16725:16740   */\n      mstore\n        /* \"#utility.yul\":16759:16763   */\n      0x24\n        /* \"#utility.yul\":16756:16757   */\n      0x00\n        /* \"#utility.yul\":16749:16764   */\n      revert\n        /* \"#utility.yul\":16776:17096   */\n    tag_88:\n        /* \"#utility.yul\":16820:16826   */\n      0x00\n        /* \"#utility.yul\":16857:16858   */\n      0x02\n        /* \"#utility.yul\":16851:16855   */\n      dup3\n        /* \"#utility.yul\":16847:16859   */\n      div\n        /* \"#utility.yul\":16837:16859   */\n      swap1\n      pop\n        /* \"#utility.yul\":16904:16905   */\n      0x01\n        /* \"#utility.yul\":16898:16902   */\n      dup3\n        /* \"#utility.yul\":16894:16906   */\n      and\n        /* \"#utility.yul\":16925:16943   */\n      dup1\n        /* \"#utility.yul\":16915:16996   */\n      tag_367\n      jumpi\n        /* \"#utility.yul\":16981:16985   */\n      0x7f\n        /* \"#utility.yul\":16973:16979   */\n      dup3\n        /* \"#utility.yul\":16969:16986   */\n      and\n        /* \"#utility.yul\":16959:16986   */\n      swap2\n      pop\n        /* \"#utility.yul\":16915:16996   */\n    tag_367:\n        /* \"#utility.yul\":17043:17045   */\n      0x20\n        /* \"#utility.yul\":17035:17041   */\n      dup3\n        /* \"#utility.yul\":17032:17046   */\n      lt\n        /* \"#utility.yul\":17012:17030   */\n      dup2\n        /* \"#utility.yul\":17009:17047   */\n      sub\n        /* \"#utility.yul\":17006:17090   */\n      tag_368\n      jumpi\n        /* \"#utility.yul\":17062:17080   */\n      tag_369\n      tag_208\n      jump\t// in\n    tag_369:\n        /* \"#utility.yul\":17006:17090   */\n    tag_368:\n        /* \"#utility.yul\":16827:17096   */\n      pop\n        /* \"#utility.yul\":16776:17096   */\n      swap2\n      swap1\n      pop\n      jump\t// out\n        /* \"#utility.yul\":17102:17282   */\n    tag_209:\n        /* \"#utility.yul\":17150:17227   */\n      0x4e487b7100000000000000000000000000000000000000000000000000000000\n        /* \"#utility.yul\":17147:17148   */\n      0x00\n        /* \"#utility.yul\":17140:17228   */\n      mstore\n        /* \"#utility.yul\":17247:17251   */\n      0x11\n        /* \"#utility.yul\":17244:17245   */\n      0x04\n        /* \"#utility.yul\":17237:17252   */\n      mstore\n        /* \"#utility.yul\":17271:17275   */\n      0x24\n        /* \"#utility.yul\":17268:17269   */\n      0x00\n        /* \"#utility.yul\":17261:17276   */\n      revert\n        /* \"#utility.yul\":17288:17521   */\n    tag_121:\n        /* \"#utility.yul\":17327:17330   */\n      0x00\n        /* \"#utility.yul\":17350:17374   */\n      tag_372\n        /* \"#utility.yul\":17368:17373   */\n      dup3\n        /* \"#utility.yul\":17350:17374   */\n      tag_181\n      jump\t// in\n    tag_372:\n        /* \"#utility.yul\":17341:17374   */\n      swap2\n      pop\n        /* \"#utility.yul\":17396:17462   */\n      0xffffffffffffffffffffffffffffffffffffffffffffffffffffffffffffffff\n        /* \"#utility.yul\":17389:17394   */\n      dup3\n        /* \"#utility.yul\":17386:17463   */\n      sub\n        /* \"#utility.yul\":17383:17486   */\n      tag_373\n      jumpi\n        /* \"#utility.yul\":17466:17484   */\n      tag_374\n      tag_209\n      jump\t// in\n    tag_374:\n        /* \"#utility.yul\":17383:17486   */\n    tag_373:\n        /* \"#utility.yul\":17513:17514   */\n      0x01\n        /* \"#utility.yul\":17506:17511   */\n      dup3\n        /* \"#utility.yul\":17502:17515   */\n      add\n        /* \"#utility.yul\":17495:17515   */\n      swap1\n      pop\n        /* \"#utility.yul\":17288:17521   */\n      swap2\n      swap1\n      pop\n      jump\t// out\n        /* \"#utility.yul\":17527:17749   */\n    tag_210:\n        /* \"#utility.yul\":17667:17701   */\n      0x426f6f6b206973206e6f7420617661696c61626c6520666f7220626f72726f77\n        /* \"#utility.yul\":17663:17664   */\n      0x00\n        /* \"#utility.yul\":17655:17661   */\n      dup3\n        /* \"#utility.yul\":17651:17665   */\n      add\n        /* \"#utility.yul\":17644:17702   */\n      mstore\n        /* \"#utility.yul\":17736:17741   */\n      0x696e670000000000000000000000000000000000000000000000000000000000\n        /* \"#utility.yul\":17731:17733   */\n      0x20\n        /* \"#utility.yul\":17723:17729   */\n      dup3\n        /* \"#utility.yul\":17719:17734   */\n      add\n        /* \"#utility.yul\":17712:17742   */\n      mstore\n        /* \"#utility.yul\":17527:17749   */\n      pop\n      jump\t// out\n        /* \"#utility.yul\":17755:18121   */\n    tag_211:\n        /* \"#utility.yul\":17897:17900   */\n      0x00\n        /* \"#utility.yul\":17918:17985   */\n      tag_377\n        /* \"#utility.yul\":17982:17984   */\n      0x23\n        /* \"#utility.yul\":17977:17980   */\n      dup4\n        /* \"#utility.yul\":17918:17985   */\n      tag_186\n      jump\t// in\n    tag_377:\n        /* \"#utility.yul\":17911:17985   */\n      swap2\n      pop\n        /* \"#utility.yul\":17994:18087   */\n      tag_378\n        /* \"#utility.yul\":18083:18086   */\n      dup3\n        /* \"#utility.yul\":17994:18087   */\n      tag_210\n      jump\t// in\n    tag_378:\n        /* \"#utility.yul\":18112:18114   */\n      0x40\n        /* \"#utility.yul\":18107:18110   */\n      dup3\n        /* \"#utility.yul\":18103:18115   */\n      add\n        /* \"#utility.yul\":18096:18115   */\n      swap1\n      pop\n        /* \"#utility.yul\":17755:18121   */\n      swap2\n      swap1\n      pop\n      jump\t// out\n        /* \"#utility.yul\":18127:18546   */\n    tag_128:\n        /* \"#utility.yul\":18293:18297   */\n      0x00\n        /* \"#utility.yul\":18331:18333   */\n      0x20\n        /* \"#utility.yul\":18320:18329   */\n      dup3\n        /* \"#utility.yul\":18316:18334   */\n      add\n        /* \"#utility.yul\":18308:18334   */\n      swap1\n      pop\n        /* \"#utility.yul\":18380:18389   */\n      dup2\n        /* \"#utility.yul\":18374:18378   */\n      dup2\n        /* \"#utility.yul\":18370:18390   */\n      sub\n        /* \"#utility.yul\":18366:18367   */\n      0x00\n        /* \"#utility.yul\":18355:18364   */\n      dup4\n        /* \"#utility.yul\":18351:18368   */\n      add\n        /* \"#utility.yul\":18344:18391   */\n      mstore\n        /* \"#utility.yul\":18408:18539   */\n      tag_380\n        /* \"#utility.yul\":18534:18538   */\n      dup2\n        /* \"#utility.yul\":18408:18539   */\n      tag_211\n      jump\t// in\n    tag_380:\n        /* \"#utility.yul\":18400:18539   */\n      swap1\n      pop\n        /* \"#utility.yul\":18127:18546   */\n      swap2\n      swap1\n      pop\n      jump\t// out\n        /* \"#utility.yul\":18552:18728   */\n    tag_212:\n        /* \"#utility.yul\":18692:18720   */\n      0x426f6f6b2069732063757272656e746c7920626f72726f776564000000000000\n        /* \"#utility.yul\":18688:18689   */\n      0x00\n        /* \"#utility.yul\":18680:18686   */\n      dup3\n        /* \"#utility.yul\":18676:18690   */\n      add\n        /* \"#utility.yul\":18669:18721   */\n      mstore\n        /* \"#utility.yul\":18552:18728   */\n      pop\n      jump\t// out\n        /* \"#utility.yul\":18734:19100   */\n    tag_213:\n        /* \"#utility.yul\":18876:18879   */\n      0x00\n        /* \"#utility.yul\":18897:18964   */\n      tag_383\n        /* \"#utility.yul\":18961:18963   */\n      0x1a\n        /* \"#utility.yul\":18956:18959   */\n      dup4\n        /* \"#utility.yul\":18897:18964   */\n      tag_186\n      jump\t// in\n    tag_383:\n        /* \"#utility.yul\":18890:18964   */\n      swap2\n      pop\n        /* \"#utility.yul\":18973:19066   */\n      tag_384\n        /* \"#utility.yul\":19062:19065   */\n      dup3\n        /* \"#utility.yul\":18973:19066   */\n      tag_212\n      jump\t// in\n    tag_384:\n        /* \"#utility.yul\":19091:19093   */\n      0x20\n        /* \"#utility.yul\":19086:19089   */\n      dup3\n        /* \"#utility.yul\":19082:19094   */\n      add\n        /* \"#utility.yul\":19075:19094   */\n      swap1\n      pop\n        /* \"#utility.yul\":18734:19100   */\n      swap2\n      swap1\n      pop\n      jump\t// out\n        /* \"#utility.yul\":19106:19525   */\n    tag_137:\n        /* \"#utility.yul\":19272:19276   */\n      0x00\n        /* \"#utility.yul\":19310:19312   */\n      0x20\n        /* \"#utility.yul\":19299:19308   */\n      dup3\n        /* \"#utility.yul\":19295:19313   */\n      add\n        /* \"#utility.yul\":19287:19313   */\n      swap1\n      pop\n        /* \"#utility.yul\":19359:19368   */\n      dup2\n        /* \"#utility.yul\":19353:19357   */\n      dup2\n        /* \"#utility.yul\":19349:19369   */\n      sub\n        /* \"#utility.yul\":19345:19346   */\n      0x00\n        /* \"#utility.yul\":19334:19343   */\n      dup4\n        /* \"#utility.yul\":19330:19347   */\n      add\n        /* \"#utility.yul\":19323:19370   */\n      mstore\n        /* \"#utility.yul\":19387:19518   */\n      tag_386\n        /* \"#utility.yul\":19513:19517   */\n      dup2\n        /* \"#utility.yul\":19387:19518   */\n      tag_213\n      jump\t// in\n    tag_386:\n        /* \"#utility.yul\":19379:19518   */\n      swap1\n      pop\n        /* \"#utility.yul\":19106:19525   */\n      swap2\n      swap1\n      pop\n      jump\t// out\n        /* \"#utility.yul\":19531:19706   */\n    tag_214:\n        /* \"#utility.yul\":19671:19698   */\n      0x426f6f6b20697320616c726561647920617661696c61626c6500000000000000\n        /* \"#utility.yul\":19667:19668   */\n      0x00\n        /* \"#utility.yul\":19659:19665   */\n      dup3\n        /* \"#utility.yul\":19655:19669   */\n      add\n        /* \"#utility.yul\":19648:19699   */\n      mstore\n        /* \"#utility.yul\":19531:19706   */\n      pop\n      jump\t// out\n        /* \"#utility.yul\":19712:20078   */\n    tag_215:\n        /* \"#utility.yul\":19854:19857   */\n      0x00\n        /* \"#utility.yul\":19875:19942   */\n      tag_389\n        /* \"#utility.yul\":19939:19941   */\n      0x19\n        /* \"#utility.yul\":19934:19937   */\n      dup4\n        /* \"#utility.yul\":19875:19942   */\n      tag_186\n      jump\t// in\n    tag_389:\n        /* \"#utility.yul\":19868:19942   */\n      swap2\n      pop\n        /* \"#utility.yul\":19951:20044   */\n      tag_390\n        /* \"#utility.yul\":20040:20043   */\n      dup3\n        /* \"#utility.yul\":19951:20044   */\n      tag_214\n      jump\t// in\n    tag_390:\n        /* \"#utility.yul\":20069:20071   */\n      0x20\n        /* \"#utility.yul\":20064:20067   */\n      dup3\n        /* \"#utility.yul\":20060:20072   */\n      add\n        /* \"#utility.yul\":20053:20072   */\n      swap1\n      pop\n        /* \"#utility.yul\":19712:20078   */\n      swap2\n      swap1\n      pop\n      jump\t// out\n        /* \"#utility.yul\":20084:20503   */\n    tag_153:\n        /* \"#utility.yul\":20250:20254   */\n      0x00\n        /* \"#utility.yul\":20288:20290   */\n      0x20\n        /* \"#utility.yul\":20277:20286   */\n      dup3\n        /* \"#utility.yul\":20273:20291   */\n      add\n        /* \"#utility.yul\":20265:20291   */\n      swap1\n      pop\n        /* \"#utility.yul\":20337:20346   */\n      dup2\n        /* \"#utility.yul\":20331:20335   */\n      dup2\n        /* \"#utility.yul\":20327:20347   */\n      sub\n        /* \"#utility.yul\":20323:20324   */\n      0x00\n        /* \"#utility.yul\":20312:20321   */\n      dup4\n        /* \"#utility.yul\":20308:20325   */\n      add\n        /* \"#utility.yul\":20301:20348   */\n      mstore\n        /* \"#utility.yul\":20365:20496   */\n      tag_392\n        /* \"#utility.yul\":20491:20495   */\n      dup2\n        /* \"#utility.yul\":20365:20496   */\n      tag_215\n      jump\t// in\n    tag_392:\n        /* \"#utility.yul\":20357:20496   */\n      swap1\n      pop\n        /* \"#utility.yul\":20084:20503   */\n      swap2\n      swap1\n      pop\n      jump\t// out\n\n    auxdata: 0xa2646970667358221220f9639879813ea6e34c1d1389fa4e0a2a2da2f2debef8268eafa050bfdbb4880a64736f6c634300080d0033\n}\n",
				"bytecode": {
					"linkReferences": {},
					"object": "608060405234801561001057600080fd5b50336000806101000a81548173ffffffffffffffffffffffffffffffffffffffff021916908373ffffffffffffffffffffffffffffffffffffffff160217905550611a32806100606000396000f3fe608060405234801561001057600080fd5b506004361061009e5760003560e01c8063b413314811610066578063b41331481461015a578063b905ad781461018a578063bec0d799146101a8578063ca5140c9146101c4578063ff1b636d146101e05761009e565b8063233d280c146100a35780633904e647146100d357806368744046146100ef57806369c46826146101225780637e490a9e1461013e575b600080fd5b6100bd60048036038101906100b891906110dd565b6101fe565b6040516100ca919061113f565b60405180910390f35b6100ed60048036038101906100e89190611186565b610226565b005b61010960048036038101906101049190611241565b610515565b6040516101199493929190611311565b60405180910390f35b61013c6004803603810190610137919061136b565b6106ea565b005b61015860048036038101906101539190611241565b6109da565b005b610174600480360381019061016f91906110dd565b610ad4565b604051610181919061113f565b60405180910390f35b610192610b02565b60405161019f919061113f565b60405180910390f35b6101c260048036038101906101bd9190611241565b610b08565b005b6101de60048036038101906101d99190611241565b610d81565b005b6101e8610e7c565b6040516101f59190611453565b60405180910390f35b600060038260405161021091906114aa565b9081526020016040518091039020549050919050565b60008054906101000a900473ffffffffffffffffffffffffffffffffffffffff1673ffffffffffffffffffffffffffffffffffffffff163373ffffffffffffffffffffffffffffffffffffffff16146102b4576040517f08c379a00000000000000000000000000000000000000000000000000000000081526004016102ab90611533565b60405180910390fd5b60015484106102f8576040517f08c379a00000000000000000000000000000000000000000000000000000000081526004016102ef9061159f565b60405180910390fd5b60006002600086815260200190815260200160002090506000845111610353576040517f08c379a000000000000000000000000000000000000000000000000000000000815260040161034a9061160b565b60405180910390fd5b6000835111610397576040517f08c379a000000000000000000000000000000000000000000000000000000000815260040161038e90611677565b60405180910390fd5b60008251116103db576040517f08c379a00000000000000000000000000000000000000000000000000000000081526004016103d2906116e3565b60405180910390fd5b60006003836040516103ed91906114aa565b908152602001604051809103902054148061042557508460038360405161041491906114aa565b908152602001604051809103902054145b610464576040517f08c379a000000000000000000000000000000000000000000000000000000000815260040161045b9061174f565b60405180910390fd5b8381600001908051906020019061047c929190610ea0565b5082816001019080519060200190610495929190610ea0565b50818160020190805190602001906104ae929190610ea0565b50846003836040516104c091906114aa565b908152602001604051809103902081905550847fa898c55468d86d424978d3de5e5782cc830c1dc9d253e3525b5d4888d8059a138585856040516105069392919061176f565b60405180910390a25050505050565b6002602052806000526040600020600091509050806000018054610538906117ea565b80601f0160208091040260200160405190810160405280929190818152602001828054610564906117ea565b80156105b15780601f10610586576101008083540402835291602001916105b1565b820191906000526020600020905b81548152906001019060200180831161059457829003601f168201915b5050505050908060010180546105c6906117ea565b80601f01602080910402602001604051908101604052809291908181526020018280546105f2906117ea565b801561063f5780601f106106145761010080835404028352916020019161063f565b820191906000526020600020905b81548152906001019060200180831161062257829003601f168201915b505050505090806002018054610654906117ea565b80601f0160208091040260200160405190810160405280929190818152602001828054610680906117ea565b80156106cd5780601f106106a2576101008083540402835291602001916106cd565b820191906000526020600020905b8154815290600101906020018083116106b057829003601f168201915b5050505050908060030160009054906101000a900460ff16905084565b60008054906101000a900473ffffffffffffffffffffffffffffffffffffffff1673ffffffffffffffffffffffffffffffffffffffff163373ffffffffffffffffffffffffffffffffffffffff1614610778576040517f08c379a000000000000000000000000000000000000000000000000000000000815260040161076f90611533565b60405180910390fd5b60008351116107bc576040517f08c379a00000000000000000000000000000000000000000000000000000000081526004016107b39061160b565b60405180910390fd5b6000825111610800576040517f08c379a00000000000000000000000000000000000000000000000000000000081526004016107f790611677565b60405180910390fd5b6000815111610844576040517f08c379a000000000000000000000000000000000000000000000000000000000815260040161083b906116e3565b60405180910390fd5b600060038260405161085691906114aa565b908152602001604051809103902054146108a5576040517f08c379a000000000000000000000000000000000000000000000000000000000815260040161089c9061174f565b60405180910390fd5b600060015490506040518060800160405280858152602001848152602001838152602001600115158152506002600083815260200190815260200160002060008201518160000190805190602001906108ff929190610ea0565b50602082015181600101908051906020019061091c929190610ea0565b506040820151816002019080519060200190610939929190610ea0565b5060608201518160030160006101000a81548160ff0219169083151502179055509050508060038360405161096e91906114aa565b908152602001604051809103902081905550600160008154809291906109939061184a565b9190505550807f16b1db40dbf86a945842a8b64a0f1246f7549bb3fbb390b716cd12c74c888cc48585856040516109cc9392919061176f565b60405180910390a250505050565b6001548110610a1e576040517f08c379a0000000000000000000000000000000000000000000000000000000008152600401610a159061159f565b60405180910390fd5b60006002600083815260200190815260200160002090508060030160009054906101000a900460ff16610a86576040517f08c379a0000000000000000000000000000000000000000000000000000000008152600401610a7d90611904565b60405180910390fd5b60008160030160006101000a81548160ff021916908315150217905550817f7a6277620702967bfa65133a9521f449d456f9ba720f869a5e96c44d9321e8f160405160405180910390a25050565b6003818051602081018201805184825260208301602085012081835280955050505050506000915090505481565b60015481565b60008054906101000a900473ffffffffffffffffffffffffffffffffffffffff1673ffffffffffffffffffffffffffffffffffffffff163373ffffffffffffffffffffffffffffffffffffffff1614610b96576040517f08c379a0000000000000000000000000000000000000000000000000000000008152600401610b8d90611533565b60405180910390fd5b6001548110610bda576040517f08c379a0000000000000000000000000000000000000000000000000000000008152600401610bd19061159f565b60405180910390fd5b60006002600083815260200190815260200160002090508060030160009054906101000a900460ff16610c42576040517f08c379a0000000000000000000000000000000000000000000000000000000008152600401610c3990611970565b60405180910390fd5b6000816002018054610c53906117ea565b80601f0160208091040260200160405190810160405280929190818152602001828054610c7f906117ea565b8015610ccc5780601f10610ca157610100808354040283529160200191610ccc565b820191906000526020600020905b815481529060010190602001808311610caf57829003601f168201915b505050505090506002600084815260200190815260200160002060008082016000610cf79190610f26565b600182016000610d079190610f26565b600282016000610d179190610f26565b6003820160006101000a81549060ff02191690555050600381604051610d3d91906114aa565b908152602001604051809103902060009055827f3c5ce13264433bcf97e5d53c97af4fc33800e8c9dd927f965b116d0018d7cddf60405160405180910390a2505050565b6001548110610dc5576040517f08c379a0000000000000000000000000000000000000000000000000000000008152600401610dbc9061159f565b60405180910390fd5b60006002600083815260200190815260200160002090508060030160009054906101000a900460ff1615610e2e576040517f08c379a0000000000000000000000000000000000000000000000000000000008152600401610e25906119dc565b60405180910390fd5b60018160030160006101000a81548160ff021916908315150217905550817f70495d83ba5ba5c54086a9955a8c68fa91f4439242054fbe5a64b3d55300691760405160405180910390a25050565b60008054906101000a900473ffffffffffffffffffffffffffffffffffffffff1681565b828054610eac906117ea565b90600052602060002090601f016020900481019282610ece5760008555610f15565b82601f10610ee757805160ff1916838001178555610f15565b82800160010185558215610f15579182015b82811115610f14578251825591602001919060010190610ef9565b5b509050610f229190610f66565b5090565b508054610f32906117ea565b6000825580601f10610f445750610f63565b601f016020900490600052602060002090810190610f629190610f66565b5b50565b5b80821115610f7f576000816000905550600101610f67565b5090565b6000604051905090565b600080fd5b600080fd5b600080fd5b600080fd5b6000601f19601f8301169050919050565b7f4e487b7100000000000000000000000000000000000000000000000000000000600052604160045260246000fd5b610fea82610fa1565b810181811067ffffffffffffffff8211171561100957611008610fb2565b5b80604052505050565b600061101c610f83565b90506110288282610fe1565b919050565b600067ffffffffffffffff82111561104857611047610fb2565b5b61105182610fa1565b9050602081019050919050565b82818337600083830152505050565b600061108061107b8461102d565b611012565b90508281526020810184848401111561109c5761109b610f9c565b5b6110a784828561105e565b509392505050565b600082601f8301126110c4576110c3610f97565b5b81356110d484826020860161106d565b91505092915050565b6000602082840312156110f3576110f2610f8d565b5b600082013567ffffffffffffffff81111561111157611110610f92565b5b61111d848285016110af565b91505092915050565b6000819050919050565b61113981611126565b82525050565b60006020820190506111546000830184611130565b92915050565b61116381611126565b811461116e57600080fd5b50565b6000813590506111808161115a565b92915050565b600080600080608085870312156111a05761119f610f8d565b5b60006111ae87828801611171565b945050602085013567ffffffffffffffff8111156111cf576111ce610f92565b5b6111db878288016110af565b935050604085013567ffffffffffffffff8111156111fc576111fb610f92565b5b611208878288016110af565b925050606085013567ffffffffffffffff81111561122957611228610f92565b5b611235878288016110af565b91505092959194509250565b60006020828403121561125757611256610f8d565b5b600061126584828501611171565b91505092915050565b600081519050919050565b600082825260208201905092915050565b60005b838110156112a857808201518184015260208101905061128d565b838111156112b7576000848401525b50505050565b60006112c88261126e565b6112d28185611279565b93506112e281856020860161128a565b6112eb81610fa1565b840191505092915050565b60008115159050919050565b61130b816112f6565b82525050565b6000608082019050818103600083015261132b81876112bd565b9050818103602083015261133f81866112bd565b9050818103604083015261135381856112bd565b90506113626060830184611302565b95945050505050565b60008060006060848603121561138457611383610f8d565b5b600084013567ffffffffffffffff8111156113a2576113a1610f92565b5b6113ae868287016110af565b935050602084013567ffffffffffffffff8111156113cf576113ce610f92565b5b6113db868287016110af565b925050604084013567ffffffffffffffff8111156113fc576113fb610f92565b5b611408868287016110af565b9150509250925092565b600073ffffffffffffffffffffffffffffffffffffffff82169050919050565b600061143d82611412565b9050919050565b61144d81611432565b82525050565b60006020820190506114686000830184611444565b92915050565b600081905092915050565b60006114848261126e565b61148e818561146e565b935061149e81856020860161128a565b80840191505092915050565b60006114b68284611479565b915081905092915050565b7f4f6e6c79207468652041646d696e2063616e2063616c6c20746869732066756e60008201527f6374696f6e000000000000000000000000000000000000000000000000000000602082015250565b600061151d602583611279565b9150611528826114c1565b604082019050919050565b6000602082019050818103600083015261154c81611510565b9050919050565b7f496e76616c696420626f6f6b2049440000000000000000000000000000000000600082015250565b6000611589600f83611279565b915061159482611553565b602082019050919050565b600060208201905081810360008301526115b88161157c565b9050919050565b7f5469746c652063616e6e6f7420626520656d7074790000000000000000000000600082015250565b60006115f5601583611279565b9150611600826115bf565b602082019050919050565b60006020820190508181036000830152611624816115e8565b9050919050565b7f417574686f722063616e6e6f7420626520656d70747900000000000000000000600082015250565b6000611661601683611279565b915061166c8261162b565b602082019050919050565b6000602082019050818103600083015261169081611654565b9050919050565b7f4953424e2063616e6e6f7420626520656d707479000000000000000000000000600082015250565b60006116cd601483611279565b91506116d882611697565b602082019050919050565b600060208201905081810360008301526116fc816116c0565b9050919050565b7f4953424e20616c72656164792065786973747300000000000000000000000000600082015250565b6000611739601383611279565b915061174482611703565b602082019050919050565b600060208201905081810360008301526117688161172c565b9050919050565b6000606082019050818103600083015261178981866112bd565b9050818103602083015261179d81856112bd565b905081810360408301526117b181846112bd565b9050949350505050565b7f4e487b7100000000000000000000000000000000000000000000000000000000600052602260045260246000fd5b6000600282049050600182168061180257607f821691505b602082108103611815576118146117bb565b5b50919050565b7f4e487b7100000000000000000000000000000000000000000000000000000000600052601160045260246000fd5b600061185582611126565b91507fffffffffffffffffffffffffffffffffffffffffffffffffffffffffffffffff82036118875761188661181b565b5b600182019050919050565b7f426f6f6b206973206e6f7420617661696c61626c6520666f7220626f72726f7760008201527f696e670000000000000000000000000000000000000000000000000000000000602082015250565b60006118ee602383611279565b91506118f982611892565b604082019050919050565b6000602082019050818103600083015261191d816118e1565b9050919050565b7f426f6f6b2069732063757272656e746c7920626f72726f776564000000000000600082015250565b600061195a601a83611279565b915061196582611924565b602082019050919050565b600060208201905081810360008301526119898161194d565b9050919050565b7f426f6f6b20697320616c726561647920617661696c61626c6500000000000000600082015250565b60006119c6601983611279565b91506119d182611990565b602082019050919050565b600060208201905081810360008301526119f5816119b9565b905091905056fea2646970667358221220f9639879813ea6e34c1d1389fa4e0a2a2da2f2debef8268eafa050bfdbb4880a64736f6c634300080d0033",
					"opcodes": "PUSH1 0x80 PUSH1 0x40 MSTORE CALLVALUE DUP1 ISZERO PUSH2 0x10 JUMPI PUSH1 0x0 DUP1 REVERT JUMPDEST POP CALLER PUSH1 0x0 DUP1 PUSH2 0x100 EXP DUP2 SLOAD DUP2 PUSH20 0xFFFFFFFFFFFFFFFFFFFFFFFFFFFFFFFFFFFFFFFF MUL NOT AND SWAP1 DUP4 PUSH20 0xFFFFFFFFFFFFFFFFFFFFFFFFFFFFFFFFFFFFFFFF AND MUL OR SWAP1 SSTORE POP PUSH2 0x1A32 DUP1 PUSH2 0x60 PUSH1 0x0 CODECOPY PUSH1 0x0 RETURN INVALID PUSH1 0x80 PUSH1 0x40 MSTORE CALLVALUE DUP1 ISZERO PUSH2 0x10 JUMPI PUSH1 0x0 DUP1 REVERT JUMPDEST POP PUSH1 0x4 CALLDATASIZE LT PUSH2 0x9E JUMPI PUSH1 0x0 CALLDATALOAD PUSH1 0xE0 SHR DUP1 PUSH4 0xB4133148 GT PUSH2 0x66 JUMPI DUP1 PUSH4 0xB4133148 EQ PUSH2 0x15A JUMPI DUP1 PUSH4 0xB905AD78 EQ PUSH2 0x18A JUMPI DUP1 PUSH4 0xBEC0D799 EQ PUSH2 0x1A8 JUMPI DUP1 PUSH4 0xCA5140C9 EQ PUSH2 0x1C4 JUMPI DUP1 PUSH4 0xFF1B636D EQ PUSH2 0x1E0 JUMPI PUSH2 0x9E JUMP JUMPDEST DUP1 PUSH4 0x233D280C EQ PUSH2 0xA3 JUMPI DUP1 PUSH4 0x3904E647 EQ PUSH2 0xD3 JUMPI DUP1 PUSH4 0x68744046 EQ PUSH2 0xEF JUMPI DUP1 PUSH4 0x69C46826 EQ PUSH2 0x122 JUMPI DUP1 PUSH4 0x7E490A9E EQ PUSH2 0x13E JUMPI JUMPDEST PUSH1 0x0 DUP1 REVERT JUMPDEST PUSH2 0xBD PUSH1 0x4 DUP1 CALLDATASIZE SUB DUP2 ADD SWAP1 PUSH2 0xB8 SWAP2 SWAP1 PUSH2 0x10DD JUMP JUMPDEST PUSH2 0x1FE JUMP JUMPDEST PUSH1 0x40 MLOAD PUSH2 0xCA SWAP2 SWAP1 PUSH2 0x113F JUMP JUMPDEST PUSH1 0x40 MLOAD DUP1 SWAP2 SUB SWAP1 RETURN JUMPDEST PUSH2 0xED PUSH1 0x4 DUP1 CALLDATASIZE SUB DUP2 ADD SWAP1 PUSH2 0xE8 SWAP2 SWAP1 PUSH2 0x1186 JUMP JUMPDEST PUSH2 0x226 JUMP JUMPDEST STOP JUMPDEST PUSH2 0x109 PUSH1 0x4 DUP1 CALLDATASIZE SUB DUP2 ADD SWAP1 PUSH2 0x104 SWAP2 SWAP1 PUSH2 0x1241 JUMP JUMPDEST PUSH2 0x515 JUMP JUMPDEST PUSH1 0x40 MLOAD PUSH2 0x119 SWAP5 SWAP4 SWAP3 SWAP2 SWAP1 PUSH2 0x1311 JUMP JUMPDEST PUSH1 0x40 MLOAD DUP1 SWAP2 SUB SWAP1 RETURN JUMPDEST PUSH2 0x13C PUSH1 0x4 DUP1 CALLDATASIZE SUB DUP2 ADD SWAP1 PUSH2 0x137 SWAP2 SWAP1 PUSH2 0x136B JUMP JUMPDEST PUSH2 0x6EA JUMP JUMPDEST STOP JUMPDEST PUSH2 0x158 PUSH1 0x4 DUP1 CALLDATASIZE SUB DUP2 ADD SWAP1 PUSH2 0x153 SWAP2 SWAP1 PUSH2 0x1241 JUMP JUMPDEST PUSH2 0x9DA JUMP JUMPDEST STOP JUMPDEST PUSH2 0x174 PUSH1 0x4 DUP1 CALLDATASIZE SUB DUP2 ADD SWAP1 PUSH2 0x16F SWAP2 SWAP1 PUSH2 0x10DD JUMP JUMPDEST PUSH2 0xAD4 JUMP JUMPDEST PUSH1 0x40 MLOAD PUSH2 0x181 SWAP2 SWAP1 PUSH2 0x113F JUMP JUMPDEST PUSH1 0x40 MLOAD DUP1 SWAP2 SUB SWAP1 RETURN JUMPDEST PUSH2 0x192 PUSH2 0xB02 JUMP JUMPDEST PUSH1 0x40 MLOAD PUSH2 0x19F SWAP2 SWAP1 PUSH2 0x113F JUMP JUMPDEST PUSH1 0x40 MLOAD DUP1 SWAP2 SUB SWAP1 RETURN JUMPDEST PUSH2 0x1C2 PUSH1 0x4 DUP1 CALLDATASIZE SUB DUP2 ADD SWAP1 PUSH2 0x1BD SWAP2 SWAP1 PUSH2 0x1241 JUMP JUMPDEST PUSH2 0xB08 JUMP JUMPDEST STOP JUMPDEST PUSH2 0x1DE PUSH1 0x4 DUP1 CALLDATASIZE SUB DUP2 ADD SWAP1 PUSH2 0x1D9 SWAP2 SWAP1 PUSH2 0x1241 JUMP JUMPDEST PUSH2 0xD81 JUMP JUMPDEST STOP JUMPDEST PUSH2 0x1E8 PUSH2 0xE7C JUMP JUMPDEST PUSH1 0x40 MLOAD PUSH2 0x1F5 SWAP2 SWAP1 PUSH2 0x1453 JUMP JUMPDEST PUSH1 0x40 MLOAD DUP1 SWAP2 SUB SWAP1 RETURN JUMPDEST PUSH1 0x0 PUSH1 0x3 DUP3 PUSH1 0x40 MLOAD PUSH2 0x210 SWAP2 SWAP1 PUSH2 0x14AA JUMP JUMPDEST SWAP1 DUP2 MSTORE PUSH1 0x20 ADD PUSH1 0x40 MLOAD DUP1 SWAP2 SUB SWAP1 KECCAK256 SLOAD SWAP1 POP SWAP2 SWAP1 POP JUMP JUMPDEST PUSH1 0x0 DUP1 SLOAD SWAP1 PUSH2 0x100 EXP SWAP1 DIV PUSH20 0xFFFFFFFFFFFFFFFFFFFFFFFFFFFFFFFFFFFFFFFF AND PUSH20 0xFFFFFFFFFFFFFFFFFFFFFFFFFFFFFFFFFFFFFFFF AND CALLER PUSH20 0xFFFFFFFFFFFFFFFFFFFFFFFFFFFFFFFFFFFFFFFF AND EQ PUSH2 0x2B4 JUMPI PUSH1 0x40 MLOAD PUSH32 0x8C379A000000000000000000000000000000000000000000000000000000000 DUP2 MSTORE PUSH1 0x4 ADD PUSH2 0x2AB SWAP1 PUSH2 0x1533 JUMP JUMPDEST PUSH1 0x40 MLOAD DUP1 SWAP2 SUB SWAP1 REVERT JUMPDEST PUSH1 0x1 SLOAD DUP5 LT PUSH2 0x2F8 JUMPI PUSH1 0x40 MLOAD PUSH32 0x8C379A000000000000000000000000000000000000000000000000000000000 DUP2 MSTORE PUSH1 0x4 ADD PUSH2 0x2EF SWAP1 PUSH2 0x159F JUMP JUMPDEST PUSH1 0x40 MLOAD DUP1 SWAP2 SUB SWAP1 REVERT JUMPDEST PUSH1 0x0 PUSH1 0x2 PUSH1 0x0 DUP7 DUP2 MSTORE PUSH1 0x20 ADD SWAP1 DUP2 MSTORE PUSH1 0x20 ADD PUSH1 0x0 KECCAK256 SWAP1 POP PUSH1 0x0 DUP5 MLOAD GT PUSH2 0x353 JUMPI PUSH1 0x40 MLOAD PUSH32 0x8C379A000000000000000000000000000000000000000000000000000000000 DUP2 MSTORE PUSH1 0x4 ADD PUSH2 0x34A SWAP1 PUSH2 0x160B JUMP JUMPDEST PUSH1 0x40 MLOAD DUP1 SWAP2 SUB SWAP1 REVERT JUMPDEST PUSH1 0x0 DUP4 MLOAD GT PUSH2 0x397 JUMPI PUSH1 0x40 MLOAD PUSH32 0x8C379A000000000000000000000000000000000000000000000000000000000 DUP2 MSTORE PUSH1 0x4 ADD PUSH2 0x38E SWAP1 PUSH2 0x1677 JUMP JUMPDEST PUSH1 0x40 MLOAD DUP1 SWAP2 SUB SWAP1 REVERT JUMPDEST PUSH1 0x0 DUP3 MLOAD GT PUSH2 0x3DB JUMPI PUSH1 0x40 MLOAD PUSH32 0x8C379A000000000000000000000000000000000000000000000000000000000 DUP2 MSTORE PUSH1 0x4 ADD PUSH2 0x3D2 SWAP1 PUSH2 0x16E3 JUMP JUMPDEST PUSH1 0x40 MLOAD DUP1 SWAP2 SUB SWAP1 REVERT JUMPDEST PUSH1 0x0 PUSH1 0x3 DUP4 PUSH1 0x40 MLOAD PUSH2 0x3ED SWAP2 SWAP1 PUSH2 0x14AA JUMP JUMPDEST SWAP1 DUP2 MSTORE PUSH1 0x20 ADD PUSH1 0x40 MLOAD DUP1 SWAP2 SUB SWAP1 KECCAK256 SLOAD EQ DUP1 PUSH2 0x425 JUMPI POP DUP5 PUSH1 0x3 DUP4 PUSH1 0x40 MLOAD PUSH2 0x414 SWAP2 SWAP1 PUSH2 0x14AA JUMP JUMPDEST SWAP1 DUP2 MSTORE PUSH1 0x20 ADD PUSH1 0x40 MLOAD DUP1 SWAP2 SUB SWAP1 KECCAK256 SLOAD EQ JUMPDEST PUSH2 0x464 JUMPI PUSH1 0x40 MLOAD PUSH32 0x8C379A000000000000000000000000000000000000000000000000000000000 DUP2 MSTORE PUSH1 0x4 ADD PUSH2 0x45B SWAP1 PUSH2 0x174F JUMP JUMPDEST PUSH1 0x40 MLOAD DUP1 SWAP2 SUB SWAP1 REVERT JUMPDEST DUP4 DUP2 PUSH1 0x0 ADD SWAP1 DUP1 MLOAD SWAP1 PUSH1 0x20 ADD SWAP1 PUSH2 0x47C SWAP3 SWAP2 SWAP1 PUSH2 0xEA0 JUMP JUMPDEST POP DUP3 DUP2 PUSH1 0x1 ADD SWAP1 DUP1 MLOAD SWAP1 PUSH1 0x20 ADD SWAP1 PUSH2 0x495 SWAP3 SWAP2 SWAP1 PUSH2 0xEA0 JUMP JUMPDEST POP DUP2 DUP2 PUSH1 0x2 ADD SWAP1 DUP1 MLOAD SWAP1 PUSH1 0x20 ADD SWAP1 PUSH2 0x4AE SWAP3 SWAP2 SWAP1 PUSH2 0xEA0 JUMP JUMPDEST POP DUP5 PUSH1 0x3 DUP4 PUSH1 0x40 MLOAD PUSH2 0x4C0 SWAP2 SWAP1 PUSH2 0x14AA JUMP JUMPDEST SWAP1 DUP2 MSTORE PUSH1 0x20 ADD PUSH1 0x40 MLOAD DUP1 SWAP2 SUB SWAP1 KECCAK256 DUP2 SWAP1 SSTORE POP DUP5 PUSH32 0xA898C55468D86D424978D3DE5E5782CC830C1DC9D253E3525B5D4888D8059A13 DUP6 DUP6 DUP6 PUSH1 0x40 MLOAD PUSH2 0x506 SWAP4 SWAP3 SWAP2 SWAP1 PUSH2 0x176F JUMP JUMPDEST PUSH1 0x40 MLOAD DUP1 SWAP2 SUB SWAP1 LOG2 POP POP POP POP POP JUMP JUMPDEST PUSH1 0x2 PUSH1 0x20 MSTORE DUP1 PUSH1 0x0 MSTORE PUSH1 0x40 PUSH1 0x0 KECCAK256 PUSH1 0x0 SWAP2 POP SWAP1 POP DUP1 PUSH1 0x0 ADD DUP1 SLOAD PUSH2 0x538 SWAP1 PUSH2 0x17EA JUMP JUMPDEST DUP1 PUSH1 0x1F ADD PUSH1 0x20 DUP1 SWAP2 DIV MUL PUSH1 0x20 ADD PUSH1 0x40 MLOAD SWAP1 DUP2 ADD PUSH1 0x40 MSTORE DUP1 SWAP3 SWAP2 SWAP1 DUP2 DUP2 MSTORE PUSH1 0x20 ADD DUP3 DUP1 SLOAD PUSH2 0x564 SWAP1 PUSH2 0x17EA JUMP JUMPDEST DUP1 ISZERO PUSH2 0x5B1 JUMPI DUP1 PUSH1 0x1F LT PUSH2 0x586 JUMPI PUSH2 0x100 DUP1 DUP4 SLOAD DIV MUL DUP4 MSTORE SWAP2 PUSH1 0x20 ADD SWAP2 PUSH2 0x5B1 JUMP JUMPDEST DUP3 ADD SWAP2 SWAP1 PUSH1 0x0 MSTORE PUSH1 0x20 PUSH1 0x0 KECCAK256 SWAP1 JUMPDEST DUP2 SLOAD DUP2 MSTORE SWAP1 PUSH1 0x1 ADD SWAP1 PUSH1 0x20 ADD DUP1 DUP4 GT PUSH2 0x594 JUMPI DUP3 SWAP1 SUB PUSH1 0x1F AND DUP3 ADD SWAP2 JUMPDEST POP POP POP POP POP SWAP1 DUP1 PUSH1 0x1 ADD DUP1 SLOAD PUSH2 0x5C6 SWAP1 PUSH2 0x17EA JUMP JUMPDEST DUP1 PUSH1 0x1F ADD PUSH1 0x20 DUP1 SWAP2 DIV MUL PUSH1 0x20 ADD PUSH1 0x40 MLOAD SWAP1 DUP2 ADD PUSH1 0x40 MSTORE DUP1 SWAP3 SWAP2 SWAP1 DUP2 DUP2 MSTORE PUSH1 0x20 ADD DUP3 DUP1 SLOAD PUSH2 0x5F2 SWAP1 PUSH2 0x17EA JUMP JUMPDEST DUP1 ISZERO PUSH2 0x63F JUMPI DUP1 PUSH1 0x1F LT PUSH2 0x614 JUMPI PUSH2 0x100 DUP1 DUP4 SLOAD DIV MUL DUP4 MSTORE SWAP2 PUSH1 0x20 ADD SWAP2 PUSH2 0x63F JUMP JUMPDEST DUP3 ADD SWAP2 SWAP1 PUSH1 0x0 MSTORE PUSH1 0x20 PUSH1 0x0 KECCAK256 SWAP1 JUMPDEST DUP2 SLOAD DUP2 MSTORE SWAP1 PUSH1 0x1 ADD SWAP1 PUSH1 0x20 ADD DUP1 DUP4 GT PUSH2 0x622 JUMPI DUP3 SWAP1 SUB PUSH1 0x1F AND DUP3 ADD SWAP2 JUMPDEST POP POP POP POP POP SWAP1 DUP1 PUSH1 0x2 ADD DUP1 SLOAD PUSH2 0x654 SWAP1 PUSH2 0x17EA JUMP JUMPDEST DUP1 PUSH1 0x1F ADD PUSH1 0x20 DUP1 SWAP2 DIV MUL PUSH1 0x20 ADD PUSH1 0x40 MLOAD SWAP1 DUP2 ADD PUSH1 0x40 MSTORE DUP1 SWAP3 SWAP2 SWAP1 DUP2 DUP2 MSTORE PUSH1 0x20 ADD DUP3 DUP1 SLOAD PUSH2 0x680 SWAP1 PUSH2 0x17EA JUMP JUMPDEST DUP1 ISZERO PUSH2 0x6CD JUMPI DUP1 PUSH1 0x1F LT PUSH2 0x6A2 JUMPI PUSH2 0x100 DUP1 DUP4 SLOAD DIV MUL DUP4 MSTORE SWAP2 PUSH1 0x20 ADD SWAP2 PUSH2 0x6CD JUMP JUMPDEST DUP3 ADD SWAP2 SWAP1 PUSH1 0x0 MSTORE PUSH1 0x20 PUSH1 0x0 KECCAK256 SWAP1 JUMPDEST DUP2 SLOAD DUP2 MSTORE SWAP1 PUSH1 0x1 ADD SWAP1 PUSH1 0x20 ADD DUP1 DUP4 GT PUSH2 0x6B0 JUMPI DUP3 SWAP1 SUB PUSH1 0x1F AND DUP3 ADD SWAP2 JUMPDEST POP POP POP POP POP SWAP1 DUP1 PUSH1 0x3 ADD PUSH1 0x0 SWAP1 SLOAD SWAP1 PUSH2 0x100 EXP SWAP1 DIV PUSH1 0xFF AND SWAP1 POP DUP5 JUMP JUMPDEST PUSH1 0x0 DUP1 SLOAD SWAP1 PUSH2 0x100 EXP SWAP1 DIV PUSH20 0xFFFFFFFFFFFFFFFFFFFFFFFFFFFFFFFFFFFFFFFF AND PUSH20 0xFFFFFFFFFFFFFFFFFFFFFFFFFFFFFFFFFFFFFFFF AND CALLER PUSH20 0xFFFFFFFFFFFFFFFFFFFFFFFFFFFFFFFFFFFFFFFF AND EQ PUSH2 0x778 JUMPI PUSH1 0x40 MLOAD PUSH32 0x8C379A000000000000000000000000000000000000000000000000000000000 DUP2 MSTORE PUSH1 0x4 ADD PUSH2 0x76F SWAP1 PUSH2 0x1533 JUMP JUMPDEST PUSH1 0x40 MLOAD DUP1 SWAP2 SUB SWAP1 REVERT JUMPDEST PUSH1 0x0 DUP4 MLOAD GT PUSH2 0x7BC JUMPI PUSH1 0x40 MLOAD PUSH32 0x8C379A000000000000000000000000000000000000000000000000000000000 DUP2 MSTORE PUSH1 0x4 ADD PUSH2 0x7B3 SWAP1 PUSH2 0x160B JUMP JUMPDEST PUSH1 0x40 MLOAD DUP1 SWAP2 SUB SWAP1 REVERT JUMPDEST PUSH1 0x0 DUP3 MLOAD GT PUSH2 0x800 JUMPI PUSH1 0x40 MLOAD PUSH32 0x8C379A000000000000000000000000000000000000000000000000000000000 DUP2 MSTORE PUSH1 0x4 ADD PUSH2 0x7F7 SWAP1 PUSH2 0x1677 JUMP JUMPDEST PUSH1 0x40 MLOAD DUP1 SWAP2 SUB SWAP1 REVERT JUMPDEST PUSH1 0x0 DUP2 MLOAD GT PUSH2 0x844 JUMPI PUSH1 0x40 MLOAD PUSH32 0x8C379A000000000000000000000000000000000000000000000000000000000 DUP2 MSTORE PUSH1 0x4 ADD PUSH2 0x83B SWAP1 PUSH2 0x16E3 JUMP JUMPDEST PUSH1 0x40 MLOAD DUP1 SWAP2 SUB SWAP1 REVERT JUMPDEST PUSH1 0x0 PUSH1 0x3 DUP3 PUSH1 0x40 MLOAD PUSH2 0x856 SWAP2 SWAP1 PUSH2 0x14AA JUMP JUMPDEST SWAP1 DUP2 MSTORE PUSH1 0x20 ADD PUSH1 0x40 MLOAD DUP1 SWAP2 SUB SWAP1 KECCAK256 SLOAD EQ PUSH2 0x8A5 JUMPI PUSH1 0x40 MLOAD PUSH32 0x8C379A000000000000000000000000000000000000000000000000000000000 DUP2 MSTORE PUSH1 0x4 ADD PUSH2 0x89C SWAP1 PUSH2 0x174F JUMP JUMPDEST PUSH1 0x40 MLOAD DUP1 SWAP2 SUB SWAP1 REVERT JUMPDEST PUSH1 0x0 PUSH1 0x1 SLOAD SWAP1 POP PUSH1 0x40 MLOAD DUP1 PUSH1 0x80 ADD PUSH1 0x40 MSTORE DUP1 DUP6 DUP2 MSTORE PUSH1 0x20 ADD DUP5 DUP2 MSTORE PUSH1 0x20 ADD DUP4 DUP2 MSTORE PUSH1 0x20 ADD PUSH1 0x1 ISZERO ISZERO DUP2 MSTORE POP PUSH1 0x2 PUSH1 0x0 DUP4 DUP2 MSTORE PUSH1 0x20 ADD SWAP1 DUP2 MSTORE PUSH1 0x20 ADD PUSH1 0x0 KECCAK256 PUSH1 0x0 DUP3 ADD MLOAD DUP2 PUSH1 0x0 ADD SWAP1 DUP1 MLOAD SWAP1 PUSH1 0x20 ADD SWAP1 PUSH2 0x8FF SWAP3 SWAP2 SWAP1 PUSH2 0xEA0 JUMP JUMPDEST POP PUSH1 0x20 DUP3 ADD MLOAD DUP2 PUSH1 0x1 ADD SWAP1 DUP1 MLOAD SWAP1 PUSH1 0x20 ADD SWAP1 PUSH2 0x91C SWAP3 SWAP2 SWAP1 PUSH2 0xEA0 JUMP JUMPDEST POP PUSH1 0x40 DUP3 ADD MLOAD DUP2 PUSH1 0x2 ADD SWAP1 DUP1 MLOAD SWAP1 PUSH1 0x20 ADD SWAP1 PUSH2 0x939 SWAP3 SWAP2 SWAP1 PUSH2 0xEA0 JUMP JUMPDEST POP PUSH1 0x60 DUP3 ADD MLOAD DUP2 PUSH1 0x3 ADD PUSH1 0x0 PUSH2 0x100 EXP DUP2 SLOAD DUP2 PUSH1 0xFF MUL NOT AND SWAP1 DUP4 ISZERO ISZERO MUL OR SWAP1 SSTORE POP SWAP1 POP POP DUP1 PUSH1 0x3 DUP4 PUSH1 0x40 MLOAD PUSH2 0x96E SWAP2 SWAP1 PUSH2 0x14AA JUMP JUMPDEST SWAP1 DUP2 MSTORE PUSH1 0x20 ADD PUSH1 0x40 MLOAD DUP1 SWAP2 SUB SWAP1 KECCAK256 DUP2 SWAP1 SSTORE POP PUSH1 0x1 PUSH1 0x0 DUP2 SLOAD DUP1 SWAP3 SWAP2 SWAP1 PUSH2 0x993 SWAP1 PUSH2 0x184A JUMP JUMPDEST SWAP2 SWAP1 POP SSTORE POP DUP1 PUSH32 0x16B1DB40DBF86A945842A8B64A0F1246F7549BB3FBB390B716CD12C74C888CC4 DUP6 DUP6 DUP6 PUSH1 0x40 MLOAD PUSH2 0x9CC SWAP4 SWAP3 SWAP2 SWAP1 PUSH2 0x176F JUMP JUMPDEST PUSH1 0x40 MLOAD DUP1 SWAP2 SUB SWAP1 LOG2 POP POP POP POP JUMP JUMPDEST PUSH1 0x1 SLOAD DUP2 LT PUSH2 0xA1E JUMPI PUSH1 0x40 MLOAD PUSH32 0x8C379A000000000000000000000000000000000000000000000000000000000 DUP2 MSTORE PUSH1 0x4 ADD PUSH2 0xA15 SWAP1 PUSH2 0x159F JUMP JUMPDEST PUSH1 0x40 MLOAD DUP1 SWAP2 SUB SWAP1 REVERT JUMPDEST PUSH1 0x0 PUSH1 0x2 PUSH1 0x0 DUP4 DUP2 MSTORE PUSH1 0x20 ADD SWAP1 DUP2 MSTORE PUSH1 0x20 ADD PUSH1 0x0 KECCAK256 SWAP1 POP DUP1 PUSH1 0x3 ADD PUSH1 0x0 SWAP1 SLOAD SWAP1 PUSH2 0x100 EXP SWAP1 DIV PUSH1 0xFF AND PUSH2 0xA86 JUMPI PUSH1 0x40 MLOAD PUSH32 0x8C379A000000000000000000000000000000000000000000000000000000000 DUP2 MSTORE PUSH1 0x4 ADD PUSH2 0xA7D SWAP1 PUSH2 0x1904 JUMP JUMPDEST PUSH1 0x40 MLOAD DUP1 SWAP2 SUB SWAP1 REVERT JUMPDEST PUSH1 0x0 DUP2 PUSH1 0x3 ADD PUSH1 0x0 PUSH2 0x100 EXP DUP2 SLOAD DUP2 PUSH1 0xFF MUL NOT AND SWAP1 DUP4 ISZERO ISZERO MUL OR SWAP1 SSTORE POP DUP2 PUSH32 0x7A6277620702967BFA65133A9521F449D456F9BA720F869A5E96C44D9321E8F1 PUSH1 0x40 MLOAD PUSH1 0x40 MLOAD DUP1 SWAP2 SUB SWAP1 LOG2 POP POP JUMP JUMPDEST PUSH1 0x3 DUP2 DUP1 MLOAD PUSH1 0x20 DUP2 ADD DUP3 ADD DUP1 MLOAD DUP5 DUP3 MSTORE PUSH1 0x20 DUP4 ADD PUSH1 0x20 DUP6 ADD KECCAK256 DUP2 DUP4 MSTORE DUP1 SWAP6 POP POP POP POP POP POP PUSH1 0x0 SWAP2 POP SWAP1 POP SLOAD DUP2 JUMP JUMPDEST PUSH1 0x1 SLOAD DUP2 JUMP JUMPDEST PUSH1 0x0 DUP1 SLOAD SWAP1 PUSH2 0x100 EXP SWAP1 DIV PUSH20 0xFFFFFFFFFFFFFFFFFFFFFFFFFFFFFFFFFFFFFFFF AND PUSH20 0xFFFFFFFFFFFFFFFFFFFFFFFFFFFFFFFFFFFFFFFF AND CALLER PUSH20 0xFFFFFFFFFFFFFFFFFFFFFFFFFFFFFFFFFFFFFFFF AND EQ PUSH2 0xB96 JUMPI PUSH1 0x40 MLOAD PUSH32 0x8C379A000000000000000000000000000000000000000000000000000000000 DUP2 MSTORE PUSH1 0x4 ADD PUSH2 0xB8D SWAP1 PUSH2 0x1533 JUMP JUMPDEST PUSH1 0x40 MLOAD DUP1 SWAP2 SUB SWAP1 REVERT JUMPDEST PUSH1 0x1 SLOAD DUP2 LT PUSH2 0xBDA JUMPI PUSH1 0x40 MLOAD PUSH32 0x8C379A000000000000000000000000000000000000000000000000000000000 DUP2 MSTORE PUSH1 0x4 ADD PUSH2 0xBD1 SWAP1 PUSH2 0x159F JUMP JUMPDEST PUSH1 0x40 MLOAD DUP1 SWAP2 SUB SWAP1 REVERT JUMPDEST PUSH1 0x0 PUSH1 0x2 PUSH1 0x0 DUP4 DUP2 MSTORE PUSH1 0x20 ADD SWAP1 DUP2 MSTORE PUSH1 0x20 ADD PUSH1 0x0 KECCAK256 SWAP1 POP DUP1 PUSH1 0x3 ADD PUSH1 0x0 SWAP1 SLOAD SWAP1 PUSH2 0x100 EXP SWAP1 DIV PUSH1 0xFF AND PUSH2 0xC42 JUMPI PUSH1 0x40 MLOAD PUSH32 0x8C379A000000000000000000000000000000000000000000000000000000000 DUP2 MSTORE PUSH1 0x4 ADD PUSH2 0xC39 SWAP1 PUSH2 0x1970 JUMP JUMPDEST PUSH1 0x40 MLOAD DUP1 SWAP2 SUB SWAP1 REVERT JUMPDEST PUSH1 0x0 DUP2 PUSH1 0x2 ADD DUP1 SLOAD PUSH2 0xC53 SWAP1 PUSH2 0x17EA JUMP JUMPDEST DUP1 PUSH1 0x1F ADD PUSH1 0x20 DUP1 SWAP2 DIV MUL PUSH1 0x20 ADD PUSH1 0x40 MLOAD SWAP1 DUP2 ADD PUSH1 0x40 MSTORE DUP1 SWAP3 SWAP2 SWAP1 DUP2 DUP2 MSTORE PUSH1 0x20 ADD DUP3 DUP1 SLOAD PUSH2 0xC7F SWAP1 PUSH2 0x17EA JUMP JUMPDEST DUP1 ISZERO PUSH2 0xCCC JUMPI DUP1 PUSH1 0x1F LT PUSH2 0xCA1 JUMPI PUSH2 0x100 DUP1 DUP4 SLOAD DIV MUL DUP4 MSTORE SWAP2 PUSH1 0x20 ADD SWAP2 PUSH2 0xCCC JUMP JUMPDEST DUP3 ADD SWAP2 SWAP1 PUSH1 0x0 MSTORE PUSH1 0x20 PUSH1 0x0 KECCAK256 SWAP1 JUMPDEST DUP2 SLOAD DUP2 MSTORE SWAP1 PUSH1 0x1 ADD SWAP1 PUSH1 0x20 ADD DUP1 DUP4 GT PUSH2 0xCAF JUMPI DUP3 SWAP1 SUB PUSH1 0x1F AND DUP3 ADD SWAP2 JUMPDEST POP POP POP POP POP SWAP1 POP PUSH1 0x2 PUSH1 0x0 DUP5 DUP2 MSTORE PUSH1 0x20 ADD SWAP1 DUP2 MSTORE PUSH1 0x20 ADD PUSH1 0x0 KECCAK256 PUSH1 0x0 DUP1 DUP3 ADD PUSH1 0x0 PUSH2 0xCF7 SWAP2 SWAP1 PUSH2 0xF26 JUMP JUMPDEST PUSH1 0x1 DUP3 ADD PUSH1 0x0 PUSH2 0xD07 SWAP2 SWAP1 PUSH2 0xF26 JUMP JUMPDEST PUSH1 0x2 DUP3 ADD PUSH1 0x0 PUSH2 0xD17 SWAP2 SWAP1 PUSH2 0xF26 JUMP JUMPDEST PUSH1 0x3 DUP3 ADD PUSH1 0x0 PUSH2 0x100 EXP DUP2 SLOAD SWAP1 PUSH1 0xFF MUL NOT AND SWAP1 SSTORE POP POP PUSH1 0x3 DUP2 PUSH1 0x40 MLOAD PUSH2 0xD3D SWAP2 SWAP1 PUSH2 0x14AA JUMP JUMPDEST SWAP1 DUP2 MSTORE PUSH1 0x20 ADD PUSH1 0x40 MLOAD DUP1 SWAP2 SUB SWAP1 KECCAK256 PUSH1 0x0 SWAP1 SSTORE DUP3 PUSH32 0x3C5CE13264433BCF97E5D53C97AF4FC33800E8C9DD927F965B116D0018D7CDDF PUSH1 0x40 MLOAD PUSH1 0x40 MLOAD DUP1 SWAP2 SUB SWAP1 LOG2 POP POP POP JUMP JUMPDEST PUSH1 0x1 SLOAD DUP2 LT PUSH2 0xDC5 JUMPI PUSH1 0x40 MLOAD PUSH32 0x8C379A000000000000000000000000000000000000000000000000000000000 DUP2 MSTORE PUSH1 0x4 ADD PUSH2 0xDBC SWAP1 PUSH2 0x159F JUMP JUMPDEST PUSH1 0x40 MLOAD DUP1 SWAP2 SUB SWAP1 REVERT JUMPDEST PUSH1 0x0 PUSH1 0x2 PUSH1 0x0 DUP4 DUP2 MSTORE PUSH1 0x20 ADD SWAP1 DUP2 MSTORE PUSH1 0x20 ADD PUSH1 0x0 KECCAK256 SWAP1 POP DUP1 PUSH1 0x3 ADD PUSH1 0x0 SWAP1 SLOAD SWAP1 PUSH2 0x100 EXP SWAP1 DIV PUSH1 0xFF AND ISZERO PUSH2 0xE2E JUMPI PUSH1 0x40 MLOAD PUSH32 0x8C379A000000000000000000000000000000000000000000000000000000000 DUP2 MSTORE PUSH1 0x4 ADD PUSH2 0xE25 SWAP1 PUSH2 0x19DC JUMP JUMPDEST PUSH1 0x40 MLOAD DUP1 SWAP2 SUB SWAP1 REVERT JUMPDEST PUSH1 0x1 DUP2 PUSH1 0x3 ADD PUSH1 0x0 PUSH2 0x100 EXP DUP2 SLOAD DUP2 PUSH1 0xFF MUL NOT AND SWAP1 DUP4 ISZERO ISZERO MUL OR SWAP1 SSTORE POP DUP2 PUSH32 0x70495D83BA5BA5C54086A9955A8C68FA91F4439242054FBE5A64B3D553006917 PUSH1 0x40 MLOAD PUSH1 0x40 MLOAD DUP1 SWAP2 SUB SWAP1 LOG2 POP POP JUMP JUMPDEST PUSH1 0x0 DUP1 SLOAD SWAP1 PUSH2 0x100 EXP SWAP1 DIV PUSH20 0xFFFFFFFFFFFFFFFFFFFFFFFFFFFFFFFFFFFFFFFF AND DUP2 JUMP JUMPDEST DUP3 DUP1 SLOAD PUSH2 0xEAC SWAP1 PUSH2 0x17EA JUMP JUMPDEST SWAP1 PUSH1 0x0 MSTORE PUSH1 0x20 PUSH1 0x0 KECCAK256 SWAP1 PUSH1 0x1F ADD PUSH1 0x20 SWAP1 DIV DUP2 ADD SWAP3 DUP3 PUSH2 0xECE JUMPI PUSH1 0x0 DUP6 SSTORE PUSH2 0xF15 JUMP JUMPDEST DUP3 PUSH1 0x1F LT PUSH2 0xEE7 JUMPI DUP1 MLOAD PUSH1 0xFF NOT AND DUP4 DUP1 ADD OR DUP6 SSTORE PUSH2 0xF15 JUMP JUMPDEST DUP3 DUP1 ADD PUSH1 0x1 ADD DUP6 SSTORE DUP3 ISZERO PUSH2 0xF15 JUMPI SWAP2 DUP3 ADD JUMPDEST DUP3 DUP2 GT ISZERO PUSH2 0xF14 JUMPI DUP3 MLOAD DUP3 SSTORE SWAP2 PUSH1 0x20 ADD SWAP2 SWAP1 PUSH1 0x1 ADD SWAP1 PUSH2 0xEF9 JUMP JUMPDEST JUMPDEST POP SWAP1 POP PUSH2 0xF22 SWAP2 SWAP1 PUSH2 0xF66 JUMP JUMPDEST POP SWAP1 JUMP JUMPDEST POP DUP1 SLOAD PUSH2 0xF32 SWAP1 PUSH2 0x17EA JUMP JUMPDEST PUSH1 0x0 DUP3 SSTORE DUP1 PUSH1 0x1F LT PUSH2 0xF44 JUMPI POP PUSH2 0xF63 JUMP JUMPDEST PUSH1 0x1F ADD PUSH1 0x20 SWAP1 DIV SWAP1 PUSH1 0x0 MSTORE PUSH1 0x20 PUSH1 0x0 KECCAK256 SWAP1 DUP2 ADD SWAP1 PUSH2 0xF62 SWAP2 SWAP1 PUSH2 0xF66 JUMP JUMPDEST JUMPDEST POP JUMP JUMPDEST JUMPDEST DUP1 DUP3 GT ISZERO PUSH2 0xF7F JUMPI PUSH1 0x0 DUP2 PUSH1 0x0 SWAP1 SSTORE POP PUSH1 0x1 ADD PUSH2 0xF67 JUMP JUMPDEST POP SWAP1 JUMP JUMPDEST PUSH1 0x0 PUSH1 0x40 MLOAD SWAP1 POP SWAP1 JUMP JUMPDEST PUSH1 0x0 DUP1 REVERT JUMPDEST PUSH1 0x0 DUP1 REVERT JUMPDEST PUSH1 0x0 DUP1 REVERT JUMPDEST PUSH1 0x0 DUP1 REVERT JUMPDEST PUSH1 0x0 PUSH1 0x1F NOT PUSH1 0x1F DUP4 ADD AND SWAP1 POP SWAP2 SWAP1 POP JUMP JUMPDEST PUSH32 0x4E487B7100000000000000000000000000000000000000000000000000000000 PUSH1 0x0 MSTORE PUSH1 0x41 PUSH1 0x4 MSTORE PUSH1 0x24 PUSH1 0x0 REVERT JUMPDEST PUSH2 0xFEA DUP3 PUSH2 0xFA1 JUMP JUMPDEST DUP2 ADD DUP2 DUP2 LT PUSH8 0xFFFFFFFFFFFFFFFF DUP3 GT OR ISZERO PUSH2 0x1009 JUMPI PUSH2 0x1008 PUSH2 0xFB2 JUMP JUMPDEST JUMPDEST DUP1 PUSH1 0x40 MSTORE POP POP POP JUMP JUMPDEST PUSH1 0x0 PUSH2 0x101C PUSH2 0xF83 JUMP JUMPDEST SWAP1 POP PUSH2 0x1028 DUP3 DUP3 PUSH2 0xFE1 JUMP JUMPDEST SWAP2 SWAP1 POP JUMP JUMPDEST PUSH1 0x0 PUSH8 0xFFFFFFFFFFFFFFFF DUP3 GT ISZERO PUSH2 0x1048 JUMPI PUSH2 0x1047 PUSH2 0xFB2 JUMP JUMPDEST JUMPDEST PUSH2 0x1051 DUP3 PUSH2 0xFA1 JUMP JUMPDEST SWAP1 POP PUSH1 0x20 DUP2 ADD SWAP1 POP SWAP2 SWAP1 POP JUMP JUMPDEST DUP3 DUP2 DUP4 CALLDATACOPY PUSH1 0x0 DUP4 DUP4 ADD MSTORE POP POP POP JUMP JUMPDEST PUSH1 0x0 PUSH2 0x1080 PUSH2 0x107B DUP5 PUSH2 0x102D JUMP JUMPDEST PUSH2 0x1012 JUMP JUMPDEST SWAP1 POP DUP3 DUP2 MSTORE PUSH1 0x20 DUP2 ADD DUP5 DUP5 DUP5 ADD GT ISZERO PUSH2 0x109C JUMPI PUSH2 0x109B PUSH2 0xF9C JUMP JUMPDEST JUMPDEST PUSH2 0x10A7 DUP5 DUP3 DUP6 PUSH2 0x105E JUMP JUMPDEST POP SWAP4 SWAP3 POP POP POP JUMP JUMPDEST PUSH1 0x0 DUP3 PUSH1 0x1F DUP4 ADD SLT PUSH2 0x10C4 JUMPI PUSH2 0x10C3 PUSH2 0xF97 JUMP JUMPDEST JUMPDEST DUP2 CALLDATALOAD PUSH2 0x10D4 DUP5 DUP3 PUSH1 0x20 DUP7 ADD PUSH2 0x106D JUMP JUMPDEST SWAP2 POP POP SWAP3 SWAP2 POP POP JUMP JUMPDEST PUSH1 0x0 PUSH1 0x20 DUP3 DUP5 SUB SLT ISZERO PUSH2 0x10F3 JUMPI PUSH2 0x10F2 PUSH2 0xF8D JUMP JUMPDEST JUMPDEST PUSH1 0x0 DUP3 ADD CALLDATALOAD PUSH8 0xFFFFFFFFFFFFFFFF DUP2 GT ISZERO PUSH2 0x1111 JUMPI PUSH2 0x1110 PUSH2 0xF92 JUMP JUMPDEST JUMPDEST PUSH2 0x111D DUP5 DUP3 DUP6 ADD PUSH2 0x10AF JUMP JUMPDEST SWAP2 POP POP SWAP3 SWAP2 POP POP JUMP JUMPDEST PUSH1 0x0 DUP2 SWAP1 POP SWAP2 SWAP1 POP JUMP JUMPDEST PUSH2 0x1139 DUP2 PUSH2 0x1126 JUMP JUMPDEST DUP3 MSTORE POP POP JUMP JUMPDEST PUSH1 0x0 PUSH1 0x20 DUP3 ADD SWAP1 POP PUSH2 0x1154 PUSH1 0x0 DUP4 ADD DUP5 PUSH2 0x1130 JUMP JUMPDEST SWAP3 SWAP2 POP POP JUMP JUMPDEST PUSH2 0x1163 DUP2 PUSH2 0x1126 JUMP JUMPDEST DUP2 EQ PUSH2 0x116E JUMPI PUSH1 0x0 DUP1 REVERT JUMPDEST POP JUMP JUMPDEST PUSH1 0x0 DUP2 CALLDATALOAD SWAP1 POP PUSH2 0x1180 DUP2 PUSH2 0x115A JUMP JUMPDEST SWAP3 SWAP2 POP POP JUMP JUMPDEST PUSH1 0x0 DUP1 PUSH1 0x0 DUP1 PUSH1 0x80 DUP6 DUP8 SUB SLT ISZERO PUSH2 0x11A0 JUMPI PUSH2 0x119F PUSH2 0xF8D JUMP JUMPDEST JUMPDEST PUSH1 0x0 PUSH2 0x11AE DUP8 DUP3 DUP9 ADD PUSH2 0x1171 JUMP JUMPDEST SWAP5 POP POP PUSH1 0x20 DUP6 ADD CALLDATALOAD PUSH8 0xFFFFFFFFFFFFFFFF DUP2 GT ISZERO PUSH2 0x11CF JUMPI PUSH2 0x11CE PUSH2 0xF92 JUMP JUMPDEST JUMPDEST PUSH2 0x11DB DUP8 DUP3 DUP9 ADD PUSH2 0x10AF JUMP JUMPDEST SWAP4 POP POP PUSH1 0x40 DUP6 ADD CALLDATALOAD PUSH8 0xFFFFFFFFFFFFFFFF DUP2 GT ISZERO PUSH2 0x11FC JUMPI PUSH2 0x11FB PUSH2 0xF92 JUMP JUMPDEST JUMPDEST PUSH2 0x1208 DUP8 DUP3 DUP9 ADD PUSH2 0x10AF JUMP JUMPDEST SWAP3 POP POP PUSH1 0x60 DUP6 ADD CALLDATALOAD PUSH8 0xFFFFFFFFFFFFFFFF DUP2 GT ISZERO PUSH2 0x1229 JUMPI PUSH2 0x1228 PUSH2 0xF92 JUMP JUMPDEST JUMPDEST PUSH2 0x1235 DUP8 DUP3 DUP9 ADD PUSH2 0x10AF JUMP JUMPDEST SWAP2 POP POP SWAP3 SWAP6 SWAP2 SWAP5 POP SWAP3 POP JUMP JUMPDEST PUSH1 0x0 PUSH1 0x20 DUP3 DUP5 SUB SLT ISZERO PUSH2 0x1257 JUMPI PUSH2 0x1256 PUSH2 0xF8D JUMP JUMPDEST JUMPDEST PUSH1 0x0 PUSH2 0x1265 DUP5 DUP3 DUP6 ADD PUSH2 0x1171 JUMP JUMPDEST SWAP2 POP POP SWAP3 SWAP2 POP POP JUMP JUMPDEST PUSH1 0x0 DUP2 MLOAD SWAP1 POP SWAP2 SWAP1 POP JUMP JUMPDEST PUSH1 0x0 DUP3 DUP3 MSTORE PUSH1 0x20 DUP3 ADD SWAP1 POP SWAP3 SWAP2 POP POP JUMP JUMPDEST PUSH1 0x0 JUMPDEST DUP4 DUP2 LT ISZERO PUSH2 0x12A8 JUMPI DUP1 DUP3 ADD MLOAD DUP2 DUP5 ADD MSTORE PUSH1 0x20 DUP2 ADD SWAP1 POP PUSH2 0x128D JUMP JUMPDEST DUP4 DUP2 GT ISZERO PUSH2 0x12B7 JUMPI PUSH1 0x0 DUP5 DUP5 ADD MSTORE JUMPDEST POP POP POP POP JUMP JUMPDEST PUSH1 0x0 PUSH2 0x12C8 DUP3 PUSH2 0x126E JUMP JUMPDEST PUSH2 0x12D2 DUP2 DUP6 PUSH2 0x1279 JUMP JUMPDEST SWAP4 POP PUSH2 0x12E2 DUP2 DUP6 PUSH1 0x20 DUP7 ADD PUSH2 0x128A JUMP JUMPDEST PUSH2 0x12EB DUP2 PUSH2 0xFA1 JUMP JUMPDEST DUP5 ADD SWAP2 POP POP SWAP3 SWAP2 POP POP JUMP JUMPDEST PUSH1 0x0 DUP2 ISZERO ISZERO SWAP1 POP SWAP2 SWAP1 POP JUMP JUMPDEST PUSH2 0x130B DUP2 PUSH2 0x12F6 JUMP JUMPDEST DUP3 MSTORE POP POP JUMP JUMPDEST PUSH1 0x0 PUSH1 0x80 DUP3 ADD SWAP1 POP DUP2 DUP2 SUB PUSH1 0x0 DUP4 ADD MSTORE PUSH2 0x132B DUP2 DUP8 PUSH2 0x12BD JUMP JUMPDEST SWAP1 POP DUP2 DUP2 SUB PUSH1 0x20 DUP4 ADD MSTORE PUSH2 0x133F DUP2 DUP7 PUSH2 0x12BD JUMP JUMPDEST SWAP1 POP DUP2 DUP2 SUB PUSH1 0x40 DUP4 ADD MSTORE PUSH2 0x1353 DUP2 DUP6 PUSH2 0x12BD JUMP JUMPDEST SWAP1 POP PUSH2 0x1362 PUSH1 0x60 DUP4 ADD DUP5 PUSH2 0x1302 JUMP JUMPDEST SWAP6 SWAP5 POP POP POP POP POP JUMP JUMPDEST PUSH1 0x0 DUP1 PUSH1 0x0 PUSH1 0x60 DUP5 DUP7 SUB SLT ISZERO PUSH2 0x1384 JUMPI PUSH2 0x1383 PUSH2 0xF8D JUMP JUMPDEST JUMPDEST PUSH1 0x0 DUP5 ADD CALLDATALOAD PUSH8 0xFFFFFFFFFFFFFFFF DUP2 GT ISZERO PUSH2 0x13A2 JUMPI PUSH2 0x13A1 PUSH2 0xF92 JUMP JUMPDEST JUMPDEST PUSH2 0x13AE DUP7 DUP3 DUP8 ADD PUSH2 0x10AF JUMP JUMPDEST SWAP4 POP POP PUSH1 0x20 DUP5 ADD CALLDATALOAD PUSH8 0xFFFFFFFFFFFFFFFF DUP2 GT ISZERO PUSH2 0x13CF JUMPI PUSH2 0x13CE PUSH2 0xF92 JUMP JUMPDEST JUMPDEST PUSH2 0x13DB DUP7 DUP3 DUP8 ADD PUSH2 0x10AF JUMP JUMPDEST SWAP3 POP POP PUSH1 0x40 DUP5 ADD CALLDATALOAD PUSH8 0xFFFFFFFFFFFFFFFF DUP2 GT ISZERO PUSH2 0x13FC JUMPI PUSH2 0x13FB PUSH2 0xF92 JUMP JUMPDEST JUMPDEST PUSH2 0x1408 DUP7 DUP3 DUP8 ADD PUSH2 0x10AF JUMP JUMPDEST SWAP2 POP POP SWAP3 POP SWAP3 POP SWAP3 JUMP JUMPDEST PUSH1 0x0 PUSH20 0xFFFFFFFFFFFFFFFFFFFFFFFFFFFFFFFFFFFFFFFF DUP3 AND SWAP1 POP SWAP2 SWAP1 POP JUMP JUMPDEST PUSH1 0x0 PUSH2 0x143D DUP3 PUSH2 0x1412 JUMP JUMPDEST SWAP1 POP SWAP2 SWAP1 POP JUMP JUMPDEST PUSH2 0x144D DUP2 PUSH2 0x1432 JUMP JUMPDEST DUP3 MSTORE POP POP JUMP JUMPDEST PUSH1 0x0 PUSH1 0x20 DUP3 ADD SWAP1 POP PUSH2 0x1468 PUSH1 0x0 DUP4 ADD DUP5 PUSH2 0x1444 JUMP JUMPDEST SWAP3 SWAP2 POP POP JUMP JUMPDEST PUSH1 0x0 DUP2 SWAP1 POP SWAP3 SWAP2 POP POP JUMP JUMPDEST PUSH1 0x0 PUSH2 0x1484 DUP3 PUSH2 0x126E JUMP JUMPDEST PUSH2 0x148E DUP2 DUP6 PUSH2 0x146E JUMP JUMPDEST SWAP4 POP PUSH2 0x149E DUP2 DUP6 PUSH1 0x20 DUP7 ADD PUSH2 0x128A JUMP JUMPDEST DUP1 DUP5 ADD SWAP2 POP POP SWAP3 SWAP2 POP POP JUMP JUMPDEST PUSH1 0x0 PUSH2 0x14B6 DUP3 DUP5 PUSH2 0x1479 JUMP JUMPDEST SWAP2 POP DUP2 SWAP1 POP SWAP3 SWAP2 POP POP JUMP JUMPDEST PUSH32 0x4F6E6C79207468652041646D696E2063616E2063616C6C20746869732066756E PUSH1 0x0 DUP3 ADD MSTORE PUSH32 0x6374696F6E000000000000000000000000000000000000000000000000000000 PUSH1 0x20 DUP3 ADD MSTORE POP JUMP JUMPDEST PUSH1 0x0 PUSH2 0x151D PUSH1 0x25 DUP4 PUSH2 0x1279 JUMP JUMPDEST SWAP2 POP PUSH2 0x1528 DUP3 PUSH2 0x14C1 JUMP JUMPDEST PUSH1 0x40 DUP3 ADD SWAP1 POP SWAP2 SWAP1 POP JUMP JUMPDEST PUSH1 0x0 PUSH1 0x20 DUP3 ADD SWAP1 POP DUP2 DUP2 SUB PUSH1 0x0 DUP4 ADD MSTORE PUSH2 0x154C DUP2 PUSH2 0x1510 JUMP JUMPDEST SWAP1 POP SWAP2 SWAP1 POP JUMP JUMPDEST PUSH32 0x496E76616C696420626F6F6B2049440000000000000000000000000000000000 PUSH1 0x0 DUP3 ADD MSTORE POP JUMP JUMPDEST PUSH1 0x0 PUSH2 0x1589 PUSH1 0xF DUP4 PUSH2 0x1279 JUMP JUMPDEST SWAP2 POP PUSH2 0x1594 DUP3 PUSH2 0x1553 JUMP JUMPDEST PUSH1 0x20 DUP3 ADD SWAP1 POP SWAP2 SWAP1 POP JUMP JUMPDEST PUSH1 0x0 PUSH1 0x20 DUP3 ADD SWAP1 POP DUP2 DUP2 SUB PUSH1 0x0 DUP4 ADD MSTORE PUSH2 0x15B8 DUP2 PUSH2 0x157C JUMP JUMPDEST SWAP1 POP SWAP2 SWAP1 POP JUMP JUMPDEST PUSH32 0x5469746C652063616E6E6F7420626520656D7074790000000000000000000000 PUSH1 0x0 DUP3 ADD MSTORE POP JUMP JUMPDEST PUSH1 0x0 PUSH2 0x15F5 PUSH1 0x15 DUP4 PUSH2 0x1279 JUMP JUMPDEST SWAP2 POP PUSH2 0x1600 DUP3 PUSH2 0x15BF JUMP JUMPDEST PUSH1 0x20 DUP3 ADD SWAP1 POP SWAP2 SWAP1 POP JUMP JUMPDEST PUSH1 0x0 PUSH1 0x20 DUP3 ADD SWAP1 POP DUP2 DUP2 SUB PUSH1 0x0 DUP4 ADD MSTORE PUSH2 0x1624 DUP2 PUSH2 0x15E8 JUMP JUMPDEST SWAP1 POP SWAP2 SWAP1 POP JUMP JUMPDEST PUSH32 0x417574686F722063616E6E6F7420626520656D70747900000000000000000000 PUSH1 0x0 DUP3 ADD MSTORE POP JUMP JUMPDEST PUSH1 0x0 PUSH2 0x1661 PUSH1 0x16 DUP4 PUSH2 0x1279 JUMP JUMPDEST SWAP2 POP PUSH2 0x166C DUP3 PUSH2 0x162B JUMP JUMPDEST PUSH1 0x20 DUP3 ADD SWAP1 POP SWAP2 SWAP1 POP JUMP JUMPDEST PUSH1 0x0 PUSH1 0x20 DUP3 ADD SWAP1 POP DUP2 DUP2 SUB PUSH1 0x0 DUP4 ADD MSTORE PUSH2 0x1690 DUP2 PUSH2 0x1654 JUMP JUMPDEST SWAP1 POP SWAP2 SWAP1 POP JUMP JUMPDEST PUSH32 0x4953424E2063616E6E6F7420626520656D707479000000000000000000000000 PUSH1 0x0 DUP3 ADD MSTORE POP JUMP JUMPDEST PUSH1 0x0 PUSH2 0x16CD PUSH1 0x14 DUP4 PUSH2 0x1279 JUMP JUMPDEST SWAP2 POP PUSH2 0x16D8 DUP3 PUSH2 0x1697 JUMP JUMPDEST PUSH1 0x20 DUP3 ADD SWAP1 POP SWAP2 SWAP1 POP JUMP JUMPDEST PUSH1 0x0 PUSH1 0x20 DUP3 ADD SWAP1 POP DUP2 DUP2 SUB PUSH1 0x0 DUP4 ADD MSTORE PUSH2 0x16FC DUP2 PUSH2 0x16C0 JUMP JUMPDEST SWAP1 POP SWAP2 SWAP1 POP JUMP JUMPDEST PUSH32 0x4953424E20616C72656164792065786973747300000000000000000000000000 PUSH1 0x0 DUP3 ADD MSTORE POP JUMP JUMPDEST PUSH1 0x0 PUSH2 0x1739 PUSH1 0x13 DUP4 PUSH2 0x1279 JUMP JUMPDEST SWAP2 POP PUSH2 0x1744 DUP3 PUSH2 0x1703 JUMP JUMPDEST PUSH1 0x20 DUP3 ADD SWAP1 POP SWAP2 SWAP1 POP JUMP JUMPDEST PUSH1 0x0 PUSH1 0x20 DUP3 ADD SWAP1 POP DUP2 DUP2 SUB PUSH1 0x0 DUP4 ADD MSTORE PUSH2 0x1768 DUP2 PUSH2 0x172C JUMP JUMPDEST SWAP1 POP SWAP2 SWAP1 POP JUMP JUMPDEST PUSH1 0x0 PUSH1 0x60 DUP3 ADD SWAP1 POP DUP2 DUP2 SUB PUSH1 0x0 DUP4 ADD MSTORE PUSH2 0x1789 DUP2 DUP7 PUSH2 0x12BD JUMP JUMPDEST SWAP1 POP DUP2 DUP2 SUB PUSH1 0x20 DUP4 ADD MSTORE PUSH2 0x179D DUP2 DUP6 PUSH2 0x12BD JUMP JUMPDEST SWAP1 POP DUP2 DUP2 SUB PUSH1 0x40 DUP4 ADD MSTORE PUSH2 0x17B1 DUP2 DUP5 PUSH2 0x12BD JUMP JUMPDEST SWAP1 POP SWAP5 SWAP4 POP POP POP POP JUMP JUMPDEST PUSH32 0x4E487B7100000000000000000000000000000000000000000000000000000000 PUSH1 0x0 MSTORE PUSH1 0x22 PUSH1 0x4 MSTORE PUSH1 0x24 PUSH1 0x0 REVERT JUMPDEST PUSH1 0x0 PUSH1 0x2 DUP3 DIV SWAP1 POP PUSH1 0x1 DUP3 AND DUP1 PUSH2 0x1802 JUMPI PUSH1 0x7F DUP3 AND SWAP2 POP JUMPDEST PUSH1 0x20 DUP3 LT DUP2 SUB PUSH2 0x1815 JUMPI PUSH2 0x1814 PUSH2 0x17BB JUMP JUMPDEST JUMPDEST POP SWAP2 SWAP1 POP JUMP JUMPDEST PUSH32 0x4E487B7100000000000000000000000000000000000000000000000000000000 PUSH1 0x0 MSTORE PUSH1 0x11 PUSH1 0x4 MSTORE PUSH1 0x24 PUSH1 0x0 REVERT JUMPDEST PUSH1 0x0 PUSH2 0x1855 DUP3 PUSH2 0x1126 JUMP JUMPDEST SWAP2 POP PUSH32 0xFFFFFFFFFFFFFFFFFFFFFFFFFFFFFFFFFFFFFFFFFFFFFFFFFFFFFFFFFFFFFFFF DUP3 SUB PUSH2 0x1887 JUMPI PUSH2 0x1886 PUSH2 0x181B JUMP JUMPDEST JUMPDEST PUSH1 0x1 DUP3 ADD SWAP1 POP SWAP2 SWAP1 POP JUMP JUMPDEST PUSH32 0x426F6F6B206973206E6F7420617661696C61626C6520666F7220626F72726F77 PUSH1 0x0 DUP3 ADD MSTORE PUSH32 0x696E670000000000000000000000000000000000000000000000000000000000 PUSH1 0x20 DUP3 ADD MSTORE POP JUMP JUMPDEST PUSH1 0x0 PUSH2 0x18EE PUSH1 0x23 DUP4 PUSH2 0x1279 JUMP JUMPDEST SWAP2 POP PUSH2 0x18F9 DUP3 PUSH2 0x1892 JUMP JUMPDEST PUSH1 0x40 DUP3 ADD SWAP1 POP SWAP2 SWAP1 POP JUMP JUMPDEST PUSH1 0x0 PUSH1 0x20 DUP3 ADD SWAP1 POP DUP2 DUP2 SUB PUSH1 0x0 DUP4 ADD MSTORE PUSH2 0x191D DUP2 PUSH2 0x18E1 JUMP JUMPDEST SWAP1 POP SWAP2 SWAP1 POP JUMP JUMPDEST PUSH32 0x426F6F6B2069732063757272656E746C7920626F72726F776564000000000000 PUSH1 0x0 DUP3 ADD MSTORE POP JUMP JUMPDEST PUSH1 0x0 PUSH2 0x195A PUSH1 0x1A DUP4 PUSH2 0x1279 JUMP JUMPDEST SWAP2 POP PUSH2 0x1965 DUP3 PUSH2 0x1924 JUMP JUMPDEST PUSH1 0x20 DUP3 ADD SWAP1 POP SWAP2 SWAP1 POP JUMP JUMPDEST PUSH1 0x0 PUSH1 0x20 DUP3 ADD SWAP1 POP DUP2 DUP2 SUB PUSH1 0x0 DUP4 ADD MSTORE PUSH2 0x1989 DUP2 PUSH2 0x194D JUMP JUMPDEST SWAP1 POP SWAP2 SWAP1 POP JUMP JUMPDEST PUSH32 0x426F6F6B20697320616C726561647920617661696C61626C6500000000000000 PUSH1 0x0 DUP3 ADD MSTORE POP JUMP JUMPDEST PUSH1 0x0 PUSH2 0x19C6 PUSH1 0x19 DUP4 PUSH2 0x1279 JUMP JUMPDEST SWAP2 POP PUSH2 0x19D1 DUP3 PUSH2 0x1990 JUMP JUMPDEST PUSH1 0x20 DUP3 ADD SWAP1 POP SWAP2 SWAP1 POP JUMP JUMPDEST PUSH1 0x0 PUSH1 0x20 DUP3 ADD SWAP1 POP DUP2 DUP2 SUB PUSH1 0x0 DUP4 ADD MSTORE PUSH2 0x19F5 DUP2 PUSH2 0x19B9 JUMP JUMPDEST SWAP1 POP SWAP2 SWAP1 POP JUMP INVALID LOG2 PUSH5 0x6970667358 0x22 SLT KECCAK256 0xF9 PUSH4 0x9879813E 0xA6 0xE3 0x4C SAR SGT DUP10 STATICCALL 0x4E EXP 0x2A 0x2D LOG2 CALLCODE 0xDE 0xBE 0xF8 0x26 DUP15 0xAF LOG0 POP 0xBF 0xDB 0xB4 DUP9 EXP PUSH5 0x736F6C6343 STOP ADDMOD 0xD STOP CALLER "
				},
				"gasEstimates": {
					"creation": {
						"codeDepositCost": "1341200",
						"executionCost": "25663",
						"totalCost": "1366863"
					},
					"external": {
						"Admin()": "2599",
						"addBook(string,string,string)": "infinite",
						"bookCount()": "2451",
						"bookIdByISBN(string)": "infinite",
						"books(uint256)": "infinite",
						"borrowBook(uint256)": "30296",
						"getBookByISBN(string)": "infinite",
						"removeBook(uint256)": "infinite",
						"returnBook(uint256)": "30276",
						"updateBook(uint256,string,string,string)": "infinite"
					}
				},
				"methodIdentifiers": {
					"Admin()": "ff1b636d",
					"addBook(string,string,string)": "69c46826",
					"bookCount()": "b905ad78",
					"bookIdByISBN(string)": "b4133148",
					"books(uint256)": "68744046",
					"borrowBook(uint256)": "7e490a9e",
					"getBookByISBN(string)": "233d280c",
					"removeBook(uint256)": "bec0d799",
					"returnBook(uint256)": "ca5140c9",
					"updateBook(uint256,string,string,string)": "3904e647"
				}
			},
			"storageLayout": {
				"storage": [
					{
						"astId": 3,
						"contract": "perpustakaan.sol:perpustakaan",
						"label": "Admin",
						"offset": 0,
						"slot": "0",
						"type": "t_address"
					},
					{
						"astId": 5,
						"contract": "perpustakaan.sol:perpustakaan",
						"label": "bookCount",
						"offset": 0,
						"slot": "1",
						"type": "t_uint256"
					},
					{
						"astId": 19,
						"contract": "perpustakaan.sol:perpustakaan",
						"label": "books",
						"offset": 0,
						"slot": "2",
						"type": "t_mapping(t_uint256,t_struct(Book)14_storage)"
					},
					{
						"astId": 23,
						"contract": "perpustakaan.sol:perpustakaan",
						"label": "bookIdByISBN",
						"offset": 0,
						"slot": "3",
						"type": "t_mapping(t_string_memory_ptr,t_uint256)"
					}
				],
				"types": {
					"t_address": {
						"encoding": "inplace",
						"label": "address",
						"numberOfBytes": "20"
					},
					"t_bool": {
						"encoding": "inplace",
						"label": "bool",
						"numberOfBytes": "1"
					},
					"t_mapping(t_string_memory_ptr,t_uint256)": {
						"encoding": "mapping",
						"key": "t_string_memory_ptr",
						"label": "mapping(string => uint256)",
						"numberOfBytes": "32",
						"value": "t_uint256"
					},
					"t_mapping(t_uint256,t_struct(Book)14_storage)": {
						"encoding": "mapping",
						"key": "t_uint256",
						"label": "mapping(uint256 => struct perpustakaan.Book)",
						"numberOfBytes": "32",
						"value": "t_struct(Book)14_storage"
					},
					"t_string_memory_ptr": {
						"encoding": "bytes",
						"label": "string",
						"numberOfBytes": "32"
					},
					"t_string_storage": {
						"encoding": "bytes",
						"label": "string",
						"numberOfBytes": "32"
					},
					"t_struct(Book)14_storage": {
						"encoding": "inplace",
						"label": "struct perpustakaan.Book",
						"members": [
							{
								"astId": 7,
								"contract": "perpustakaan.sol:perpustakaan",
								"label": "title",
								"offset": 0,
								"slot": "0",
								"type": "t_string_storage"
							},
							{
								"astId": 9,
								"contract": "perpustakaan.sol:perpustakaan",
								"label": "author",
								"offset": 0,
								"slot": "1",
								"type": "t_string_storage"
							},
							{
								"astId": 11,
								"contract": "perpustakaan.sol:perpustakaan",
								"label": "isbn",
								"offset": 0,
								"slot": "2",
								"type": "t_string_storage"
							},
							{
								"astId": 13,
								"contract": "perpustakaan.sol:perpustakaan",
								"label": "isAvailable",
								"offset": 0,
								"slot": "3",
								"type": "t_bool"
							}
						],
						"numberOfBytes": "128"
					},
					"t_uint256": {
						"encoding": "inplace",
						"label": "uint256",
						"numberOfBytes": "32"
					}
				}
			},
			"userdoc": {
				"kind": "user",
				"methods": {},
				"version": 1
			}
		}
	}
}